{
	"contracts/MyCont.sol": {
		"MyContract": {
			"abi": [
				{
					"inputs": [
						{
							"internalType": "uint256",
							"name": "",
							"type": "uint256"
						}
					],
					"name": "addrList",
					"outputs": [
						{
							"internalType": "address",
							"name": "",
							"type": "address"
						}
					],
					"stateMutability": "view",
					"type": "function"
				},
				{
					"inputs": [],
					"name": "changeAddr",
					"outputs": [],
					"stateMutability": "nonpayable",
					"type": "function"
				}
			],
			"devdoc": {
				"kind": "dev",
				"methods": {},
				"version": 1
			},
			"evm": {
				"assembly": "    /* \"contracts/MyCont.sol\":61:477  contract MyContract {... */\n  mstore(0x40, 0x80)\n    /* \"contracts/MyCont.sol\":85:334  address [] public addrList = [0x6119806E928EbF578e7ABC4F6ae73BFd8a8462cD, 0x0F9c56371ab9f277280e0d2Ec68ea5C901a02CDb, 0xc84772C4d95c4f2E12f829b99eB181ED3106611a, 0x5A0CC2C6bF2cEB1cB9B57541fDAa1Fb794A1a1be, 0xc74cB1F17de290348beA287Ae29F67e7AECd75dD] */\n  mload(0x40)\n  dup1\n  0xa0\n  add\n  0x40\n  mstore\n  dup1\n    /* \"contracts/MyCont.sol\":115:157  0x6119806E928EbF578e7ABC4F6ae73BFd8a8462cD */\n  0x6119806e928ebf578e7abc4f6ae73bfd8a8462cd\n    /* \"contracts/MyCont.sol\":85:334  address [] public addrList = [0x6119806E928EbF578e7ABC4F6ae73BFd8a8462cD, 0x0F9c56371ab9f277280e0d2Ec68ea5C901a02CDb, 0xc84772C4d95c4f2E12f829b99eB181ED3106611a, 0x5A0CC2C6bF2cEB1cB9B57541fDAa1Fb794A1a1be, 0xc74cB1F17de290348beA287Ae29F67e7AECd75dD] */\n  0xffffffffffffffffffffffffffffffffffffffff\n  and\n  0xffffffffffffffffffffffffffffffffffffffff\n  and\n  dup2\n  mstore\n  0x20\n  add\n    /* \"contracts/MyCont.sol\":159:201  0x0F9c56371ab9f277280e0d2Ec68ea5C901a02CDb */\n  0x0f9c56371ab9f277280e0d2ec68ea5c901a02cdb\n    /* \"contracts/MyCont.sol\":85:334  address [] public addrList = [0x6119806E928EbF578e7ABC4F6ae73BFd8a8462cD, 0x0F9c56371ab9f277280e0d2Ec68ea5C901a02CDb, 0xc84772C4d95c4f2E12f829b99eB181ED3106611a, 0x5A0CC2C6bF2cEB1cB9B57541fDAa1Fb794A1a1be, 0xc74cB1F17de290348beA287Ae29F67e7AECd75dD] */\n  0xffffffffffffffffffffffffffffffffffffffff\n  and\n  0xffffffffffffffffffffffffffffffffffffffff\n  and\n  dup2\n  mstore\n  0x20\n  add\n    /* \"contracts/MyCont.sol\":203:245  0xc84772C4d95c4f2E12f829b99eB181ED3106611a */\n  0xc84772c4d95c4f2e12f829b99eb181ed3106611a\n    /* \"contracts/MyCont.sol\":85:334  address [] public addrList = [0x6119806E928EbF578e7ABC4F6ae73BFd8a8462cD, 0x0F9c56371ab9f277280e0d2Ec68ea5C901a02CDb, 0xc84772C4d95c4f2E12f829b99eB181ED3106611a, 0x5A0CC2C6bF2cEB1cB9B57541fDAa1Fb794A1a1be, 0xc74cB1F17de290348beA287Ae29F67e7AECd75dD] */\n  0xffffffffffffffffffffffffffffffffffffffff\n  and\n  0xffffffffffffffffffffffffffffffffffffffff\n  and\n  dup2\n  mstore\n  0x20\n  add\n    /* \"contracts/MyCont.sol\":247:289  0x5A0CC2C6bF2cEB1cB9B57541fDAa1Fb794A1a1be */\n  0x5a0cc2c6bf2ceb1cb9b57541fdaa1fb794a1a1be\n    /* \"contracts/MyCont.sol\":85:334  address [] public addrList = [0x6119806E928EbF578e7ABC4F6ae73BFd8a8462cD, 0x0F9c56371ab9f277280e0d2Ec68ea5C901a02CDb, 0xc84772C4d95c4f2E12f829b99eB181ED3106611a, 0x5A0CC2C6bF2cEB1cB9B57541fDAa1Fb794A1a1be, 0xc74cB1F17de290348beA287Ae29F67e7AECd75dD] */\n  0xffffffffffffffffffffffffffffffffffffffff\n  and\n  0xffffffffffffffffffffffffffffffffffffffff\n  and\n  dup2\n  mstore\n  0x20\n  add\n    /* \"contracts/MyCont.sol\":291:333  0xc74cB1F17de290348beA287Ae29F67e7AECd75dD */\n  0xc74cb1f17de290348bea287ae29f67e7aecd75dd\n    /* \"contracts/MyCont.sol\":85:334  address [] public addrList = [0x6119806E928EbF578e7ABC4F6ae73BFd8a8462cD, 0x0F9c56371ab9f277280e0d2Ec68ea5C901a02CDb, 0xc84772C4d95c4f2E12f829b99eB181ED3106611a, 0x5A0CC2C6bF2cEB1cB9B57541fDAa1Fb794A1a1be, 0xc74cB1F17de290348beA287Ae29F67e7AECd75dD] */\n  0xffffffffffffffffffffffffffffffffffffffff\n  and\n  0xffffffffffffffffffffffffffffffffffffffff\n  and\n  dup2\n  mstore\n  pop\n  0x00\n  swap1\n  0x05\n  tag_1\n  swap3\n  swap2\n  swap1\n  tag_2\n  jump\t// in\ntag_1:\n  pop\n    /* \"contracts/MyCont.sol\":61:477  contract MyContract {... */\n  callvalue\n  dup1\n  iszero\n  tag_3\n  jumpi\n  0x00\n  dup1\n  revert\ntag_3:\n  pop\n  jump(tag_4)\ntag_2:\n  dup3\n  dup1\n  sload\n  dup3\n  dup3\n  sstore\n  swap1\n  0x00\n  mstore\n  keccak256(0x00, 0x20)\n  swap1\n  dup2\n  add\n  swap3\n  dup3\n  iszero\n  tag_5\n  jumpi\n  swap2\n  0x20\n  mul\n  dup3\n  add\ntag_6:\n  dup3\n  dup2\n  gt\n  iszero\n  tag_7\n  jumpi\n  dup3\n  mload\n  dup3\n  exp(0x0100, 0x00)\n  dup2\n  sload\n  dup2\n  0xffffffffffffffffffffffffffffffffffffffff\n  mul\n  not\n  and\n  swap1\n  dup4\n  0xffffffffffffffffffffffffffffffffffffffff\n  and\n  mul\n  or\n  swap1\n  sstore\n  pop\n  swap2\n  0x20\n  add\n  swap2\n  swap1\n  0x01\n  add\n  swap1\n  jump(tag_6)\ntag_7:\ntag_5:\n  pop\n  swap1\n  pop\n  tag_8\n  swap2\n  swap1\n  tag_9\n  jump\t// in\ntag_8:\n  pop\n  swap1\n  jump\t// out\ntag_9:\ntag_10:\n  dup1\n  dup3\n  gt\n  iszero\n  tag_11\n  jumpi\n  0x00\n  dup2\n  0x00\n  swap1\n  sstore\n  pop\n  0x01\n  add\n  jump(tag_10)\ntag_11:\n  pop\n  swap1\n  jump\t// out\ntag_4:\n  dataSize(sub_0)\n  dup1\n  dataOffset(sub_0)\n  0x00\n  codecopy\n  0x00\n  return\nstop\n\nsub_0: assembly {\n        /* \"contracts/MyCont.sol\":61:477  contract MyContract {... */\n      mstore(0x40, 0x80)\n      callvalue\n      dup1\n      iszero\n      tag_1\n      jumpi\n      0x00\n      dup1\n      revert\n    tag_1:\n      pop\n      jumpi(tag_2, lt(calldatasize, 0x04))\n      shr(0xe0, calldataload(0x00))\n      dup1\n      0x353a360e\n      eq\n      tag_3\n      jumpi\n      dup1\n      0x80402564\n      eq\n      tag_4\n      jumpi\n    tag_2:\n      0x00\n      dup1\n      revert\n        /* \"contracts/MyCont.sol\":338:475  function changeAddr() public {... */\n    tag_3:\n      tag_5\n      tag_6\n      jump\t// in\n    tag_5:\n      stop\n        /* \"contracts/MyCont.sol\":85:334  address [] public addrList = [0x6119806E928EbF578e7ABC4F6ae73BFd8a8462cD, 0x0F9c56371ab9f277280e0d2Ec68ea5C901a02CDb, 0xc84772C4d95c4f2E12f829b99eB181ED3106611a, 0x5A0CC2C6bF2cEB1cB9B57541fDAa1Fb794A1a1be, 0xc74cB1F17de290348beA287Ae29F67e7AECd75dD] */\n    tag_4:\n      tag_7\n      0x04\n      dup1\n      calldatasize\n      sub\n      dup2\n      add\n      swap1\n      tag_8\n      swap2\n      swap1\n      tag_9\n      jump\t// in\n    tag_8:\n      tag_10\n      jump\t// in\n    tag_7:\n      mload(0x40)\n      tag_11\n      swap2\n      swap1\n      tag_12\n      jump\t// in\n    tag_11:\n      mload(0x40)\n      dup1\n      swap2\n      sub\n      swap1\n      return\n        /* \"contracts/MyCont.sol\":338:475  function changeAddr() public {... */\n    tag_6:\n        /* \"contracts/MyCont.sol\":378:384  uint i */\n      0x00\n        /* \"contracts/MyCont.sol\":387:388  2 */\n      0x02\n        /* \"contracts/MyCont.sol\":378:388  uint i = 2 */\n      swap1\n      pop\n        /* \"contracts/MyCont.sol\":373:471  for (uint i = 2; i < addrList.length; i+2) {... */\n    tag_14:\n        /* \"contracts/MyCont.sol\":394:402  addrList */\n      0x00\n        /* \"contracts/MyCont.sol\":394:409  addrList.length */\n      dup1\n      sload\n      swap1\n      pop\n        /* \"contracts/MyCont.sol\":390:391  i */\n      dup2\n        /* \"contracts/MyCont.sol\":390:409  i < addrList.length */\n      lt\n        /* \"contracts/MyCont.sol\":373:471  for (uint i = 2; i < addrList.length; i+2) {... */\n      iszero\n      tag_15\n      jumpi\n        /* \"contracts/MyCont.sol\":447:457  msg.sender */\n      caller\n        /* \"contracts/MyCont.sol\":433:441  addrList */\n      0x00\n        /* \"contracts/MyCont.sol\":442:443  i */\n      dup3\n        /* \"contracts/MyCont.sol\":433:444  addrList[i] */\n      dup2\n      sload\n      dup2\n      lt\n      tag_17\n      jumpi\n      tag_18\n      tag_19\n      jump\t// in\n    tag_18:\n    tag_17:\n      swap1\n      0x00\n      mstore\n      keccak256(0x00, 0x20)\n      add\n      0x00\n        /* \"contracts/MyCont.sol\":433:457  addrList[i] = msg.sender */\n      0x0100\n      exp\n      dup2\n      sload\n      dup2\n      0xffffffffffffffffffffffffffffffffffffffff\n      mul\n      not\n      and\n      swap1\n      dup4\n      0xffffffffffffffffffffffffffffffffffffffff\n      and\n      mul\n      or\n      swap1\n      sstore\n      pop\n        /* \"contracts/MyCont.sol\":413:414  2 */\n      0x02\n        /* \"contracts/MyCont.sol\":411:412  i */\n      dup2\n        /* \"contracts/MyCont.sol\":411:414  i+2 */\n      tag_21\n      swap2\n      swap1\n      tag_22\n      jump\t// in\n    tag_21:\n      pop\n        /* \"contracts/MyCont.sol\":373:471  for (uint i = 2; i < addrList.length; i+2) {... */\n      jump(tag_14)\n    tag_15:\n      pop\n        /* \"contracts/MyCont.sol\":338:475  function changeAddr() public {... */\n      jump\t// out\n        /* \"contracts/MyCont.sol\":85:334  address [] public addrList = [0x6119806E928EbF578e7ABC4F6ae73BFd8a8462cD, 0x0F9c56371ab9f277280e0d2Ec68ea5C901a02CDb, 0xc84772C4d95c4f2E12f829b99eB181ED3106611a, 0x5A0CC2C6bF2cEB1cB9B57541fDAa1Fb794A1a1be, 0xc74cB1F17de290348beA287Ae29F67e7AECd75dD] */\n    tag_10:\n      0x00\n      dup2\n      dup2\n      sload\n      dup2\n      lt\n      tag_23\n      jumpi\n      0x00\n      dup1\n      revert\n    tag_23:\n      swap1\n      0x00\n      mstore\n      keccak256(0x00, 0x20)\n      add\n      0x00\n      swap2\n      pop\n      sload\n      swap1\n      0x0100\n      exp\n      swap1\n      div\n      0xffffffffffffffffffffffffffffffffffffffff\n      and\n      dup2\n      jump\t// out\n        /* \"#utility.yul\":7:146   */\n    tag_26:\n        /* \"#utility.yul\":53:58   */\n      0x00\n        /* \"#utility.yul\":91:97   */\n      dup2\n        /* \"#utility.yul\":78:98   */\n      calldataload\n        /* \"#utility.yul\":69:98   */\n      swap1\n      pop\n        /* \"#utility.yul\":107:140   */\n      tag_28\n        /* \"#utility.yul\":134:139   */\n      dup2\n        /* \"#utility.yul\":107:140   */\n      tag_29\n      jump\t// in\n    tag_28:\n        /* \"#utility.yul\":7:146   */\n      swap3\n      swap2\n      pop\n      pop\n      jump\t// out\n        /* \"#utility.yul\":152:481   */\n    tag_9:\n        /* \"#utility.yul\":211:217   */\n      0x00\n        /* \"#utility.yul\":260:262   */\n      0x20\n        /* \"#utility.yul\":248:257   */\n      dup3\n        /* \"#utility.yul\":239:246   */\n      dup5\n        /* \"#utility.yul\":235:258   */\n      sub\n        /* \"#utility.yul\":231:263   */\n      slt\n        /* \"#utility.yul\":228:347   */\n      iszero\n      tag_31\n      jumpi\n        /* \"#utility.yul\":266:345   */\n      tag_32\n      tag_33\n      jump\t// in\n    tag_32:\n        /* \"#utility.yul\":228:347   */\n    tag_31:\n        /* \"#utility.yul\":386:387   */\n      0x00\n        /* \"#utility.yul\":411:464   */\n      tag_34\n        /* \"#utility.yul\":456:463   */\n      dup5\n        /* \"#utility.yul\":447:453   */\n      dup3\n        /* \"#utility.yul\":436:445   */\n      dup6\n        /* \"#utility.yul\":432:454   */\n      add\n        /* \"#utility.yul\":411:464   */\n      tag_26\n      jump\t// in\n    tag_34:\n        /* \"#utility.yul\":401:464   */\n      swap2\n      pop\n        /* \"#utility.yul\":357:474   */\n      pop\n        /* \"#utility.yul\":152:481   */\n      swap3\n      swap2\n      pop\n      pop\n      jump\t// out\n        /* \"#utility.yul\":487:605   */\n    tag_35:\n        /* \"#utility.yul\":574:598   */\n      tag_37\n        /* \"#utility.yul\":592:597   */\n      dup2\n        /* \"#utility.yul\":574:598   */\n      tag_38\n      jump\t// in\n    tag_37:\n        /* \"#utility.yul\":569:572   */\n      dup3\n        /* \"#utility.yul\":562:599   */\n      mstore\n        /* \"#utility.yul\":487:605   */\n      pop\n      pop\n      jump\t// out\n        /* \"#utility.yul\":611:833   */\n    tag_12:\n        /* \"#utility.yul\":704:708   */\n      0x00\n        /* \"#utility.yul\":742:744   */\n      0x20\n        /* \"#utility.yul\":731:740   */\n      dup3\n        /* \"#utility.yul\":727:745   */\n      add\n        /* \"#utility.yul\":719:745   */\n      swap1\n      pop\n        /* \"#utility.yul\":755:826   */\n      tag_40\n        /* \"#utility.yul\":823:824   */\n      0x00\n        /* \"#utility.yul\":812:821   */\n      dup4\n        /* \"#utility.yul\":808:825   */\n      add\n        /* \"#utility.yul\":799:805   */\n      dup5\n        /* \"#utility.yul\":755:826   */\n      tag_35\n      jump\t// in\n    tag_40:\n        /* \"#utility.yul\":611:833   */\n      swap3\n      swap2\n      pop\n      pop\n      jump\t// out\n        /* \"#utility.yul\":920:1225   */\n    tag_22:\n        /* \"#utility.yul\":960:963   */\n      0x00\n        /* \"#utility.yul\":979:999   */\n      tag_44\n        /* \"#utility.yul\":997:998   */\n      dup3\n        /* \"#utility.yul\":979:999   */\n      tag_45\n      jump\t// in\n    tag_44:\n        /* \"#utility.yul\":974:999   */\n      swap2\n      pop\n        /* \"#utility.yul\":1013:1033   */\n      tag_46\n        /* \"#utility.yul\":1031:1032   */\n      dup4\n        /* \"#utility.yul\":1013:1033   */\n      tag_45\n      jump\t// in\n    tag_46:\n        /* \"#utility.yul\":1008:1033   */\n      swap3\n      pop\n        /* \"#utility.yul\":1167:1168   */\n      dup3\n        /* \"#utility.yul\":1099:1165   */\n      0xffffffffffffffffffffffffffffffffffffffffffffffffffffffffffffffff\n        /* \"#utility.yul\":1095:1169   */\n      sub\n        /* \"#utility.yul\":1092:1093   */\n      dup3\n        /* \"#utility.yul\":1089:1170   */\n      gt\n        /* \"#utility.yul\":1086:1193   */\n      iszero\n      tag_47\n      jumpi\n        /* \"#utility.yul\":1173:1191   */\n      tag_48\n      tag_49\n      jump\t// in\n    tag_48:\n        /* \"#utility.yul\":1086:1193   */\n    tag_47:\n        /* \"#utility.yul\":1217:1218   */\n      dup3\n        /* \"#utility.yul\":1214:1215   */\n      dup3\n        /* \"#utility.yul\":1210:1219   */\n      add\n        /* \"#utility.yul\":1203:1219   */\n      swap1\n      pop\n        /* \"#utility.yul\":920:1225   */\n      swap3\n      swap2\n      pop\n      pop\n      jump\t// out\n        /* \"#utility.yul\":1231:1327   */\n    tag_38:\n        /* \"#utility.yul\":1268:1275   */\n      0x00\n        /* \"#utility.yul\":1297:1321   */\n      tag_51\n        /* \"#utility.yul\":1315:1320   */\n      dup3\n        /* \"#utility.yul\":1297:1321   */\n      tag_52\n      jump\t// in\n    tag_51:\n        /* \"#utility.yul\":1286:1321   */\n      swap1\n      pop\n        /* \"#utility.yul\":1231:1327   */\n      swap2\n      swap1\n      pop\n      jump\t// out\n        /* \"#utility.yul\":1333:1459   */\n    tag_52:\n        /* \"#utility.yul\":1370:1377   */\n      0x00\n        /* \"#utility.yul\":1410:1452   */\n      0xffffffffffffffffffffffffffffffffffffffff\n        /* \"#utility.yul\":1403:1408   */\n      dup3\n        /* \"#utility.yul\":1399:1453   */\n      and\n        /* \"#utility.yul\":1388:1453   */\n      swap1\n      pop\n        /* \"#utility.yul\":1333:1459   */\n      swap2\n      swap1\n      pop\n      jump\t// out\n        /* \"#utility.yul\":1465:1542   */\n    tag_45:\n        /* \"#utility.yul\":1502:1509   */\n      0x00\n        /* \"#utility.yul\":1531:1536   */\n      dup2\n        /* \"#utility.yul\":1520:1536   */\n      swap1\n      pop\n        /* \"#utility.yul\":1465:1542   */\n      swap2\n      swap1\n      pop\n      jump\t// out\n        /* \"#utility.yul\":1548:1728   */\n    tag_49:\n        /* \"#utility.yul\":1596:1673   */\n      0x4e487b7100000000000000000000000000000000000000000000000000000000\n        /* \"#utility.yul\":1593:1594   */\n      0x00\n        /* \"#utility.yul\":1586:1674   */\n      mstore\n        /* \"#utility.yul\":1693:1697   */\n      0x11\n        /* \"#utility.yul\":1690:1691   */\n      0x04\n        /* \"#utility.yul\":1683:1698   */\n      mstore\n        /* \"#utility.yul\":1717:1721   */\n      0x24\n        /* \"#utility.yul\":1714:1715   */\n      0x00\n        /* \"#utility.yul\":1707:1722   */\n      revert\n        /* \"#utility.yul\":1734:1914   */\n    tag_19:\n        /* \"#utility.yul\":1782:1859   */\n      0x4e487b7100000000000000000000000000000000000000000000000000000000\n        /* \"#utility.yul\":1779:1780   */\n      0x00\n        /* \"#utility.yul\":1772:1860   */\n      mstore\n        /* \"#utility.yul\":1879:1883   */\n      0x32\n        /* \"#utility.yul\":1876:1877   */\n      0x04\n        /* \"#utility.yul\":1869:1884   */\n      mstore\n        /* \"#utility.yul\":1903:1907   */\n      0x24\n        /* \"#utility.yul\":1900:1901   */\n      0x00\n        /* \"#utility.yul\":1893:1908   */\n      revert\n        /* \"#utility.yul\":2043:2160   */\n    tag_33:\n        /* \"#utility.yul\":2152:2153   */\n      0x00\n        /* \"#utility.yul\":2149:2150   */\n      dup1\n        /* \"#utility.yul\":2142:2154   */\n      revert\n        /* \"#utility.yul\":2166:2288   */\n    tag_29:\n        /* \"#utility.yul\":2239:2263   */\n      tag_61\n        /* \"#utility.yul\":2257:2262   */\n      dup2\n        /* \"#utility.yul\":2239:2263   */\n      tag_45\n      jump\t// in\n    tag_61:\n        /* \"#utility.yul\":2232:2237   */\n      dup2\n        /* \"#utility.yul\":2229:2264   */\n      eq\n        /* \"#utility.yul\":2219:2282   */\n      tag_62\n      jumpi\n        /* \"#utility.yul\":2278:2279   */\n      0x00\n        /* \"#utility.yul\":2275:2276   */\n      dup1\n        /* \"#utility.yul\":2268:2280   */\n      revert\n        /* \"#utility.yul\":2219:2282   */\n    tag_62:\n        /* \"#utility.yul\":2166:2288   */\n      pop\n      jump\t// out\n\n    auxdata: 0xa264697066735822122061342d3df59750b89226b8cde2ddc5a4bc6cae5886345ab580c6b1dedd15029b64736f6c63430008070033\n}\n",
				"bytecode": {
					"linkReferences": {},
					"object": "60806040526040518060a00160405280736119806e928ebf578e7abc4f6ae73bfd8a8462cd73ffffffffffffffffffffffffffffffffffffffff1673ffffffffffffffffffffffffffffffffffffffff168152602001730f9c56371ab9f277280e0d2ec68ea5c901a02cdb73ffffffffffffffffffffffffffffffffffffffff1673ffffffffffffffffffffffffffffffffffffffff16815260200173c84772c4d95c4f2e12f829b99eb181ed3106611a73ffffffffffffffffffffffffffffffffffffffff1673ffffffffffffffffffffffffffffffffffffffff168152602001735a0cc2c6bf2ceb1cb9b57541fdaa1fb794a1a1be73ffffffffffffffffffffffffffffffffffffffff1673ffffffffffffffffffffffffffffffffffffffff16815260200173c74cb1f17de290348bea287ae29f67e7aecd75dd73ffffffffffffffffffffffffffffffffffffffff1673ffffffffffffffffffffffffffffffffffffffff16815250600090600561017b92919061018e565b5034801561018857600080fd5b50610235565b828054828255906000526020600020908101928215610207579160200282015b828111156102065782518260006101000a81548173ffffffffffffffffffffffffffffffffffffffff021916908373ffffffffffffffffffffffffffffffffffffffff160217905550916020019190600101906101ae565b5b5090506102149190610218565b5090565b5b80821115610231576000816000905550600101610219565b5090565b6102e9806102446000396000f3fe608060405234801561001057600080fd5b50600436106100365760003560e01c8063353a360e1461003b5780638040256414610045575b600080fd5b610043610075565b005b61005f600480360381019061005a9190610150565b6100fc565b60405161006c919061018c565b60405180910390f35b6000600290505b6000805490508110156100f957336000828154811061009e5761009d610268565b5b9060005260206000200160006101000a81548173ffffffffffffffffffffffffffffffffffffffff021916908373ffffffffffffffffffffffffffffffffffffffff1602179055506002816100f391906101a7565b5061007c565b50565b6000818154811061010c57600080fd5b906000526020600020016000915054906101000a900473ffffffffffffffffffffffffffffffffffffffff1681565b60008135905061014a8161029c565b92915050565b60006020828403121561016657610165610297565b5b60006101748482850161013b565b91505092915050565b610186816101fd565b82525050565b60006020820190506101a1600083018461017d565b92915050565b60006101b28261022f565b91506101bd8361022f565b9250827fffffffffffffffffffffffffffffffffffffffffffffffffffffffffffffffff038211156101f2576101f1610239565b5b828201905092915050565b60006102088261020f565b9050919050565b600073ffffffffffffffffffffffffffffffffffffffff82169050919050565b6000819050919050565b7f4e487b7100000000000000000000000000000000000000000000000000000000600052601160045260246000fd5b7f4e487b7100000000000000000000000000000000000000000000000000000000600052603260045260246000fd5b600080fd5b6102a58161022f565b81146102b057600080fd5b5056fea264697066735822122061342d3df59750b89226b8cde2ddc5a4bc6cae5886345ab580c6b1dedd15029b64736f6c63430008070033",
					"opcodes": "PUSH1 0x80 PUSH1 0x40 MSTORE PUSH1 0x40 MLOAD DUP1 PUSH1 0xA0 ADD PUSH1 0x40 MSTORE DUP1 PUSH20 0x6119806E928EBF578E7ABC4F6AE73BFD8A8462CD PUSH20 0xFFFFFFFFFFFFFFFFFFFFFFFFFFFFFFFFFFFFFFFF AND PUSH20 0xFFFFFFFFFFFFFFFFFFFFFFFFFFFFFFFFFFFFFFFF AND DUP2 MSTORE PUSH1 0x20 ADD PUSH20 0xF9C56371AB9F277280E0D2EC68EA5C901A02CDB PUSH20 0xFFFFFFFFFFFFFFFFFFFFFFFFFFFFFFFFFFFFFFFF AND PUSH20 0xFFFFFFFFFFFFFFFFFFFFFFFFFFFFFFFFFFFFFFFF AND DUP2 MSTORE PUSH1 0x20 ADD PUSH20 0xC84772C4D95C4F2E12F829B99EB181ED3106611A PUSH20 0xFFFFFFFFFFFFFFFFFFFFFFFFFFFFFFFFFFFFFFFF AND PUSH20 0xFFFFFFFFFFFFFFFFFFFFFFFFFFFFFFFFFFFFFFFF AND DUP2 MSTORE PUSH1 0x20 ADD PUSH20 0x5A0CC2C6BF2CEB1CB9B57541FDAA1FB794A1A1BE PUSH20 0xFFFFFFFFFFFFFFFFFFFFFFFFFFFFFFFFFFFFFFFF AND PUSH20 0xFFFFFFFFFFFFFFFFFFFFFFFFFFFFFFFFFFFFFFFF AND DUP2 MSTORE PUSH1 0x20 ADD PUSH20 0xC74CB1F17DE290348BEA287AE29F67E7AECD75DD PUSH20 0xFFFFFFFFFFFFFFFFFFFFFFFFFFFFFFFFFFFFFFFF AND PUSH20 0xFFFFFFFFFFFFFFFFFFFFFFFFFFFFFFFFFFFFFFFF AND DUP2 MSTORE POP PUSH1 0x0 SWAP1 PUSH1 0x5 PUSH2 0x17B SWAP3 SWAP2 SWAP1 PUSH2 0x18E JUMP JUMPDEST POP CALLVALUE DUP1 ISZERO PUSH2 0x188 JUMPI PUSH1 0x0 DUP1 REVERT JUMPDEST POP PUSH2 0x235 JUMP JUMPDEST DUP3 DUP1 SLOAD DUP3 DUP3 SSTORE SWAP1 PUSH1 0x0 MSTORE PUSH1 0x20 PUSH1 0x0 KECCAK256 SWAP1 DUP2 ADD SWAP3 DUP3 ISZERO PUSH2 0x207 JUMPI SWAP2 PUSH1 0x20 MUL DUP3 ADD JUMPDEST DUP3 DUP2 GT ISZERO PUSH2 0x206 JUMPI DUP3 MLOAD DUP3 PUSH1 0x0 PUSH2 0x100 EXP DUP2 SLOAD DUP2 PUSH20 0xFFFFFFFFFFFFFFFFFFFFFFFFFFFFFFFFFFFFFFFF MUL NOT AND SWAP1 DUP4 PUSH20 0xFFFFFFFFFFFFFFFFFFFFFFFFFFFFFFFFFFFFFFFF AND MUL OR SWAP1 SSTORE POP SWAP2 PUSH1 0x20 ADD SWAP2 SWAP1 PUSH1 0x1 ADD SWAP1 PUSH2 0x1AE JUMP JUMPDEST JUMPDEST POP SWAP1 POP PUSH2 0x214 SWAP2 SWAP1 PUSH2 0x218 JUMP JUMPDEST POP SWAP1 JUMP JUMPDEST JUMPDEST DUP1 DUP3 GT ISZERO PUSH2 0x231 JUMPI PUSH1 0x0 DUP2 PUSH1 0x0 SWAP1 SSTORE POP PUSH1 0x1 ADD PUSH2 0x219 JUMP JUMPDEST POP SWAP1 JUMP JUMPDEST PUSH2 0x2E9 DUP1 PUSH2 0x244 PUSH1 0x0 CODECOPY PUSH1 0x0 RETURN INVALID PUSH1 0x80 PUSH1 0x40 MSTORE CALLVALUE DUP1 ISZERO PUSH2 0x10 JUMPI PUSH1 0x0 DUP1 REVERT JUMPDEST POP PUSH1 0x4 CALLDATASIZE LT PUSH2 0x36 JUMPI PUSH1 0x0 CALLDATALOAD PUSH1 0xE0 SHR DUP1 PUSH4 0x353A360E EQ PUSH2 0x3B JUMPI DUP1 PUSH4 0x80402564 EQ PUSH2 0x45 JUMPI JUMPDEST PUSH1 0x0 DUP1 REVERT JUMPDEST PUSH2 0x43 PUSH2 0x75 JUMP JUMPDEST STOP JUMPDEST PUSH2 0x5F PUSH1 0x4 DUP1 CALLDATASIZE SUB DUP2 ADD SWAP1 PUSH2 0x5A SWAP2 SWAP1 PUSH2 0x150 JUMP JUMPDEST PUSH2 0xFC JUMP JUMPDEST PUSH1 0x40 MLOAD PUSH2 0x6C SWAP2 SWAP1 PUSH2 0x18C JUMP JUMPDEST PUSH1 0x40 MLOAD DUP1 SWAP2 SUB SWAP1 RETURN JUMPDEST PUSH1 0x0 PUSH1 0x2 SWAP1 POP JUMPDEST PUSH1 0x0 DUP1 SLOAD SWAP1 POP DUP2 LT ISZERO PUSH2 0xF9 JUMPI CALLER PUSH1 0x0 DUP3 DUP2 SLOAD DUP2 LT PUSH2 0x9E JUMPI PUSH2 0x9D PUSH2 0x268 JUMP JUMPDEST JUMPDEST SWAP1 PUSH1 0x0 MSTORE PUSH1 0x20 PUSH1 0x0 KECCAK256 ADD PUSH1 0x0 PUSH2 0x100 EXP DUP2 SLOAD DUP2 PUSH20 0xFFFFFFFFFFFFFFFFFFFFFFFFFFFFFFFFFFFFFFFF MUL NOT AND SWAP1 DUP4 PUSH20 0xFFFFFFFFFFFFFFFFFFFFFFFFFFFFFFFFFFFFFFFF AND MUL OR SWAP1 SSTORE POP PUSH1 0x2 DUP2 PUSH2 0xF3 SWAP2 SWAP1 PUSH2 0x1A7 JUMP JUMPDEST POP PUSH2 0x7C JUMP JUMPDEST POP JUMP JUMPDEST PUSH1 0x0 DUP2 DUP2 SLOAD DUP2 LT PUSH2 0x10C JUMPI PUSH1 0x0 DUP1 REVERT JUMPDEST SWAP1 PUSH1 0x0 MSTORE PUSH1 0x20 PUSH1 0x0 KECCAK256 ADD PUSH1 0x0 SWAP2 POP SLOAD SWAP1 PUSH2 0x100 EXP SWAP1 DIV PUSH20 0xFFFFFFFFFFFFFFFFFFFFFFFFFFFFFFFFFFFFFFFF AND DUP2 JUMP JUMPDEST PUSH1 0x0 DUP2 CALLDATALOAD SWAP1 POP PUSH2 0x14A DUP2 PUSH2 0x29C JUMP JUMPDEST SWAP3 SWAP2 POP POP JUMP JUMPDEST PUSH1 0x0 PUSH1 0x20 DUP3 DUP5 SUB SLT ISZERO PUSH2 0x166 JUMPI PUSH2 0x165 PUSH2 0x297 JUMP JUMPDEST JUMPDEST PUSH1 0x0 PUSH2 0x174 DUP5 DUP3 DUP6 ADD PUSH2 0x13B JUMP JUMPDEST SWAP2 POP POP SWAP3 SWAP2 POP POP JUMP JUMPDEST PUSH2 0x186 DUP2 PUSH2 0x1FD JUMP JUMPDEST DUP3 MSTORE POP POP JUMP JUMPDEST PUSH1 0x0 PUSH1 0x20 DUP3 ADD SWAP1 POP PUSH2 0x1A1 PUSH1 0x0 DUP4 ADD DUP5 PUSH2 0x17D JUMP JUMPDEST SWAP3 SWAP2 POP POP JUMP JUMPDEST PUSH1 0x0 PUSH2 0x1B2 DUP3 PUSH2 0x22F JUMP JUMPDEST SWAP2 POP PUSH2 0x1BD DUP4 PUSH2 0x22F JUMP JUMPDEST SWAP3 POP DUP3 PUSH32 0xFFFFFFFFFFFFFFFFFFFFFFFFFFFFFFFFFFFFFFFFFFFFFFFFFFFFFFFFFFFFFFFF SUB DUP3 GT ISZERO PUSH2 0x1F2 JUMPI PUSH2 0x1F1 PUSH2 0x239 JUMP JUMPDEST JUMPDEST DUP3 DUP3 ADD SWAP1 POP SWAP3 SWAP2 POP POP JUMP JUMPDEST PUSH1 0x0 PUSH2 0x208 DUP3 PUSH2 0x20F JUMP JUMPDEST SWAP1 POP SWAP2 SWAP1 POP JUMP JUMPDEST PUSH1 0x0 PUSH20 0xFFFFFFFFFFFFFFFFFFFFFFFFFFFFFFFFFFFFFFFF DUP3 AND SWAP1 POP SWAP2 SWAP1 POP JUMP JUMPDEST PUSH1 0x0 DUP2 SWAP1 POP SWAP2 SWAP1 POP JUMP JUMPDEST PUSH32 0x4E487B7100000000000000000000000000000000000000000000000000000000 PUSH1 0x0 MSTORE PUSH1 0x11 PUSH1 0x4 MSTORE PUSH1 0x24 PUSH1 0x0 REVERT JUMPDEST PUSH32 0x4E487B7100000000000000000000000000000000000000000000000000000000 PUSH1 0x0 MSTORE PUSH1 0x32 PUSH1 0x4 MSTORE PUSH1 0x24 PUSH1 0x0 REVERT JUMPDEST PUSH1 0x0 DUP1 REVERT JUMPDEST PUSH2 0x2A5 DUP2 PUSH2 0x22F JUMP JUMPDEST DUP2 EQ PUSH2 0x2B0 JUMPI PUSH1 0x0 DUP1 REVERT JUMPDEST POP JUMP INVALID LOG2 PUSH5 0x6970667358 0x22 SLT KECCAK256 PUSH2 0x342D RETURNDATASIZE CREATE2 SWAP8 POP 0xB8 SWAP3 0x26 0xB8 0xCD 0xE2 0xDD 0xC5 LOG4 0xBC PUSH13 0xAE5886345AB580C6B1DEDD1502 SWAP12 PUSH5 0x736F6C6343 STOP ADDMOD SMOD STOP CALLER "
				},
				"gasEstimates": {
					"creation": {
						"codeDepositCost": "149000",
						"executionCost": "infinite",
						"totalCost": "infinite"
					},
					"external": {
						"addrList(uint256)": "4956",
						"changeAddr()": "infinite"
					}
				},
				"methodIdentifiers": {
					"addrList(uint256)": "80402564",
					"changeAddr()": "353a360e"
				}
			},
			"storageLayout": {
				"storage": [
					{
						"astId": 10,
						"contract": "contracts/MyCont.sol:MyContract",
						"label": "addrList",
						"offset": 0,
						"slot": "0",
						"type": "t_array(t_address)dyn_storage"
					}
				],
				"types": {
					"t_address": {
						"encoding": "inplace",
						"label": "address",
						"numberOfBytes": "20"
					},
					"t_array(t_address)dyn_storage": {
						"base": "t_address",
						"encoding": "dynamic_array",
						"label": "address[]",
						"numberOfBytes": "32"
					}
				}
			},
			"userdoc": {
				"kind": "user",
				"methods": {},
				"version": 1
			}
		}
	}
}