{
	"contracts/sol.sol": {
		"Sol": {
			"abi": [
				{
					"inputs": [],
					"stateMutability": "nonpayable",
					"type": "constructor"
				},
				{
					"inputs": [],
					"name": "demo",
					"outputs": [
						{
							"internalType": "string",
							"name": "",
							"type": "string"
						}
					],
					"stateMutability": "view",
					"type": "function"
				},
				{
					"inputs": [
						{
							"internalType": "uint256",
							"name": "",
							"type": "uint256"
						}
					],
					"name": "users",
					"outputs": [
						{
							"internalType": "uint256",
							"name": "age",
							"type": "uint256"
						},
						{
							"internalType": "string",
							"name": "name",
							"type": "string"
						}
					],
					"stateMutability": "view",
					"type": "function"
				}
			],
			"devdoc": {
				"kind": "dev",
				"methods": {},
				"version": 1
			},
			"evm": {
				"assembly": "    /* \"contracts/sol.sol\":56:369  contract Sol {... */\n  mstore(0x40, 0x80)\n    /* \"contracts/sol.sol\":153:253  constructor() {... */\n  callvalue\n  dup1\n  iszero\n  tag_1\n  jumpi\n  0x00\n  dup1\n  revert\ntag_1:\n  pop\n    /* \"contracts/sol.sol\":170:193  Person memory newPerson */\n  0x00\n    /* \"contracts/sol.sol\":196:227  Person({age: 30, name: \"John\"}) */\n  mload(0x40)\n  dup1\n  0x40\n  add\n  0x40\n  mstore\n  dup1\n    /* \"contracts/sol.sol\":209:211  30 */\n  0x1e\n    /* \"contracts/sol.sol\":196:227  Person({age: 30, name: \"John\"}) */\n  dup2\n  mstore\n  0x20\n  add\n  mload(0x40)\n  dup1\n  0x40\n  add\n  0x40\n  mstore\n  dup1\n  0x04\n  dup2\n  mstore\n  0x20\n  add\n  0x4a6f686e00000000000000000000000000000000000000000000000000000000\n  dup2\n  mstore\n  pop\n  dup2\n  mstore\n  pop\n    /* \"contracts/sol.sol\":170:227  Person memory newPerson = Person({age: 30, name: \"John\"}) */\n  swap1\n  pop\n    /* \"contracts/sol.sol\":241:250  newPerson */\n  dup1\n    /* \"contracts/sol.sol\":230:235  users */\n  0x00\n    /* \"contracts/sol.sol\":230:238  users[0] */\n  dup1\n    /* \"contracts/sol.sol\":236:237  0 */\n  dup1\n    /* \"contracts/sol.sol\":230:238  users[0] */\n  dup2\n  mstore\n  0x20\n  add\n  swap1\n  dup2\n  mstore\n  0x20\n  add\n  0x00\n  keccak256\n    /* \"contracts/sol.sol\":230:250  users[0] = newPerson */\n  0x00\n  dup3\n  add\n  mload\n  dup2\n  0x00\n  add\n  sstore\n  0x20\n  dup3\n  add\n  mload\n  dup2\n  0x01\n  add\n  swap1\n  dup1\n  mload\n  swap1\n  0x20\n  add\n  swap1\n  tag_4\n  swap3\n  swap2\n  swap1\n  tag_5\n  jump\t// in\ntag_4:\n  pop\n  swap1\n  pop\n  pop\n    /* \"contracts/sol.sol\":167:253  {... */\n  pop\n    /* \"contracts/sol.sol\":56:369  contract Sol {... */\n  jump(tag_6)\ntag_5:\n  dup3\n  dup1\n  sload\n  tag_7\n  swap1\n  tag_8\n  jump\t// in\ntag_7:\n  swap1\n  0x00\n  mstore\n  keccak256(0x00, 0x20)\n  swap1\n  0x1f\n  add\n  0x20\n  swap1\n  div\n  dup2\n  add\n  swap3\n  dup3\n  tag_10\n  jumpi\n  0x00\n  dup6\n  sstore\n  jump(tag_9)\ntag_10:\n  dup3\n  0x1f\n  lt\n  tag_11\n  jumpi\n  dup1\n  mload\n  not(0xff)\n  and\n  dup4\n  dup1\n  add\n  or\n  dup6\n  sstore\n  jump(tag_9)\ntag_11:\n  dup3\n  dup1\n  add\n  0x01\n  add\n  dup6\n  sstore\n  dup3\n  iszero\n  tag_9\n  jumpi\n  swap2\n  dup3\n  add\ntag_12:\n  dup3\n  dup2\n  gt\n  iszero\n  tag_13\n  jumpi\n  dup3\n  mload\n  dup3\n  sstore\n  swap2\n  0x20\n  add\n  swap2\n  swap1\n  0x01\n  add\n  swap1\n  jump(tag_12)\ntag_13:\ntag_9:\n  pop\n  swap1\n  pop\n  tag_14\n  swap2\n  swap1\n  tag_15\n  jump\t// in\ntag_14:\n  pop\n  swap1\n  jump\t// out\ntag_15:\ntag_16:\n  dup1\n  dup3\n  gt\n  iszero\n  tag_17\n  jumpi\n  0x00\n  dup2\n  0x00\n  swap1\n  sstore\n  pop\n  0x01\n  add\n  jump(tag_16)\ntag_17:\n  pop\n  swap1\n  jump\t// out\n    /* \"#utility.yul\":7:327   */\ntag_8:\n    /* \"#utility.yul\":51:57   */\n  0x00\n    /* \"#utility.yul\":88:89   */\n  0x02\n    /* \"#utility.yul\":82:86   */\n  dup3\n    /* \"#utility.yul\":78:90   */\n  div\n    /* \"#utility.yul\":68:90   */\n  swap1\n  pop\n    /* \"#utility.yul\":135:136   */\n  0x01\n    /* \"#utility.yul\":129:133   */\n  dup3\n    /* \"#utility.yul\":125:137   */\n  and\n    /* \"#utility.yul\":156:174   */\n  dup1\n    /* \"#utility.yul\":146:227   */\n  tag_20\n  jumpi\n    /* \"#utility.yul\":212:216   */\n  0x7f\n    /* \"#utility.yul\":204:210   */\n  dup3\n    /* \"#utility.yul\":200:217   */\n  and\n    /* \"#utility.yul\":190:217   */\n  swap2\n  pop\n    /* \"#utility.yul\":146:227   */\ntag_20:\n    /* \"#utility.yul\":274:276   */\n  0x20\n    /* \"#utility.yul\":266:272   */\n  dup3\n    /* \"#utility.yul\":263:277   */\n  lt\n    /* \"#utility.yul\":243:261   */\n  dup2\n    /* \"#utility.yul\":240:278   */\n  eq\n    /* \"#utility.yul\":237:321   */\n  iszero\n  tag_21\n  jumpi\n    /* \"#utility.yul\":293:311   */\n  tag_22\n  tag_23\n  jump\t// in\ntag_22:\n    /* \"#utility.yul\":237:321   */\ntag_21:\n    /* \"#utility.yul\":58:327   */\n  pop\n    /* \"#utility.yul\":7:327   */\n  swap2\n  swap1\n  pop\n  jump\t// out\n    /* \"#utility.yul\":333:513   */\ntag_23:\n    /* \"#utility.yul\":381:458   */\n  0x4e487b7100000000000000000000000000000000000000000000000000000000\n    /* \"#utility.yul\":378:379   */\n  0x00\n    /* \"#utility.yul\":371:459   */\n  mstore\n    /* \"#utility.yul\":478:482   */\n  0x22\n    /* \"#utility.yul\":475:476   */\n  0x04\n    /* \"#utility.yul\":468:483   */\n  mstore\n    /* \"#utility.yul\":502:506   */\n  0x24\n    /* \"#utility.yul\":499:500   */\n  0x00\n    /* \"#utility.yul\":492:507   */\n  revert\n    /* \"contracts/sol.sol\":56:369  contract Sol {... */\ntag_6:\n  dataSize(sub_0)\n  dup1\n  dataOffset(sub_0)\n  0x00\n  codecopy\n  0x00\n  return\nstop\n\nsub_0: assembly {\n        /* \"contracts/sol.sol\":56:369  contract Sol {... */\n      mstore(0x40, 0x80)\n      callvalue\n      dup1\n      iszero\n      tag_1\n      jumpi\n      0x00\n      dup1\n      revert\n    tag_1:\n      pop\n      jumpi(tag_2, lt(calldatasize, 0x04))\n      shr(0xe0, calldataload(0x00))\n      dup1\n      0x01725a0b\n      eq\n      tag_3\n      jumpi\n      dup1\n      0x365b98b2\n      eq\n      tag_4\n      jumpi\n    tag_2:\n      0x00\n      dup1\n      revert\n        /* \"contracts/sol.sol\":254:367  function demo() public view returns(string memory) {... */\n    tag_3:\n      tag_5\n      tag_6\n      jump\t// in\n    tag_5:\n      mload(0x40)\n      tag_7\n      swap2\n      swap1\n      tag_8\n      jump\t// in\n    tag_7:\n      mload(0x40)\n      dup1\n      swap2\n      sub\n      swap1\n      return\n        /* \"contracts/sol.sol\":114:150  mapping(uint => Person) public users */\n    tag_4:\n      tag_9\n      0x04\n      dup1\n      calldatasize\n      sub\n      dup2\n      add\n      swap1\n      tag_10\n      swap2\n      swap1\n      tag_11\n      jump\t// in\n    tag_10:\n      tag_12\n      jump\t// in\n    tag_9:\n      mload(0x40)\n      tag_13\n      swap3\n      swap2\n      swap1\n      tag_14\n      jump\t// in\n    tag_13:\n      mload(0x40)\n      dup1\n      swap2\n      sub\n      swap1\n      return\n        /* \"contracts/sol.sol\":254:367  function demo() public view returns(string memory) {... */\n    tag_6:\n        /* \"contracts/sol.sol\":290:303  string memory */\n      0x60\n        /* \"contracts/sol.sol\":308:330  Person memory myPerson */\n      0x00\n        /* \"contracts/sol.sol\":333:338  users */\n      dup1\n        /* \"contracts/sol.sol\":333:341  users[0] */\n      0x00\n        /* \"contracts/sol.sol\":339:340  0 */\n      dup1\n        /* \"contracts/sol.sol\":333:341  users[0] */\n      dup2\n      mstore\n      0x20\n      add\n      swap1\n      dup2\n      mstore\n      0x20\n      add\n      0x00\n      keccak256\n        /* \"contracts/sol.sol\":308:341  Person memory myPerson = users[0] */\n      mload(0x40)\n      dup1\n      0x40\n      add\n      0x40\n      mstore\n      swap1\n      dup2\n      0x00\n      dup3\n      add\n      sload\n      dup2\n      mstore\n      0x20\n      add\n      0x01\n      dup3\n      add\n      dup1\n      sload\n      tag_16\n      swap1\n      tag_17\n      jump\t// in\n    tag_16:\n      dup1\n      0x1f\n      add\n      0x20\n      dup1\n      swap2\n      div\n      mul\n      0x20\n      add\n      mload(0x40)\n      swap1\n      dup2\n      add\n      0x40\n      mstore\n      dup1\n      swap3\n      swap2\n      swap1\n      dup2\n      dup2\n      mstore\n      0x20\n      add\n      dup3\n      dup1\n      sload\n      tag_18\n      swap1\n      tag_17\n      jump\t// in\n    tag_18:\n      dup1\n      iszero\n      tag_19\n      jumpi\n      dup1\n      0x1f\n      lt\n      tag_20\n      jumpi\n      0x0100\n      dup1\n      dup4\n      sload\n      div\n      mul\n      dup4\n      mstore\n      swap2\n      0x20\n      add\n      swap2\n      jump(tag_19)\n    tag_20:\n      dup3\n      add\n      swap2\n      swap1\n      0x00\n      mstore\n      keccak256(0x00, 0x20)\n      swap1\n    tag_21:\n      dup2\n      sload\n      dup2\n      mstore\n      swap1\n      0x01\n      add\n      swap1\n      0x20\n      add\n      dup1\n      dup4\n      gt\n      tag_21\n      jumpi\n      dup3\n      swap1\n      sub\n      0x1f\n      and\n      dup3\n      add\n      swap2\n    tag_19:\n      pop\n      pop\n      pop\n      pop\n      pop\n      dup2\n      mstore\n      pop\n      pop\n      swap1\n      pop\n        /* \"contracts/sol.sol\":351:359  myPerson */\n      dup1\n        /* \"contracts/sol.sol\":351:364  myPerson.name */\n      0x20\n      add\n      mload\n        /* \"contracts/sol.sol\":344:364  return myPerson.name */\n      swap2\n      pop\n      pop\n        /* \"contracts/sol.sol\":254:367  function demo() public view returns(string memory) {... */\n      swap1\n      jump\t// out\n        /* \"contracts/sol.sol\":114:150  mapping(uint => Person) public users */\n    tag_12:\n      mstore(0x20, 0x00)\n      dup1\n      0x00\n      mstore\n      keccak256(0x00, 0x40)\n      0x00\n      swap2\n      pop\n      swap1\n      pop\n      dup1\n      0x00\n      add\n      sload\n      swap1\n      dup1\n      0x01\n      add\n      dup1\n      sload\n      tag_22\n      swap1\n      tag_17\n      jump\t// in\n    tag_22:\n      dup1\n      0x1f\n      add\n      0x20\n      dup1\n      swap2\n      div\n      mul\n      0x20\n      add\n      mload(0x40)\n      swap1\n      dup2\n      add\n      0x40\n      mstore\n      dup1\n      swap3\n      swap2\n      swap1\n      dup2\n      dup2\n      mstore\n      0x20\n      add\n      dup3\n      dup1\n      sload\n      tag_23\n      swap1\n      tag_17\n      jump\t// in\n    tag_23:\n      dup1\n      iszero\n      tag_24\n      jumpi\n      dup1\n      0x1f\n      lt\n      tag_25\n      jumpi\n      0x0100\n      dup1\n      dup4\n      sload\n      div\n      mul\n      dup4\n      mstore\n      swap2\n      0x20\n      add\n      swap2\n      jump(tag_24)\n    tag_25:\n      dup3\n      add\n      swap2\n      swap1\n      0x00\n      mstore\n      keccak256(0x00, 0x20)\n      swap1\n    tag_26:\n      dup2\n      sload\n      dup2\n      mstore\n      swap1\n      0x01\n      add\n      swap1\n      0x20\n      add\n      dup1\n      dup4\n      gt\n      tag_26\n      jumpi\n      dup3\n      swap1\n      sub\n      0x1f\n      and\n      dup3\n      add\n      swap2\n    tag_24:\n      pop\n      pop\n      pop\n      pop\n      pop\n      swap1\n      pop\n      dup3\n      jump\t// out\n        /* \"#utility.yul\":7:146   */\n    tag_28:\n        /* \"#utility.yul\":53:58   */\n      0x00\n        /* \"#utility.yul\":91:97   */\n      dup2\n        /* \"#utility.yul\":78:98   */\n      calldataload\n        /* \"#utility.yul\":69:98   */\n      swap1\n      pop\n        /* \"#utility.yul\":107:140   */\n      tag_30\n        /* \"#utility.yul\":134:139   */\n      dup2\n        /* \"#utility.yul\":107:140   */\n      tag_31\n      jump\t// in\n    tag_30:\n        /* \"#utility.yul\":7:146   */\n      swap3\n      swap2\n      pop\n      pop\n      jump\t// out\n        /* \"#utility.yul\":152:481   */\n    tag_11:\n        /* \"#utility.yul\":211:217   */\n      0x00\n        /* \"#utility.yul\":260:262   */\n      0x20\n        /* \"#utility.yul\":248:257   */\n      dup3\n        /* \"#utility.yul\":239:246   */\n      dup5\n        /* \"#utility.yul\":235:258   */\n      sub\n        /* \"#utility.yul\":231:263   */\n      slt\n        /* \"#utility.yul\":228:347   */\n      iszero\n      tag_33\n      jumpi\n        /* \"#utility.yul\":266:345   */\n      tag_34\n      tag_35\n      jump\t// in\n    tag_34:\n        /* \"#utility.yul\":228:347   */\n    tag_33:\n        /* \"#utility.yul\":386:387   */\n      0x00\n        /* \"#utility.yul\":411:464   */\n      tag_36\n        /* \"#utility.yul\":456:463   */\n      dup5\n        /* \"#utility.yul\":447:453   */\n      dup3\n        /* \"#utility.yul\":436:445   */\n      dup6\n        /* \"#utility.yul\":432:454   */\n      add\n        /* \"#utility.yul\":411:464   */\n      tag_28\n      jump\t// in\n    tag_36:\n        /* \"#utility.yul\":401:464   */\n      swap2\n      pop\n        /* \"#utility.yul\":357:474   */\n      pop\n        /* \"#utility.yul\":152:481   */\n      swap3\n      swap2\n      pop\n      pop\n      jump\t// out\n        /* \"#utility.yul\":487:851   */\n    tag_37:\n        /* \"#utility.yul\":575:578   */\n      0x00\n        /* \"#utility.yul\":603:642   */\n      tag_39\n        /* \"#utility.yul\":636:641   */\n      dup3\n        /* \"#utility.yul\":603:642   */\n      tag_40\n      jump\t// in\n    tag_39:\n        /* \"#utility.yul\":658:729   */\n      tag_41\n        /* \"#utility.yul\":722:728   */\n      dup2\n        /* \"#utility.yul\":717:720   */\n      dup6\n        /* \"#utility.yul\":658:729   */\n      tag_42\n      jump\t// in\n    tag_41:\n        /* \"#utility.yul\":651:729   */\n      swap4\n      pop\n        /* \"#utility.yul\":738:790   */\n      tag_43\n        /* \"#utility.yul\":783:789   */\n      dup2\n        /* \"#utility.yul\":778:781   */\n      dup6\n        /* \"#utility.yul\":771:775   */\n      0x20\n        /* \"#utility.yul\":764:769   */\n      dup7\n        /* \"#utility.yul\":760:776   */\n      add\n        /* \"#utility.yul\":738:790   */\n      tag_44\n      jump\t// in\n    tag_43:\n        /* \"#utility.yul\":815:844   */\n      tag_45\n        /* \"#utility.yul\":837:843   */\n      dup2\n        /* \"#utility.yul\":815:844   */\n      tag_46\n      jump\t// in\n    tag_45:\n        /* \"#utility.yul\":810:813   */\n      dup5\n        /* \"#utility.yul\":806:845   */\n      add\n        /* \"#utility.yul\":799:845   */\n      swap2\n      pop\n        /* \"#utility.yul\":579:851   */\n      pop\n        /* \"#utility.yul\":487:851   */\n      swap3\n      swap2\n      pop\n      pop\n      jump\t// out\n        /* \"#utility.yul\":857:975   */\n    tag_47:\n        /* \"#utility.yul\":944:968   */\n      tag_49\n        /* \"#utility.yul\":962:967   */\n      dup2\n        /* \"#utility.yul\":944:968   */\n      tag_50\n      jump\t// in\n    tag_49:\n        /* \"#utility.yul\":939:942   */\n      dup3\n        /* \"#utility.yul\":932:969   */\n      mstore\n        /* \"#utility.yul\":857:975   */\n      pop\n      pop\n      jump\t// out\n        /* \"#utility.yul\":981:1294   */\n    tag_8:\n        /* \"#utility.yul\":1094:1098   */\n      0x00\n        /* \"#utility.yul\":1132:1134   */\n      0x20\n        /* \"#utility.yul\":1121:1130   */\n      dup3\n        /* \"#utility.yul\":1117:1135   */\n      add\n        /* \"#utility.yul\":1109:1135   */\n      swap1\n      pop\n        /* \"#utility.yul\":1181:1190   */\n      dup2\n        /* \"#utility.yul\":1175:1179   */\n      dup2\n        /* \"#utility.yul\":1171:1191   */\n      sub\n        /* \"#utility.yul\":1167:1168   */\n      0x00\n        /* \"#utility.yul\":1156:1165   */\n      dup4\n        /* \"#utility.yul\":1152:1169   */\n      add\n        /* \"#utility.yul\":1145:1192   */\n      mstore\n        /* \"#utility.yul\":1209:1287   */\n      tag_52\n        /* \"#utility.yul\":1282:1286   */\n      dup2\n        /* \"#utility.yul\":1273:1279   */\n      dup5\n        /* \"#utility.yul\":1209:1287   */\n      tag_37\n      jump\t// in\n    tag_52:\n        /* \"#utility.yul\":1201:1287   */\n      swap1\n      pop\n        /* \"#utility.yul\":981:1294   */\n      swap3\n      swap2\n      pop\n      pop\n      jump\t// out\n        /* \"#utility.yul\":1300:1723   */\n    tag_14:\n        /* \"#utility.yul\":1441:1445   */\n      0x00\n        /* \"#utility.yul\":1479:1481   */\n      0x40\n        /* \"#utility.yul\":1468:1477   */\n      dup3\n        /* \"#utility.yul\":1464:1482   */\n      add\n        /* \"#utility.yul\":1456:1482   */\n      swap1\n      pop\n        /* \"#utility.yul\":1492:1563   */\n      tag_54\n        /* \"#utility.yul\":1560:1561   */\n      0x00\n        /* \"#utility.yul\":1549:1558   */\n      dup4\n        /* \"#utility.yul\":1545:1562   */\n      add\n        /* \"#utility.yul\":1536:1542   */\n      dup6\n        /* \"#utility.yul\":1492:1563   */\n      tag_47\n      jump\t// in\n    tag_54:\n        /* \"#utility.yul\":1610:1619   */\n      dup2\n        /* \"#utility.yul\":1604:1608   */\n      dup2\n        /* \"#utility.yul\":1600:1620   */\n      sub\n        /* \"#utility.yul\":1595:1597   */\n      0x20\n        /* \"#utility.yul\":1584:1593   */\n      dup4\n        /* \"#utility.yul\":1580:1598   */\n      add\n        /* \"#utility.yul\":1573:1621   */\n      mstore\n        /* \"#utility.yul\":1638:1716   */\n      tag_55\n        /* \"#utility.yul\":1711:1715   */\n      dup2\n        /* \"#utility.yul\":1702:1708   */\n      dup5\n        /* \"#utility.yul\":1638:1716   */\n      tag_37\n      jump\t// in\n    tag_55:\n        /* \"#utility.yul\":1630:1716   */\n      swap1\n      pop\n        /* \"#utility.yul\":1300:1723   */\n      swap4\n      swap3\n      pop\n      pop\n      pop\n      jump\t// out\n        /* \"#utility.yul\":1810:1909   */\n    tag_40:\n        /* \"#utility.yul\":1862:1868   */\n      0x00\n        /* \"#utility.yul\":1896:1901   */\n      dup2\n        /* \"#utility.yul\":1890:1902   */\n      mload\n        /* \"#utility.yul\":1880:1902   */\n      swap1\n      pop\n        /* \"#utility.yul\":1810:1909   */\n      swap2\n      swap1\n      pop\n      jump\t// out\n        /* \"#utility.yul\":1915:2084   */\n    tag_42:\n        /* \"#utility.yul\":1999:2010   */\n      0x00\n        /* \"#utility.yul\":2033:2039   */\n      dup3\n        /* \"#utility.yul\":2028:2031   */\n      dup3\n        /* \"#utility.yul\":2021:2040   */\n      mstore\n        /* \"#utility.yul\":2073:2077   */\n      0x20\n        /* \"#utility.yul\":2068:2071   */\n      dup3\n        /* \"#utility.yul\":2064:2078   */\n      add\n        /* \"#utility.yul\":2049:2078   */\n      swap1\n      pop\n        /* \"#utility.yul\":1915:2084   */\n      swap3\n      swap2\n      pop\n      pop\n      jump\t// out\n        /* \"#utility.yul\":2090:2167   */\n    tag_50:\n        /* \"#utility.yul\":2127:2134   */\n      0x00\n        /* \"#utility.yul\":2156:2161   */\n      dup2\n        /* \"#utility.yul\":2145:2161   */\n      swap1\n      pop\n        /* \"#utility.yul\":2090:2167   */\n      swap2\n      swap1\n      pop\n      jump\t// out\n        /* \"#utility.yul\":2173:2480   */\n    tag_44:\n        /* \"#utility.yul\":2241:2242   */\n      0x00\n        /* \"#utility.yul\":2251:2364   */\n    tag_62:\n        /* \"#utility.yul\":2265:2271   */\n      dup4\n        /* \"#utility.yul\":2262:2263   */\n      dup2\n        /* \"#utility.yul\":2259:2272   */\n      lt\n        /* \"#utility.yul\":2251:2364   */\n      iszero\n      tag_64\n      jumpi\n        /* \"#utility.yul\":2350:2351   */\n      dup1\n        /* \"#utility.yul\":2345:2348   */\n      dup3\n        /* \"#utility.yul\":2341:2352   */\n      add\n        /* \"#utility.yul\":2335:2353   */\n      mload\n        /* \"#utility.yul\":2331:2332   */\n      dup2\n        /* \"#utility.yul\":2326:2329   */\n      dup5\n        /* \"#utility.yul\":2322:2333   */\n      add\n        /* \"#utility.yul\":2315:2354   */\n      mstore\n        /* \"#utility.yul\":2287:2289   */\n      0x20\n        /* \"#utility.yul\":2284:2285   */\n      dup2\n        /* \"#utility.yul\":2280:2290   */\n      add\n        /* \"#utility.yul\":2275:2290   */\n      swap1\n      pop\n        /* \"#utility.yul\":2251:2364   */\n      jump(tag_62)\n    tag_64:\n        /* \"#utility.yul\":2382:2388   */\n      dup4\n        /* \"#utility.yul\":2379:2380   */\n      dup2\n        /* \"#utility.yul\":2376:2389   */\n      gt\n        /* \"#utility.yul\":2373:2474   */\n      iszero\n      tag_65\n      jumpi\n        /* \"#utility.yul\":2462:2463   */\n      0x00\n        /* \"#utility.yul\":2453:2459   */\n      dup5\n        /* \"#utility.yul\":2448:2451   */\n      dup5\n        /* \"#utility.yul\":2444:2460   */\n      add\n        /* \"#utility.yul\":2437:2464   */\n      mstore\n        /* \"#utility.yul\":2373:2474   */\n    tag_65:\n        /* \"#utility.yul\":2222:2480   */\n      pop\n        /* \"#utility.yul\":2173:2480   */\n      pop\n      pop\n      pop\n      jump\t// out\n        /* \"#utility.yul\":2486:2806   */\n    tag_17:\n        /* \"#utility.yul\":2530:2536   */\n      0x00\n        /* \"#utility.yul\":2567:2568   */\n      0x02\n        /* \"#utility.yul\":2561:2565   */\n      dup3\n        /* \"#utility.yul\":2557:2569   */\n      div\n        /* \"#utility.yul\":2547:2569   */\n      swap1\n      pop\n        /* \"#utility.yul\":2614:2615   */\n      0x01\n        /* \"#utility.yul\":2608:2612   */\n      dup3\n        /* \"#utility.yul\":2604:2616   */\n      and\n        /* \"#utility.yul\":2635:2653   */\n      dup1\n        /* \"#utility.yul\":2625:2706   */\n      tag_67\n      jumpi\n        /* \"#utility.yul\":2691:2695   */\n      0x7f\n        /* \"#utility.yul\":2683:2689   */\n      dup3\n        /* \"#utility.yul\":2679:2696   */\n      and\n        /* \"#utility.yul\":2669:2696   */\n      swap2\n      pop\n        /* \"#utility.yul\":2625:2706   */\n    tag_67:\n        /* \"#utility.yul\":2753:2755   */\n      0x20\n        /* \"#utility.yul\":2745:2751   */\n      dup3\n        /* \"#utility.yul\":2742:2756   */\n      lt\n        /* \"#utility.yul\":2722:2740   */\n      dup2\n        /* \"#utility.yul\":2719:2757   */\n      eq\n        /* \"#utility.yul\":2716:2800   */\n      iszero\n      tag_68\n      jumpi\n        /* \"#utility.yul\":2772:2790   */\n      tag_69\n      tag_70\n      jump\t// in\n    tag_69:\n        /* \"#utility.yul\":2716:2800   */\n    tag_68:\n        /* \"#utility.yul\":2537:2806   */\n      pop\n        /* \"#utility.yul\":2486:2806   */\n      swap2\n      swap1\n      pop\n      jump\t// out\n        /* \"#utility.yul\":2812:2992   */\n    tag_70:\n        /* \"#utility.yul\":2860:2937   */\n      0x4e487b7100000000000000000000000000000000000000000000000000000000\n        /* \"#utility.yul\":2857:2858   */\n      0x00\n        /* \"#utility.yul\":2850:2938   */\n      mstore\n        /* \"#utility.yul\":2957:2961   */\n      0x22\n        /* \"#utility.yul\":2954:2955   */\n      0x04\n        /* \"#utility.yul\":2947:2962   */\n      mstore\n        /* \"#utility.yul\":2981:2985   */\n      0x24\n        /* \"#utility.yul\":2978:2979   */\n      0x00\n        /* \"#utility.yul\":2971:2986   */\n      revert\n        /* \"#utility.yul\":3121:3238   */\n    tag_35:\n        /* \"#utility.yul\":3230:3231   */\n      0x00\n        /* \"#utility.yul\":3227:3228   */\n      dup1\n        /* \"#utility.yul\":3220:3232   */\n      revert\n        /* \"#utility.yul\":3244:3346   */\n    tag_46:\n        /* \"#utility.yul\":3285:3291   */\n      0x00\n        /* \"#utility.yul\":3336:3338   */\n      0x1f\n        /* \"#utility.yul\":3332:3339   */\n      not\n        /* \"#utility.yul\":3327:3329   */\n      0x1f\n        /* \"#utility.yul\":3320:3325   */\n      dup4\n        /* \"#utility.yul\":3316:3330   */\n      add\n        /* \"#utility.yul\":3312:3340   */\n      and\n        /* \"#utility.yul\":3302:3340   */\n      swap1\n      pop\n        /* \"#utility.yul\":3244:3346   */\n      swap2\n      swap1\n      pop\n      jump\t// out\n        /* \"#utility.yul\":3352:3474   */\n    tag_31:\n        /* \"#utility.yul\":3425:3449   */\n      tag_77\n        /* \"#utility.yul\":3443:3448   */\n      dup2\n        /* \"#utility.yul\":3425:3449   */\n      tag_50\n      jump\t// in\n    tag_77:\n        /* \"#utility.yul\":3418:3423   */\n      dup2\n        /* \"#utility.yul\":3415:3450   */\n      eq\n        /* \"#utility.yul\":3405:3468   */\n      tag_78\n      jumpi\n        /* \"#utility.yul\":3464:3465   */\n      0x00\n        /* \"#utility.yul\":3461:3462   */\n      dup1\n        /* \"#utility.yul\":3454:3466   */\n      revert\n        /* \"#utility.yul\":3405:3468   */\n    tag_78:\n        /* \"#utility.yul\":3352:3474   */\n      pop\n      jump\t// out\n\n    auxdata: 0xa2646970667358221220d9026e23209f8d65093455680aa285d0e6793189e269c2cf45c6d45f103e342564736f6c63430008070033\n}\n",
				"bytecode": {
					"linkReferences": {},
					"object": "608060405234801561001057600080fd5b5060006040518060400160405280601e81526020016040518060400160405280600481526020017f4a6f686e000000000000000000000000000000000000000000000000000000008152508152509050806000808081526020019081526020016000206000820151816000015560208201518160010190805190602001906100999291906100a3565b50905050506101a7565b8280546100af90610146565b90600052602060002090601f0160209004810192826100d15760008555610118565b82601f106100ea57805160ff1916838001178555610118565b82800160010185558215610118579182015b828111156101175782518255916020019190600101906100fc565b5b5090506101259190610129565b5090565b5b8082111561014257600081600090555060010161012a565b5090565b6000600282049050600182168061015e57607f821691505b6020821081141561017257610171610178565b5b50919050565b7f4e487b7100000000000000000000000000000000000000000000000000000000600052602260045260246000fd5b6103f9806101b66000396000f3fe608060405234801561001057600080fd5b50600436106100365760003560e01c806301725a0b1461003b578063365b98b214610059575b600080fd5b61004361008a565b604051610050919061028a565b60405180910390f35b610073600480360381019061006e9190610215565b610154565b6040516100819291906102ac565b60405180910390f35b60606000806000808152602001908152602001600020604051806040016040529081600082015481526020016001820180546100c590610335565b80601f01602080910402602001604051908101604052809291908181526020018280546100f190610335565b801561013e5780601f106101135761010080835404028352916020019161013e565b820191906000526020600020905b81548152906001019060200180831161012157829003601f168201915b5050505050815250509050806020015191505090565b600060205280600052604060002060009150905080600001549080600101805461017d90610335565b80601f01602080910402602001604051908101604052809291908181526020018280546101a990610335565b80156101f65780601f106101cb576101008083540402835291602001916101f6565b820191906000526020600020905b8154815290600101906020018083116101d957829003601f168201915b5050505050905082565b60008135905061020f816103ac565b92915050565b60006020828403121561022b5761022a610396565b5b600061023984828501610200565b91505092915050565b600061024d826102dc565b61025781856102e7565b9350610267818560208601610302565b6102708161039b565b840191505092915050565b610284816102f8565b82525050565b600060208201905081810360008301526102a48184610242565b905092915050565b60006040820190506102c1600083018561027b565b81810360208301526102d38184610242565b90509392505050565b600081519050919050565b600082825260208201905092915050565b6000819050919050565b60005b83811015610320578082015181840152602081019050610305565b8381111561032f576000848401525b50505050565b6000600282049050600182168061034d57607f821691505b6020821081141561036157610360610367565b5b50919050565b7f4e487b7100000000000000000000000000000000000000000000000000000000600052602260045260246000fd5b600080fd5b6000601f19601f8301169050919050565b6103b5816102f8565b81146103c057600080fd5b5056fea2646970667358221220d9026e23209f8d65093455680aa285d0e6793189e269c2cf45c6d45f103e342564736f6c63430008070033",
					"opcodes": "PUSH1 0x80 PUSH1 0x40 MSTORE CALLVALUE DUP1 ISZERO PUSH2 0x10 JUMPI PUSH1 0x0 DUP1 REVERT JUMPDEST POP PUSH1 0x0 PUSH1 0x40 MLOAD DUP1 PUSH1 0x40 ADD PUSH1 0x40 MSTORE DUP1 PUSH1 0x1E DUP2 MSTORE PUSH1 0x20 ADD PUSH1 0x40 MLOAD DUP1 PUSH1 0x40 ADD PUSH1 0x40 MSTORE DUP1 PUSH1 0x4 DUP2 MSTORE PUSH1 0x20 ADD PUSH32 0x4A6F686E00000000000000000000000000000000000000000000000000000000 DUP2 MSTORE POP DUP2 MSTORE POP SWAP1 POP DUP1 PUSH1 0x0 DUP1 DUP1 DUP2 MSTORE PUSH1 0x20 ADD SWAP1 DUP2 MSTORE PUSH1 0x20 ADD PUSH1 0x0 KECCAK256 PUSH1 0x0 DUP3 ADD MLOAD DUP2 PUSH1 0x0 ADD SSTORE PUSH1 0x20 DUP3 ADD MLOAD DUP2 PUSH1 0x1 ADD SWAP1 DUP1 MLOAD SWAP1 PUSH1 0x20 ADD SWAP1 PUSH2 0x99 SWAP3 SWAP2 SWAP1 PUSH2 0xA3 JUMP JUMPDEST POP SWAP1 POP POP POP PUSH2 0x1A7 JUMP JUMPDEST DUP3 DUP1 SLOAD PUSH2 0xAF SWAP1 PUSH2 0x146 JUMP JUMPDEST SWAP1 PUSH1 0x0 MSTORE PUSH1 0x20 PUSH1 0x0 KECCAK256 SWAP1 PUSH1 0x1F ADD PUSH1 0x20 SWAP1 DIV DUP2 ADD SWAP3 DUP3 PUSH2 0xD1 JUMPI PUSH1 0x0 DUP6 SSTORE PUSH2 0x118 JUMP JUMPDEST DUP3 PUSH1 0x1F LT PUSH2 0xEA JUMPI DUP1 MLOAD PUSH1 0xFF NOT AND DUP4 DUP1 ADD OR DUP6 SSTORE PUSH2 0x118 JUMP JUMPDEST DUP3 DUP1 ADD PUSH1 0x1 ADD DUP6 SSTORE DUP3 ISZERO PUSH2 0x118 JUMPI SWAP2 DUP3 ADD JUMPDEST DUP3 DUP2 GT ISZERO PUSH2 0x117 JUMPI DUP3 MLOAD DUP3 SSTORE SWAP2 PUSH1 0x20 ADD SWAP2 SWAP1 PUSH1 0x1 ADD SWAP1 PUSH2 0xFC JUMP JUMPDEST JUMPDEST POP SWAP1 POP PUSH2 0x125 SWAP2 SWAP1 PUSH2 0x129 JUMP JUMPDEST POP SWAP1 JUMP JUMPDEST JUMPDEST DUP1 DUP3 GT ISZERO PUSH2 0x142 JUMPI PUSH1 0x0 DUP2 PUSH1 0x0 SWAP1 SSTORE POP PUSH1 0x1 ADD PUSH2 0x12A JUMP JUMPDEST POP SWAP1 JUMP JUMPDEST PUSH1 0x0 PUSH1 0x2 DUP3 DIV SWAP1 POP PUSH1 0x1 DUP3 AND DUP1 PUSH2 0x15E JUMPI PUSH1 0x7F DUP3 AND SWAP2 POP JUMPDEST PUSH1 0x20 DUP3 LT DUP2 EQ ISZERO PUSH2 0x172 JUMPI PUSH2 0x171 PUSH2 0x178 JUMP JUMPDEST JUMPDEST POP SWAP2 SWAP1 POP JUMP JUMPDEST PUSH32 0x4E487B7100000000000000000000000000000000000000000000000000000000 PUSH1 0x0 MSTORE PUSH1 0x22 PUSH1 0x4 MSTORE PUSH1 0x24 PUSH1 0x0 REVERT JUMPDEST PUSH2 0x3F9 DUP1 PUSH2 0x1B6 PUSH1 0x0 CODECOPY PUSH1 0x0 RETURN INVALID PUSH1 0x80 PUSH1 0x40 MSTORE CALLVALUE DUP1 ISZERO PUSH2 0x10 JUMPI PUSH1 0x0 DUP1 REVERT JUMPDEST POP PUSH1 0x4 CALLDATASIZE LT PUSH2 0x36 JUMPI PUSH1 0x0 CALLDATALOAD PUSH1 0xE0 SHR DUP1 PUSH4 0x1725A0B EQ PUSH2 0x3B JUMPI DUP1 PUSH4 0x365B98B2 EQ PUSH2 0x59 JUMPI JUMPDEST PUSH1 0x0 DUP1 REVERT JUMPDEST PUSH2 0x43 PUSH2 0x8A JUMP JUMPDEST PUSH1 0x40 MLOAD PUSH2 0x50 SWAP2 SWAP1 PUSH2 0x28A JUMP JUMPDEST PUSH1 0x40 MLOAD DUP1 SWAP2 SUB SWAP1 RETURN JUMPDEST PUSH2 0x73 PUSH1 0x4 DUP1 CALLDATASIZE SUB DUP2 ADD SWAP1 PUSH2 0x6E SWAP2 SWAP1 PUSH2 0x215 JUMP JUMPDEST PUSH2 0x154 JUMP JUMPDEST PUSH1 0x40 MLOAD PUSH2 0x81 SWAP3 SWAP2 SWAP1 PUSH2 0x2AC JUMP JUMPDEST PUSH1 0x40 MLOAD DUP1 SWAP2 SUB SWAP1 RETURN JUMPDEST PUSH1 0x60 PUSH1 0x0 DUP1 PUSH1 0x0 DUP1 DUP2 MSTORE PUSH1 0x20 ADD SWAP1 DUP2 MSTORE PUSH1 0x20 ADD PUSH1 0x0 KECCAK256 PUSH1 0x40 MLOAD DUP1 PUSH1 0x40 ADD PUSH1 0x40 MSTORE SWAP1 DUP2 PUSH1 0x0 DUP3 ADD SLOAD DUP2 MSTORE PUSH1 0x20 ADD PUSH1 0x1 DUP3 ADD DUP1 SLOAD PUSH2 0xC5 SWAP1 PUSH2 0x335 JUMP JUMPDEST DUP1 PUSH1 0x1F ADD PUSH1 0x20 DUP1 SWAP2 DIV MUL PUSH1 0x20 ADD PUSH1 0x40 MLOAD SWAP1 DUP2 ADD PUSH1 0x40 MSTORE DUP1 SWAP3 SWAP2 SWAP1 DUP2 DUP2 MSTORE PUSH1 0x20 ADD DUP3 DUP1 SLOAD PUSH2 0xF1 SWAP1 PUSH2 0x335 JUMP JUMPDEST DUP1 ISZERO PUSH2 0x13E JUMPI DUP1 PUSH1 0x1F LT PUSH2 0x113 JUMPI PUSH2 0x100 DUP1 DUP4 SLOAD DIV MUL DUP4 MSTORE SWAP2 PUSH1 0x20 ADD SWAP2 PUSH2 0x13E JUMP JUMPDEST DUP3 ADD SWAP2 SWAP1 PUSH1 0x0 MSTORE PUSH1 0x20 PUSH1 0x0 KECCAK256 SWAP1 JUMPDEST DUP2 SLOAD DUP2 MSTORE SWAP1 PUSH1 0x1 ADD SWAP1 PUSH1 0x20 ADD DUP1 DUP4 GT PUSH2 0x121 JUMPI DUP3 SWAP1 SUB PUSH1 0x1F AND DUP3 ADD SWAP2 JUMPDEST POP POP POP POP POP DUP2 MSTORE POP POP SWAP1 POP DUP1 PUSH1 0x20 ADD MLOAD SWAP2 POP POP SWAP1 JUMP JUMPDEST PUSH1 0x0 PUSH1 0x20 MSTORE DUP1 PUSH1 0x0 MSTORE PUSH1 0x40 PUSH1 0x0 KECCAK256 PUSH1 0x0 SWAP2 POP SWAP1 POP DUP1 PUSH1 0x0 ADD SLOAD SWAP1 DUP1 PUSH1 0x1 ADD DUP1 SLOAD PUSH2 0x17D SWAP1 PUSH2 0x335 JUMP JUMPDEST DUP1 PUSH1 0x1F ADD PUSH1 0x20 DUP1 SWAP2 DIV MUL PUSH1 0x20 ADD PUSH1 0x40 MLOAD SWAP1 DUP2 ADD PUSH1 0x40 MSTORE DUP1 SWAP3 SWAP2 SWAP1 DUP2 DUP2 MSTORE PUSH1 0x20 ADD DUP3 DUP1 SLOAD PUSH2 0x1A9 SWAP1 PUSH2 0x335 JUMP JUMPDEST DUP1 ISZERO PUSH2 0x1F6 JUMPI DUP1 PUSH1 0x1F LT PUSH2 0x1CB JUMPI PUSH2 0x100 DUP1 DUP4 SLOAD DIV MUL DUP4 MSTORE SWAP2 PUSH1 0x20 ADD SWAP2 PUSH2 0x1F6 JUMP JUMPDEST DUP3 ADD SWAP2 SWAP1 PUSH1 0x0 MSTORE PUSH1 0x20 PUSH1 0x0 KECCAK256 SWAP1 JUMPDEST DUP2 SLOAD DUP2 MSTORE SWAP1 PUSH1 0x1 ADD SWAP1 PUSH1 0x20 ADD DUP1 DUP4 GT PUSH2 0x1D9 JUMPI DUP3 SWAP1 SUB PUSH1 0x1F AND DUP3 ADD SWAP2 JUMPDEST POP POP POP POP POP SWAP1 POP DUP3 JUMP JUMPDEST PUSH1 0x0 DUP2 CALLDATALOAD SWAP1 POP PUSH2 0x20F DUP2 PUSH2 0x3AC JUMP JUMPDEST SWAP3 SWAP2 POP POP JUMP JUMPDEST PUSH1 0x0 PUSH1 0x20 DUP3 DUP5 SUB SLT ISZERO PUSH2 0x22B JUMPI PUSH2 0x22A PUSH2 0x396 JUMP JUMPDEST JUMPDEST PUSH1 0x0 PUSH2 0x239 DUP5 DUP3 DUP6 ADD PUSH2 0x200 JUMP JUMPDEST SWAP2 POP POP SWAP3 SWAP2 POP POP JUMP JUMPDEST PUSH1 0x0 PUSH2 0x24D DUP3 PUSH2 0x2DC JUMP JUMPDEST PUSH2 0x257 DUP2 DUP6 PUSH2 0x2E7 JUMP JUMPDEST SWAP4 POP PUSH2 0x267 DUP2 DUP6 PUSH1 0x20 DUP7 ADD PUSH2 0x302 JUMP JUMPDEST PUSH2 0x270 DUP2 PUSH2 0x39B JUMP JUMPDEST DUP5 ADD SWAP2 POP POP SWAP3 SWAP2 POP POP JUMP JUMPDEST PUSH2 0x284 DUP2 PUSH2 0x2F8 JUMP JUMPDEST DUP3 MSTORE POP POP JUMP JUMPDEST PUSH1 0x0 PUSH1 0x20 DUP3 ADD SWAP1 POP DUP2 DUP2 SUB PUSH1 0x0 DUP4 ADD MSTORE PUSH2 0x2A4 DUP2 DUP5 PUSH2 0x242 JUMP JUMPDEST SWAP1 POP SWAP3 SWAP2 POP POP JUMP JUMPDEST PUSH1 0x0 PUSH1 0x40 DUP3 ADD SWAP1 POP PUSH2 0x2C1 PUSH1 0x0 DUP4 ADD DUP6 PUSH2 0x27B JUMP JUMPDEST DUP2 DUP2 SUB PUSH1 0x20 DUP4 ADD MSTORE PUSH2 0x2D3 DUP2 DUP5 PUSH2 0x242 JUMP JUMPDEST SWAP1 POP SWAP4 SWAP3 POP POP POP JUMP JUMPDEST PUSH1 0x0 DUP2 MLOAD SWAP1 POP SWAP2 SWAP1 POP JUMP JUMPDEST PUSH1 0x0 DUP3 DUP3 MSTORE PUSH1 0x20 DUP3 ADD SWAP1 POP SWAP3 SWAP2 POP POP JUMP JUMPDEST PUSH1 0x0 DUP2 SWAP1 POP SWAP2 SWAP1 POP JUMP JUMPDEST PUSH1 0x0 JUMPDEST DUP4 DUP2 LT ISZERO PUSH2 0x320 JUMPI DUP1 DUP3 ADD MLOAD DUP2 DUP5 ADD MSTORE PUSH1 0x20 DUP2 ADD SWAP1 POP PUSH2 0x305 JUMP JUMPDEST DUP4 DUP2 GT ISZERO PUSH2 0x32F JUMPI PUSH1 0x0 DUP5 DUP5 ADD MSTORE JUMPDEST POP POP POP POP JUMP JUMPDEST PUSH1 0x0 PUSH1 0x2 DUP3 DIV SWAP1 POP PUSH1 0x1 DUP3 AND DUP1 PUSH2 0x34D JUMPI PUSH1 0x7F DUP3 AND SWAP2 POP JUMPDEST PUSH1 0x20 DUP3 LT DUP2 EQ ISZERO PUSH2 0x361 JUMPI PUSH2 0x360 PUSH2 0x367 JUMP JUMPDEST JUMPDEST POP SWAP2 SWAP1 POP JUMP JUMPDEST PUSH32 0x4E487B7100000000000000000000000000000000000000000000000000000000 PUSH1 0x0 MSTORE PUSH1 0x22 PUSH1 0x4 MSTORE PUSH1 0x24 PUSH1 0x0 REVERT JUMPDEST PUSH1 0x0 DUP1 REVERT JUMPDEST PUSH1 0x0 PUSH1 0x1F NOT PUSH1 0x1F DUP4 ADD AND SWAP1 POP SWAP2 SWAP1 POP JUMP JUMPDEST PUSH2 0x3B5 DUP2 PUSH2 0x2F8 JUMP JUMPDEST DUP2 EQ PUSH2 0x3C0 JUMPI PUSH1 0x0 DUP1 REVERT JUMPDEST POP JUMP INVALID LOG2 PUSH5 0x6970667358 0x22 SLT KECCAK256 0xD9 MUL PUSH15 0x23209F8D65093455680AA285D0E679 BALANCE DUP10 0xE2 PUSH10 0xC2CF45C6D45F103E3425 PUSH5 0x736F6C6343 STOP ADDMOD SMOD STOP CALLER "
				},
				"gasEstimates": {
					"creation": {
						"codeDepositCost": "203400",
						"executionCost": "infinite",
						"totalCost": "infinite"
					},
					"external": {
						"demo()": "infinite",
						"users(uint256)": "infinite"
					}
				},
				"methodIdentifiers": {
					"demo()": "01725a0b",
					"users(uint256)": "365b98b2"
				}
			},
			"storageLayout": {
				"storage": [
					{
						"astId": 11,
						"contract": "contracts/sol.sol:Sol",
						"label": "users",
						"offset": 0,
						"slot": "0",
						"type": "t_mapping(t_uint256,t_struct(Person)6_storage)"
					}
				],
				"types": {
					"t_mapping(t_uint256,t_struct(Person)6_storage)": {
						"encoding": "mapping",
						"key": "t_uint256",
						"label": "mapping(uint256 => struct Sol.Person)",
						"numberOfBytes": "32",
						"value": "t_struct(Person)6_storage"
					},
					"t_string_storage": {
						"encoding": "bytes",
						"label": "string",
						"numberOfBytes": "32"
					},
					"t_struct(Person)6_storage": {
						"encoding": "inplace",
						"label": "struct Sol.Person",
						"members": [
							{
								"astId": 3,
								"contract": "contracts/sol.sol:Sol",
								"label": "age",
								"offset": 0,
								"slot": "0",
								"type": "t_uint256"
							},
							{
								"astId": 5,
								"contract": "contracts/sol.sol:Sol",
								"label": "name",
								"offset": 0,
								"slot": "1",
								"type": "t_string_storage"
							}
						],
						"numberOfBytes": "64"
					},
					"t_uint256": {
						"encoding": "inplace",
						"label": "uint256",
						"numberOfBytes": "32"
					}
				}
			},
			"userdoc": {
				"kind": "user",
				"methods": {},
				"version": 1
			}
		}
	}
}