{
	"contracts/SmallStruct.sol": {
		"MyContract": {
			"abi": [
				{
					"inputs": [
						{
							"internalType": "string",
							"name": "_name",
							"type": "string"
						},
						{
							"internalType": "bool",
							"name": "_invited",
							"type": "bool"
						}
					],
					"name": "addFriend",
					"outputs": [],
					"stateMutability": "nonpayable",
					"type": "function"
				},
				{
					"inputs": [
						{
							"internalType": "uint256",
							"name": "",
							"type": "uint256"
						}
					],
					"name": "guestList",
					"outputs": [
						{
							"internalType": "string",
							"name": "name",
							"type": "string"
						},
						{
							"internalType": "bool",
							"name": "invited",
							"type": "bool"
						}
					],
					"stateMutability": "view",
					"type": "function"
				},
				{
					"inputs": [
						{
							"internalType": "uint256",
							"name": "",
							"type": "uint256"
						}
					],
					"name": "listOfFriends",
					"outputs": [
						{
							"internalType": "string",
							"name": "name",
							"type": "string"
						},
						{
							"internalType": "bool",
							"name": "invited",
							"type": "bool"
						}
					],
					"stateMutability": "view",
					"type": "function"
				}
			],
			"devdoc": {
				"kind": "dev",
				"methods": {},
				"version": 1
			},
			"evm": {
				"assembly": "    /* \"contracts/SmallStruct.sol\":61:365  contract MyContract {... */\n  mstore(0x40, 0x80)\n  callvalue\n  dup1\n  iszero\n  tag_1\n  jumpi\n  0x00\n  dup1\n  revert\ntag_1:\n  pop\n  dataSize(sub_0)\n  dup1\n  dataOffset(sub_0)\n  0x00\n  codecopy\n  0x00\n  return\nstop\n\nsub_0: assembly {\n        /* \"contracts/SmallStruct.sol\":61:365  contract MyContract {... */\n      mstore(0x40, 0x80)\n      callvalue\n      dup1\n      iszero\n      tag_1\n      jumpi\n      0x00\n      dup1\n      revert\n    tag_1:\n      pop\n      jumpi(tag_2, lt(calldatasize, 0x04))\n      shr(0xe0, calldataload(0x00))\n      dup1\n      0x756030b9\n      eq\n      tag_3\n      jumpi\n      dup1\n      0x9b45fc32\n      eq\n      tag_4\n      jumpi\n      dup1\n      0xf5fccd8f\n      eq\n      tag_5\n      jumpi\n    tag_2:\n      0x00\n      dup1\n      revert\n        /* \"contracts/SmallStruct.sol\":228:362  function addFriend(string memory _name, bool _invited) public {... */\n    tag_3:\n      tag_6\n      0x04\n      dup1\n      calldatasize\n      sub\n      dup2\n      add\n      swap1\n      tag_7\n      swap2\n      swap1\n      tag_8\n      jump\t// in\n    tag_7:\n      tag_9\n      jump\t// in\n    tag_6:\n      stop\n        /* \"contracts/SmallStruct.sol\":160:191  Friends [] public listOfFriends */\n    tag_4:\n      tag_10\n      0x04\n      dup1\n      calldatasize\n      sub\n      dup2\n      add\n      swap1\n      tag_11\n      swap2\n      swap1\n      tag_12\n      jump\t// in\n    tag_11:\n      tag_13\n      jump\t// in\n    tag_10:\n      mload(0x40)\n      tag_14\n      swap3\n      swap2\n      swap1\n      tag_15\n      jump\t// in\n    tag_14:\n      mload(0x40)\n      dup1\n      swap2\n      sub\n      swap1\n      return\n        /* \"contracts/SmallStruct.sol\":196:223  Friends [] public guestList */\n    tag_5:\n      tag_16\n      0x04\n      dup1\n      calldatasize\n      sub\n      dup2\n      add\n      swap1\n      tag_17\n      swap2\n      swap1\n      tag_12\n      jump\t// in\n    tag_17:\n      tag_18\n      jump\t// in\n    tag_16:\n      mload(0x40)\n      tag_19\n      swap3\n      swap2\n      swap1\n      tag_15\n      jump\t// in\n    tag_19:\n      mload(0x40)\n      dup1\n      swap2\n      sub\n      swap1\n      return\n        /* \"contracts/SmallStruct.sol\":228:362  function addFriend(string memory _name, bool _invited) public {... */\n    tag_9:\n        /* \"contracts/SmallStruct.sol\":296:309  listOfFriends */\n      0x00\n        /* \"contracts/SmallStruct.sol\":315:356  Friends({name: _name, invited: _invited}) */\n      mload(0x40)\n      dup1\n      0x40\n      add\n      0x40\n      mstore\n      dup1\n        /* \"contracts/SmallStruct.sol\":330:335  _name */\n      dup5\n        /* \"contracts/SmallStruct.sol\":315:356  Friends({name: _name, invited: _invited}) */\n      dup2\n      mstore\n      0x20\n      add\n        /* \"contracts/SmallStruct.sol\":346:354  _invited */\n      dup4\n        /* \"contracts/SmallStruct.sol\":315:356  Friends({name: _name, invited: _invited}) */\n      iszero\n      iszero\n      dup2\n      mstore\n      pop\n        /* \"contracts/SmallStruct.sol\":296:357  listOfFriends.push(Friends({name: _name, invited: _invited})) */\n      swap1\n      dup1\n      0x01\n      dup2\n      sload\n      add\n      dup1\n      dup3\n      sstore\n      dup1\n      swap2\n      pop\n      pop\n      0x01\n      swap1\n      sub\n      swap1\n      0x00\n      mstore\n      keccak256(0x00, 0x20)\n      swap1\n      0x02\n      mul\n      add\n      0x00\n      swap1\n      swap2\n      swap1\n      swap2\n      swap1\n      swap2\n      pop\n      0x00\n      dup3\n      add\n      mload\n      dup2\n      0x00\n      add\n      swap1\n      dup1\n      mload\n      swap1\n      0x20\n      add\n      swap1\n      tag_22\n      swap3\n      swap2\n      swap1\n      tag_23\n      jump\t// in\n    tag_22:\n      pop\n      0x20\n      dup3\n      add\n      mload\n      dup2\n      0x01\n      add\n      exp(0x0100, 0x00)\n      dup2\n      sload\n      dup2\n      0xff\n      mul\n      not\n      and\n      swap1\n      dup4\n      iszero\n      iszero\n      mul\n      or\n      swap1\n      sstore\n      pop\n      pop\n      pop\n        /* \"contracts/SmallStruct.sol\":228:362  function addFriend(string memory _name, bool _invited) public {... */\n      pop\n      pop\n      jump\t// out\n        /* \"contracts/SmallStruct.sol\":160:191  Friends [] public listOfFriends */\n    tag_13:\n      0x00\n      dup2\n      dup2\n      sload\n      dup2\n      lt\n      tag_24\n      jumpi\n      0x00\n      dup1\n      revert\n    tag_24:\n      swap1\n      0x00\n      mstore\n      keccak256(0x00, 0x20)\n      swap1\n      0x02\n      mul\n      add\n      0x00\n      swap2\n      pop\n      swap1\n      pop\n      dup1\n      0x00\n      add\n      dup1\n      sload\n      tag_26\n      swap1\n      tag_27\n      jump\t// in\n    tag_26:\n      dup1\n      0x1f\n      add\n      0x20\n      dup1\n      swap2\n      div\n      mul\n      0x20\n      add\n      mload(0x40)\n      swap1\n      dup2\n      add\n      0x40\n      mstore\n      dup1\n      swap3\n      swap2\n      swap1\n      dup2\n      dup2\n      mstore\n      0x20\n      add\n      dup3\n      dup1\n      sload\n      tag_28\n      swap1\n      tag_27\n      jump\t// in\n    tag_28:\n      dup1\n      iszero\n      tag_29\n      jumpi\n      dup1\n      0x1f\n      lt\n      tag_30\n      jumpi\n      0x0100\n      dup1\n      dup4\n      sload\n      div\n      mul\n      dup4\n      mstore\n      swap2\n      0x20\n      add\n      swap2\n      jump(tag_29)\n    tag_30:\n      dup3\n      add\n      swap2\n      swap1\n      0x00\n      mstore\n      keccak256(0x00, 0x20)\n      swap1\n    tag_31:\n      dup2\n      sload\n      dup2\n      mstore\n      swap1\n      0x01\n      add\n      swap1\n      0x20\n      add\n      dup1\n      dup4\n      gt\n      tag_31\n      jumpi\n      dup3\n      swap1\n      sub\n      0x1f\n      and\n      dup3\n      add\n      swap2\n    tag_29:\n      pop\n      pop\n      pop\n      pop\n      pop\n      swap1\n      dup1\n      0x01\n      add\n      0x00\n      swap1\n      sload\n      swap1\n      0x0100\n      exp\n      swap1\n      div\n      0xff\n      and\n      swap1\n      pop\n      dup3\n      jump\t// out\n        /* \"contracts/SmallStruct.sol\":196:223  Friends [] public guestList */\n    tag_18:\n      0x01\n      dup2\n      dup2\n      sload\n      dup2\n      lt\n      tag_32\n      jumpi\n      0x00\n      dup1\n      revert\n    tag_32:\n      swap1\n      0x00\n      mstore\n      keccak256(0x00, 0x20)\n      swap1\n      0x02\n      mul\n      add\n      0x00\n      swap2\n      pop\n      swap1\n      pop\n      dup1\n      0x00\n      add\n      dup1\n      sload\n      tag_34\n      swap1\n      tag_27\n      jump\t// in\n    tag_34:\n      dup1\n      0x1f\n      add\n      0x20\n      dup1\n      swap2\n      div\n      mul\n      0x20\n      add\n      mload(0x40)\n      swap1\n      dup2\n      add\n      0x40\n      mstore\n      dup1\n      swap3\n      swap2\n      swap1\n      dup2\n      dup2\n      mstore\n      0x20\n      add\n      dup3\n      dup1\n      sload\n      tag_35\n      swap1\n      tag_27\n      jump\t// in\n    tag_35:\n      dup1\n      iszero\n      tag_36\n      jumpi\n      dup1\n      0x1f\n      lt\n      tag_37\n      jumpi\n      0x0100\n      dup1\n      dup4\n      sload\n      div\n      mul\n      dup4\n      mstore\n      swap2\n      0x20\n      add\n      swap2\n      jump(tag_36)\n    tag_37:\n      dup3\n      add\n      swap2\n      swap1\n      0x00\n      mstore\n      keccak256(0x00, 0x20)\n      swap1\n    tag_38:\n      dup2\n      sload\n      dup2\n      mstore\n      swap1\n      0x01\n      add\n      swap1\n      0x20\n      add\n      dup1\n      dup4\n      gt\n      tag_38\n      jumpi\n      dup3\n      swap1\n      sub\n      0x1f\n      and\n      dup3\n      add\n      swap2\n    tag_36:\n      pop\n      pop\n      pop\n      pop\n      pop\n      swap1\n      dup1\n      0x01\n      add\n      0x00\n      swap1\n      sload\n      swap1\n      0x0100\n      exp\n      swap1\n      div\n      0xff\n      and\n      swap1\n      pop\n      dup3\n      jump\t// out\n    tag_23:\n      dup3\n      dup1\n      sload\n      tag_39\n      swap1\n      tag_27\n      jump\t// in\n    tag_39:\n      swap1\n      0x00\n      mstore\n      keccak256(0x00, 0x20)\n      swap1\n      0x1f\n      add\n      0x20\n      swap1\n      div\n      dup2\n      add\n      swap3\n      dup3\n      tag_41\n      jumpi\n      0x00\n      dup6\n      sstore\n      jump(tag_40)\n    tag_41:\n      dup3\n      0x1f\n      lt\n      tag_42\n      jumpi\n      dup1\n      mload\n      not(0xff)\n      and\n      dup4\n      dup1\n      add\n      or\n      dup6\n      sstore\n      jump(tag_40)\n    tag_42:\n      dup3\n      dup1\n      add\n      0x01\n      add\n      dup6\n      sstore\n      dup3\n      iszero\n      tag_40\n      jumpi\n      swap2\n      dup3\n      add\n    tag_43:\n      dup3\n      dup2\n      gt\n      iszero\n      tag_44\n      jumpi\n      dup3\n      mload\n      dup3\n      sstore\n      swap2\n      0x20\n      add\n      swap2\n      swap1\n      0x01\n      add\n      swap1\n      jump(tag_43)\n    tag_44:\n    tag_40:\n      pop\n      swap1\n      pop\n      tag_45\n      swap2\n      swap1\n      tag_46\n      jump\t// in\n    tag_45:\n      pop\n      swap1\n      jump\t// out\n    tag_46:\n    tag_47:\n      dup1\n      dup3\n      gt\n      iszero\n      tag_48\n      jumpi\n      0x00\n      dup2\n      0x00\n      swap1\n      sstore\n      pop\n      0x01\n      add\n      jump(tag_47)\n    tag_48:\n      pop\n      swap1\n      jump\t// out\n        /* \"#utility.yul\":7:419   */\n    tag_50:\n        /* \"#utility.yul\":85:90   */\n      0x00\n        /* \"#utility.yul\":110:176   */\n      tag_52\n        /* \"#utility.yul\":126:175   */\n      tag_53\n        /* \"#utility.yul\":168:174   */\n      dup5\n        /* \"#utility.yul\":126:175   */\n      tag_54\n      jump\t// in\n    tag_53:\n        /* \"#utility.yul\":110:176   */\n      tag_55\n      jump\t// in\n    tag_52:\n        /* \"#utility.yul\":101:176   */\n      swap1\n      pop\n        /* \"#utility.yul\":199:205   */\n      dup3\n        /* \"#utility.yul\":192:197   */\n      dup2\n        /* \"#utility.yul\":185:206   */\n      mstore\n        /* \"#utility.yul\":237:241   */\n      0x20\n        /* \"#utility.yul\":230:235   */\n      dup2\n        /* \"#utility.yul\":226:242   */\n      add\n        /* \"#utility.yul\":275:278   */\n      dup5\n        /* \"#utility.yul\":266:272   */\n      dup5\n        /* \"#utility.yul\":261:264   */\n      dup5\n        /* \"#utility.yul\":257:273   */\n      add\n        /* \"#utility.yul\":254:279   */\n      gt\n        /* \"#utility.yul\":251:363   */\n      iszero\n      tag_56\n      jumpi\n        /* \"#utility.yul\":282:361   */\n      tag_57\n      tag_58\n      jump\t// in\n    tag_57:\n        /* \"#utility.yul\":251:363   */\n    tag_56:\n        /* \"#utility.yul\":372:413   */\n      tag_59\n        /* \"#utility.yul\":406:412   */\n      dup5\n        /* \"#utility.yul\":401:404   */\n      dup3\n        /* \"#utility.yul\":396:399   */\n      dup6\n        /* \"#utility.yul\":372:413   */\n      tag_60\n      jump\t// in\n    tag_59:\n        /* \"#utility.yul\":91:419   */\n      pop\n        /* \"#utility.yul\":7:419   */\n      swap4\n      swap3\n      pop\n      pop\n      pop\n      jump\t// out\n        /* \"#utility.yul\":425:558   */\n    tag_61:\n        /* \"#utility.yul\":468:473   */\n      0x00\n        /* \"#utility.yul\":506:512   */\n      dup2\n        /* \"#utility.yul\":493:513   */\n      calldataload\n        /* \"#utility.yul\":484:513   */\n      swap1\n      pop\n        /* \"#utility.yul\":522:552   */\n      tag_63\n        /* \"#utility.yul\":546:551   */\n      dup2\n        /* \"#utility.yul\":522:552   */\n      tag_64\n      jump\t// in\n    tag_63:\n        /* \"#utility.yul\":425:558   */\n      swap3\n      swap2\n      pop\n      pop\n      jump\t// out\n        /* \"#utility.yul\":578:918   */\n    tag_65:\n        /* \"#utility.yul\":634:639   */\n      0x00\n        /* \"#utility.yul\":683:686   */\n      dup3\n        /* \"#utility.yul\":676:680   */\n      0x1f\n        /* \"#utility.yul\":668:674   */\n      dup4\n        /* \"#utility.yul\":664:681   */\n      add\n        /* \"#utility.yul\":660:687   */\n      slt\n        /* \"#utility.yul\":650:772   */\n      tag_67\n      jumpi\n        /* \"#utility.yul\":691:770   */\n      tag_68\n      tag_69\n      jump\t// in\n    tag_68:\n        /* \"#utility.yul\":650:772   */\n    tag_67:\n        /* \"#utility.yul\":808:814   */\n      dup2\n        /* \"#utility.yul\":795:815   */\n      calldataload\n        /* \"#utility.yul\":833:912   */\n      tag_70\n        /* \"#utility.yul\":908:911   */\n      dup5\n        /* \"#utility.yul\":900:906   */\n      dup3\n        /* \"#utility.yul\":893:897   */\n      0x20\n        /* \"#utility.yul\":885:891   */\n      dup7\n        /* \"#utility.yul\":881:898   */\n      add\n        /* \"#utility.yul\":833:912   */\n      tag_50\n      jump\t// in\n    tag_70:\n        /* \"#utility.yul\":824:912   */\n      swap2\n      pop\n        /* \"#utility.yul\":640:918   */\n      pop\n        /* \"#utility.yul\":578:918   */\n      swap3\n      swap2\n      pop\n      pop\n      jump\t// out\n        /* \"#utility.yul\":924:1063   */\n    tag_71:\n        /* \"#utility.yul\":970:975   */\n      0x00\n        /* \"#utility.yul\":1008:1014   */\n      dup2\n        /* \"#utility.yul\":995:1015   */\n      calldataload\n        /* \"#utility.yul\":986:1015   */\n      swap1\n      pop\n        /* \"#utility.yul\":1024:1057   */\n      tag_73\n        /* \"#utility.yul\":1051:1056   */\n      dup2\n        /* \"#utility.yul\":1024:1057   */\n      tag_74\n      jump\t// in\n    tag_73:\n        /* \"#utility.yul\":924:1063   */\n      swap3\n      swap2\n      pop\n      pop\n      jump\t// out\n        /* \"#utility.yul\":1069:1717   */\n    tag_8:\n        /* \"#utility.yul\":1144:1150   */\n      0x00\n        /* \"#utility.yul\":1152:1158   */\n      dup1\n        /* \"#utility.yul\":1201:1203   */\n      0x40\n        /* \"#utility.yul\":1189:1198   */\n      dup4\n        /* \"#utility.yul\":1180:1187   */\n      dup6\n        /* \"#utility.yul\":1176:1199   */\n      sub\n        /* \"#utility.yul\":1172:1204   */\n      slt\n        /* \"#utility.yul\":1169:1288   */\n      iszero\n      tag_76\n      jumpi\n        /* \"#utility.yul\":1207:1286   */\n      tag_77\n      tag_78\n      jump\t// in\n    tag_77:\n        /* \"#utility.yul\":1169:1288   */\n    tag_76:\n        /* \"#utility.yul\":1355:1356   */\n      0x00\n        /* \"#utility.yul\":1344:1353   */\n      dup4\n        /* \"#utility.yul\":1340:1357   */\n      add\n        /* \"#utility.yul\":1327:1358   */\n      calldataload\n        /* \"#utility.yul\":1385:1403   */\n      0xffffffffffffffff\n        /* \"#utility.yul\":1377:1383   */\n      dup2\n        /* \"#utility.yul\":1374:1404   */\n      gt\n        /* \"#utility.yul\":1371:1488   */\n      iszero\n      tag_79\n      jumpi\n        /* \"#utility.yul\":1407:1486   */\n      tag_80\n      tag_81\n      jump\t// in\n    tag_80:\n        /* \"#utility.yul\":1371:1488   */\n    tag_79:\n        /* \"#utility.yul\":1512:1575   */\n      tag_82\n        /* \"#utility.yul\":1567:1574   */\n      dup6\n        /* \"#utility.yul\":1558:1564   */\n      dup3\n        /* \"#utility.yul\":1547:1556   */\n      dup7\n        /* \"#utility.yul\":1543:1565   */\n      add\n        /* \"#utility.yul\":1512:1575   */\n      tag_65\n      jump\t// in\n    tag_82:\n        /* \"#utility.yul\":1502:1575   */\n      swap3\n      pop\n        /* \"#utility.yul\":1298:1585   */\n      pop\n        /* \"#utility.yul\":1624:1626   */\n      0x20\n        /* \"#utility.yul\":1650:1700   */\n      tag_83\n        /* \"#utility.yul\":1692:1699   */\n      dup6\n        /* \"#utility.yul\":1683:1689   */\n      dup3\n        /* \"#utility.yul\":1672:1681   */\n      dup7\n        /* \"#utility.yul\":1668:1690   */\n      add\n        /* \"#utility.yul\":1650:1700   */\n      tag_61\n      jump\t// in\n    tag_83:\n        /* \"#utility.yul\":1640:1700   */\n      swap2\n      pop\n        /* \"#utility.yul\":1595:1710   */\n      pop\n        /* \"#utility.yul\":1069:1717   */\n      swap3\n      pop\n      swap3\n      swap1\n      pop\n      jump\t// out\n        /* \"#utility.yul\":1723:2052   */\n    tag_12:\n        /* \"#utility.yul\":1782:1788   */\n      0x00\n        /* \"#utility.yul\":1831:1833   */\n      0x20\n        /* \"#utility.yul\":1819:1828   */\n      dup3\n        /* \"#utility.yul\":1810:1817   */\n      dup5\n        /* \"#utility.yul\":1806:1829   */\n      sub\n        /* \"#utility.yul\":1802:1834   */\n      slt\n        /* \"#utility.yul\":1799:1918   */\n      iszero\n      tag_85\n      jumpi\n        /* \"#utility.yul\":1837:1916   */\n      tag_86\n      tag_78\n      jump\t// in\n    tag_86:\n        /* \"#utility.yul\":1799:1918   */\n    tag_85:\n        /* \"#utility.yul\":1957:1958   */\n      0x00\n        /* \"#utility.yul\":1982:2035   */\n      tag_87\n        /* \"#utility.yul\":2027:2034   */\n      dup5\n        /* \"#utility.yul\":2018:2024   */\n      dup3\n        /* \"#utility.yul\":2007:2016   */\n      dup6\n        /* \"#utility.yul\":2003:2025   */\n      add\n        /* \"#utility.yul\":1982:2035   */\n      tag_71\n      jump\t// in\n    tag_87:\n        /* \"#utility.yul\":1972:2035   */\n      swap2\n      pop\n        /* \"#utility.yul\":1928:2045   */\n      pop\n        /* \"#utility.yul\":1723:2052   */\n      swap3\n      swap2\n      pop\n      pop\n      jump\t// out\n        /* \"#utility.yul\":2058:2167   */\n    tag_88:\n        /* \"#utility.yul\":2139:2160   */\n      tag_90\n        /* \"#utility.yul\":2154:2159   */\n      dup2\n        /* \"#utility.yul\":2139:2160   */\n      tag_91\n      jump\t// in\n    tag_90:\n        /* \"#utility.yul\":2134:2137   */\n      dup3\n        /* \"#utility.yul\":2127:2161   */\n      mstore\n        /* \"#utility.yul\":2058:2167   */\n      pop\n      pop\n      jump\t// out\n        /* \"#utility.yul\":2173:2537   */\n    tag_92:\n        /* \"#utility.yul\":2261:2264   */\n      0x00\n        /* \"#utility.yul\":2289:2328   */\n      tag_94\n        /* \"#utility.yul\":2322:2327   */\n      dup3\n        /* \"#utility.yul\":2289:2328   */\n      tag_95\n      jump\t// in\n    tag_94:\n        /* \"#utility.yul\":2344:2415   */\n      tag_96\n        /* \"#utility.yul\":2408:2414   */\n      dup2\n        /* \"#utility.yul\":2403:2406   */\n      dup6\n        /* \"#utility.yul\":2344:2415   */\n      tag_97\n      jump\t// in\n    tag_96:\n        /* \"#utility.yul\":2337:2415   */\n      swap4\n      pop\n        /* \"#utility.yul\":2424:2476   */\n      tag_98\n        /* \"#utility.yul\":2469:2475   */\n      dup2\n        /* \"#utility.yul\":2464:2467   */\n      dup6\n        /* \"#utility.yul\":2457:2461   */\n      0x20\n        /* \"#utility.yul\":2450:2455   */\n      dup7\n        /* \"#utility.yul\":2446:2462   */\n      add\n        /* \"#utility.yul\":2424:2476   */\n      tag_99\n      jump\t// in\n    tag_98:\n        /* \"#utility.yul\":2501:2530   */\n      tag_100\n        /* \"#utility.yul\":2523:2529   */\n      dup2\n        /* \"#utility.yul\":2501:2530   */\n      tag_101\n      jump\t// in\n    tag_100:\n        /* \"#utility.yul\":2496:2499   */\n      dup5\n        /* \"#utility.yul\":2492:2531   */\n      add\n        /* \"#utility.yul\":2485:2531   */\n      swap2\n      pop\n        /* \"#utility.yul\":2265:2537   */\n      pop\n        /* \"#utility.yul\":2173:2537   */\n      swap3\n      swap2\n      pop\n      pop\n      jump\t// out\n        /* \"#utility.yul\":2543:2954   */\n    tag_15:\n        /* \"#utility.yul\":2678:2682   */\n      0x00\n        /* \"#utility.yul\":2716:2718   */\n      0x40\n        /* \"#utility.yul\":2705:2714   */\n      dup3\n        /* \"#utility.yul\":2701:2719   */\n      add\n        /* \"#utility.yul\":2693:2719   */\n      swap1\n      pop\n        /* \"#utility.yul\":2765:2774   */\n      dup2\n        /* \"#utility.yul\":2759:2763   */\n      dup2\n        /* \"#utility.yul\":2755:2775   */\n      sub\n        /* \"#utility.yul\":2751:2752   */\n      0x00\n        /* \"#utility.yul\":2740:2749   */\n      dup4\n        /* \"#utility.yul\":2736:2753   */\n      add\n        /* \"#utility.yul\":2729:2776   */\n      mstore\n        /* \"#utility.yul\":2793:2871   */\n      tag_103\n        /* \"#utility.yul\":2866:2870   */\n      dup2\n        /* \"#utility.yul\":2857:2863   */\n      dup6\n        /* \"#utility.yul\":2793:2871   */\n      tag_92\n      jump\t// in\n    tag_103:\n        /* \"#utility.yul\":2785:2871   */\n      swap1\n      pop\n        /* \"#utility.yul\":2881:2947   */\n      tag_104\n        /* \"#utility.yul\":2943:2945   */\n      0x20\n        /* \"#utility.yul\":2932:2941   */\n      dup4\n        /* \"#utility.yul\":2928:2946   */\n      add\n        /* \"#utility.yul\":2919:2925   */\n      dup5\n        /* \"#utility.yul\":2881:2947   */\n      tag_88\n      jump\t// in\n    tag_104:\n        /* \"#utility.yul\":2543:2954   */\n      swap4\n      swap3\n      pop\n      pop\n      pop\n      jump\t// out\n        /* \"#utility.yul\":2960:3089   */\n    tag_55:\n        /* \"#utility.yul\":2994:3000   */\n      0x00\n        /* \"#utility.yul\":3021:3041   */\n      tag_106\n      tag_107\n      jump\t// in\n    tag_106:\n        /* \"#utility.yul\":3011:3041   */\n      swap1\n      pop\n        /* \"#utility.yul\":3050:3083   */\n      tag_108\n        /* \"#utility.yul\":3078:3082   */\n      dup3\n        /* \"#utility.yul\":3070:3076   */\n      dup3\n        /* \"#utility.yul\":3050:3083   */\n      tag_109\n      jump\t// in\n    tag_108:\n        /* \"#utility.yul\":2960:3089   */\n      swap2\n      swap1\n      pop\n      jump\t// out\n        /* \"#utility.yul\":3095:3170   */\n    tag_107:\n        /* \"#utility.yul\":3128:3134   */\n      0x00\n        /* \"#utility.yul\":3161:3163   */\n      0x40\n        /* \"#utility.yul\":3155:3164   */\n      mload\n        /* \"#utility.yul\":3145:3164   */\n      swap1\n      pop\n        /* \"#utility.yul\":3095:3170   */\n      swap1\n      jump\t// out\n        /* \"#utility.yul\":3176:3484   */\n    tag_54:\n        /* \"#utility.yul\":3238:3242   */\n      0x00\n        /* \"#utility.yul\":3328:3346   */\n      0xffffffffffffffff\n        /* \"#utility.yul\":3320:3326   */\n      dup3\n        /* \"#utility.yul\":3317:3347   */\n      gt\n        /* \"#utility.yul\":3314:3370   */\n      iszero\n      tag_112\n      jumpi\n        /* \"#utility.yul\":3350:3368   */\n      tag_113\n      tag_114\n      jump\t// in\n    tag_113:\n        /* \"#utility.yul\":3314:3370   */\n    tag_112:\n        /* \"#utility.yul\":3388:3417   */\n      tag_115\n        /* \"#utility.yul\":3410:3416   */\n      dup3\n        /* \"#utility.yul\":3388:3417   */\n      tag_101\n      jump\t// in\n    tag_115:\n        /* \"#utility.yul\":3380:3417   */\n      swap1\n      pop\n        /* \"#utility.yul\":3472:3476   */\n      0x20\n        /* \"#utility.yul\":3466:3470   */\n      dup2\n        /* \"#utility.yul\":3462:3477   */\n      add\n        /* \"#utility.yul\":3454:3477   */\n      swap1\n      pop\n        /* \"#utility.yul\":3176:3484   */\n      swap2\n      swap1\n      pop\n      jump\t// out\n        /* \"#utility.yul\":3490:3589   */\n    tag_95:\n        /* \"#utility.yul\":3542:3548   */\n      0x00\n        /* \"#utility.yul\":3576:3581   */\n      dup2\n        /* \"#utility.yul\":3570:3582   */\n      mload\n        /* \"#utility.yul\":3560:3582   */\n      swap1\n      pop\n        /* \"#utility.yul\":3490:3589   */\n      swap2\n      swap1\n      pop\n      jump\t// out\n        /* \"#utility.yul\":3595:3764   */\n    tag_97:\n        /* \"#utility.yul\":3679:3690   */\n      0x00\n        /* \"#utility.yul\":3713:3719   */\n      dup3\n        /* \"#utility.yul\":3708:3711   */\n      dup3\n        /* \"#utility.yul\":3701:3720   */\n      mstore\n        /* \"#utility.yul\":3753:3757   */\n      0x20\n        /* \"#utility.yul\":3748:3751   */\n      dup3\n        /* \"#utility.yul\":3744:3758   */\n      add\n        /* \"#utility.yul\":3729:3758   */\n      swap1\n      pop\n        /* \"#utility.yul\":3595:3764   */\n      swap3\n      swap2\n      pop\n      pop\n      jump\t// out\n        /* \"#utility.yul\":3770:3860   */\n    tag_91:\n        /* \"#utility.yul\":3804:3811   */\n      0x00\n        /* \"#utility.yul\":3847:3852   */\n      dup2\n        /* \"#utility.yul\":3840:3853   */\n      iszero\n        /* \"#utility.yul\":3833:3854   */\n      iszero\n        /* \"#utility.yul\":3822:3854   */\n      swap1\n      pop\n        /* \"#utility.yul\":3770:3860   */\n      swap2\n      swap1\n      pop\n      jump\t// out\n        /* \"#utility.yul\":3866:3943   */\n    tag_119:\n        /* \"#utility.yul\":3903:3910   */\n      0x00\n        /* \"#utility.yul\":3932:3937   */\n      dup2\n        /* \"#utility.yul\":3921:3937   */\n      swap1\n      pop\n        /* \"#utility.yul\":3866:3943   */\n      swap2\n      swap1\n      pop\n      jump\t// out\n        /* \"#utility.yul\":3949:4103   */\n    tag_60:\n        /* \"#utility.yul\":4033:4039   */\n      dup3\n        /* \"#utility.yul\":4028:4031   */\n      dup2\n        /* \"#utility.yul\":4023:4026   */\n      dup4\n        /* \"#utility.yul\":4010:4040   */\n      calldatacopy\n        /* \"#utility.yul\":4095:4096   */\n      0x00\n        /* \"#utility.yul\":4086:4092   */\n      dup4\n        /* \"#utility.yul\":4081:4084   */\n      dup4\n        /* \"#utility.yul\":4077:4093   */\n      add\n        /* \"#utility.yul\":4070:4097   */\n      mstore\n        /* \"#utility.yul\":3949:4103   */\n      pop\n      pop\n      pop\n      jump\t// out\n        /* \"#utility.yul\":4109:4416   */\n    tag_99:\n        /* \"#utility.yul\":4177:4178   */\n      0x00\n        /* \"#utility.yul\":4187:4300   */\n    tag_123:\n        /* \"#utility.yul\":4201:4207   */\n      dup4\n        /* \"#utility.yul\":4198:4199   */\n      dup2\n        /* \"#utility.yul\":4195:4208   */\n      lt\n        /* \"#utility.yul\":4187:4300   */\n      iszero\n      tag_125\n      jumpi\n        /* \"#utility.yul\":4286:4287   */\n      dup1\n        /* \"#utility.yul\":4281:4284   */\n      dup3\n        /* \"#utility.yul\":4277:4288   */\n      add\n        /* \"#utility.yul\":4271:4289   */\n      mload\n        /* \"#utility.yul\":4267:4268   */\n      dup2\n        /* \"#utility.yul\":4262:4265   */\n      dup5\n        /* \"#utility.yul\":4258:4269   */\n      add\n        /* \"#utility.yul\":4251:4290   */\n      mstore\n        /* \"#utility.yul\":4223:4225   */\n      0x20\n        /* \"#utility.yul\":4220:4221   */\n      dup2\n        /* \"#utility.yul\":4216:4226   */\n      add\n        /* \"#utility.yul\":4211:4226   */\n      swap1\n      pop\n        /* \"#utility.yul\":4187:4300   */\n      jump(tag_123)\n    tag_125:\n        /* \"#utility.yul\":4318:4324   */\n      dup4\n        /* \"#utility.yul\":4315:4316   */\n      dup2\n        /* \"#utility.yul\":4312:4325   */\n      gt\n        /* \"#utility.yul\":4309:4410   */\n      iszero\n      tag_126\n      jumpi\n        /* \"#utility.yul\":4398:4399   */\n      0x00\n        /* \"#utility.yul\":4389:4395   */\n      dup5\n        /* \"#utility.yul\":4384:4387   */\n      dup5\n        /* \"#utility.yul\":4380:4396   */\n      add\n        /* \"#utility.yul\":4373:4400   */\n      mstore\n        /* \"#utility.yul\":4309:4410   */\n    tag_126:\n        /* \"#utility.yul\":4158:4416   */\n      pop\n        /* \"#utility.yul\":4109:4416   */\n      pop\n      pop\n      pop\n      jump\t// out\n        /* \"#utility.yul\":4422:4742   */\n    tag_27:\n        /* \"#utility.yul\":4466:4472   */\n      0x00\n        /* \"#utility.yul\":4503:4504   */\n      0x02\n        /* \"#utility.yul\":4497:4501   */\n      dup3\n        /* \"#utility.yul\":4493:4505   */\n      div\n        /* \"#utility.yul\":4483:4505   */\n      swap1\n      pop\n        /* \"#utility.yul\":4550:4551   */\n      0x01\n        /* \"#utility.yul\":4544:4548   */\n      dup3\n        /* \"#utility.yul\":4540:4552   */\n      and\n        /* \"#utility.yul\":4571:4589   */\n      dup1\n        /* \"#utility.yul\":4561:4642   */\n      tag_128\n      jumpi\n        /* \"#utility.yul\":4627:4631   */\n      0x7f\n        /* \"#utility.yul\":4619:4625   */\n      dup3\n        /* \"#utility.yul\":4615:4632   */\n      and\n        /* \"#utility.yul\":4605:4632   */\n      swap2\n      pop\n        /* \"#utility.yul\":4561:4642   */\n    tag_128:\n        /* \"#utility.yul\":4689:4691   */\n      0x20\n        /* \"#utility.yul\":4681:4687   */\n      dup3\n        /* \"#utility.yul\":4678:4692   */\n      lt\n        /* \"#utility.yul\":4658:4676   */\n      dup2\n        /* \"#utility.yul\":4655:4693   */\n      eq\n        /* \"#utility.yul\":4652:4736   */\n      iszero\n      tag_129\n      jumpi\n        /* \"#utility.yul\":4708:4726   */\n      tag_130\n      tag_131\n      jump\t// in\n    tag_130:\n        /* \"#utility.yul\":4652:4736   */\n    tag_129:\n        /* \"#utility.yul\":4473:4742   */\n      pop\n        /* \"#utility.yul\":4422:4742   */\n      swap2\n      swap1\n      pop\n      jump\t// out\n        /* \"#utility.yul\":4748:5029   */\n    tag_109:\n        /* \"#utility.yul\":4831:4858   */\n      tag_133\n        /* \"#utility.yul\":4853:4857   */\n      dup3\n        /* \"#utility.yul\":4831:4858   */\n      tag_101\n      jump\t// in\n    tag_133:\n        /* \"#utility.yul\":4823:4829   */\n      dup2\n        /* \"#utility.yul\":4819:4859   */\n      add\n        /* \"#utility.yul\":4961:4967   */\n      dup2\n        /* \"#utility.yul\":4949:4959   */\n      dup2\n        /* \"#utility.yul\":4946:4968   */\n      lt\n        /* \"#utility.yul\":4925:4943   */\n      0xffffffffffffffff\n        /* \"#utility.yul\":4913:4923   */\n      dup3\n        /* \"#utility.yul\":4910:4944   */\n      gt\n        /* \"#utility.yul\":4907:4969   */\n      or\n        /* \"#utility.yul\":4904:4992   */\n      iszero\n      tag_134\n      jumpi\n        /* \"#utility.yul\":4972:4990   */\n      tag_135\n      tag_114\n      jump\t// in\n    tag_135:\n        /* \"#utility.yul\":4904:4992   */\n    tag_134:\n        /* \"#utility.yul\":5012:5022   */\n      dup1\n        /* \"#utility.yul\":5008:5010   */\n      0x40\n        /* \"#utility.yul\":5001:5023   */\n      mstore\n        /* \"#utility.yul\":4791:5029   */\n      pop\n        /* \"#utility.yul\":4748:5029   */\n      pop\n      pop\n      jump\t// out\n        /* \"#utility.yul\":5035:5215   */\n    tag_131:\n        /* \"#utility.yul\":5083:5160   */\n      0x4e487b7100000000000000000000000000000000000000000000000000000000\n        /* \"#utility.yul\":5080:5081   */\n      0x00\n        /* \"#utility.yul\":5073:5161   */\n      mstore\n        /* \"#utility.yul\":5180:5184   */\n      0x22\n        /* \"#utility.yul\":5177:5178   */\n      0x04\n        /* \"#utility.yul\":5170:5185   */\n      mstore\n        /* \"#utility.yul\":5204:5208   */\n      0x24\n        /* \"#utility.yul\":5201:5202   */\n      0x00\n        /* \"#utility.yul\":5194:5209   */\n      revert\n        /* \"#utility.yul\":5221:5401   */\n    tag_114:\n        /* \"#utility.yul\":5269:5346   */\n      0x4e487b7100000000000000000000000000000000000000000000000000000000\n        /* \"#utility.yul\":5266:5267   */\n      0x00\n        /* \"#utility.yul\":5259:5347   */\n      mstore\n        /* \"#utility.yul\":5366:5370   */\n      0x41\n        /* \"#utility.yul\":5363:5364   */\n      0x04\n        /* \"#utility.yul\":5356:5371   */\n      mstore\n        /* \"#utility.yul\":5390:5394   */\n      0x24\n        /* \"#utility.yul\":5387:5388   */\n      0x00\n        /* \"#utility.yul\":5380:5395   */\n      revert\n        /* \"#utility.yul\":5407:5524   */\n    tag_69:\n        /* \"#utility.yul\":5516:5517   */\n      0x00\n        /* \"#utility.yul\":5513:5514   */\n      dup1\n        /* \"#utility.yul\":5506:5518   */\n      revert\n        /* \"#utility.yul\":5530:5647   */\n    tag_58:\n        /* \"#utility.yul\":5639:5640   */\n      0x00\n        /* \"#utility.yul\":5636:5637   */\n      dup1\n        /* \"#utility.yul\":5629:5641   */\n      revert\n        /* \"#utility.yul\":5653:5770   */\n    tag_81:\n        /* \"#utility.yul\":5762:5763   */\n      0x00\n        /* \"#utility.yul\":5759:5760   */\n      dup1\n        /* \"#utility.yul\":5752:5764   */\n      revert\n        /* \"#utility.yul\":5776:5893   */\n    tag_78:\n        /* \"#utility.yul\":5885:5886   */\n      0x00\n        /* \"#utility.yul\":5882:5883   */\n      dup1\n        /* \"#utility.yul\":5875:5887   */\n      revert\n        /* \"#utility.yul\":5899:6001   */\n    tag_101:\n        /* \"#utility.yul\":5940:5946   */\n      0x00\n        /* \"#utility.yul\":5991:5993   */\n      0x1f\n        /* \"#utility.yul\":5987:5994   */\n      not\n        /* \"#utility.yul\":5982:5984   */\n      0x1f\n        /* \"#utility.yul\":5975:5980   */\n      dup4\n        /* \"#utility.yul\":5971:5985   */\n      add\n        /* \"#utility.yul\":5967:5995   */\n      and\n        /* \"#utility.yul\":5957:5995   */\n      swap1\n      pop\n        /* \"#utility.yul\":5899:6001   */\n      swap2\n      swap1\n      pop\n      jump\t// out\n        /* \"#utility.yul\":6007:6123   */\n    tag_64:\n        /* \"#utility.yul\":6077:6098   */\n      tag_144\n        /* \"#utility.yul\":6092:6097   */\n      dup2\n        /* \"#utility.yul\":6077:6098   */\n      tag_91\n      jump\t// in\n    tag_144:\n        /* \"#utility.yul\":6070:6075   */\n      dup2\n        /* \"#utility.yul\":6067:6099   */\n      eq\n        /* \"#utility.yul\":6057:6117   */\n      tag_145\n      jumpi\n        /* \"#utility.yul\":6113:6114   */\n      0x00\n        /* \"#utility.yul\":6110:6111   */\n      dup1\n        /* \"#utility.yul\":6103:6115   */\n      revert\n        /* \"#utility.yul\":6057:6117   */\n    tag_145:\n        /* \"#utility.yul\":6007:6123   */\n      pop\n      jump\t// out\n        /* \"#utility.yul\":6129:6251   */\n    tag_74:\n        /* \"#utility.yul\":6202:6226   */\n      tag_147\n        /* \"#utility.yul\":6220:6225   */\n      dup2\n        /* \"#utility.yul\":6202:6226   */\n      tag_119\n      jump\t// in\n    tag_147:\n        /* \"#utility.yul\":6195:6200   */\n      dup2\n        /* \"#utility.yul\":6192:6227   */\n      eq\n        /* \"#utility.yul\":6182:6245   */\n      tag_148\n      jumpi\n        /* \"#utility.yul\":6241:6242   */\n      0x00\n        /* \"#utility.yul\":6238:6239   */\n      dup1\n        /* \"#utility.yul\":6231:6243   */\n      revert\n        /* \"#utility.yul\":6182:6245   */\n    tag_148:\n        /* \"#utility.yul\":6129:6251   */\n      pop\n      jump\t// out\n\n    auxdata: 0xa2646970667358221220bd8a0547a970d28cfd93210031d53e8ee388a8b53cef23b01a7c9a72f2f3733664736f6c63430008070033\n}\n",
				"bytecode": {
					"linkReferences": {},
					"object": "608060405234801561001057600080fd5b5061072d806100206000396000f3fe608060405234801561001057600080fd5b50600436106100415760003560e01c8063756030b9146100465780639b45fc3214610062578063f5fccd8f14610093575b600080fd5b610060600480360381019061005b9190610418565b6100c4565b005b61007c60048036038101906100779190610474565b610149565b60405161008a9291906104e9565b60405180910390f35b6100ad60048036038101906100a89190610474565b610212565b6040516100bb9291906104e9565b60405180910390f35b60006040518060400160405280848152602001831515815250908060018154018082558091505060019003906000526020600020906002020160009091909190915060008201518160000190805190602001906101229291906102db565b5060208201518160010160006101000a81548160ff02191690831515021790555050505050565b6000818154811061015957600080fd5b906000526020600020906002020160009150905080600001805461017c906105e3565b80601f01602080910402602001604051908101604052809291908181526020018280546101a8906105e3565b80156101f55780601f106101ca576101008083540402835291602001916101f5565b820191906000526020600020905b8154815290600101906020018083116101d857829003601f168201915b5050505050908060010160009054906101000a900460ff16905082565b6001818154811061022257600080fd5b9060005260206000209060020201600091509050806000018054610245906105e3565b80601f0160208091040260200160405190810160405280929190818152602001828054610271906105e3565b80156102be5780601f10610293576101008083540402835291602001916102be565b820191906000526020600020905b8154815290600101906020018083116102a157829003601f168201915b5050505050908060010160009054906101000a900460ff16905082565b8280546102e7906105e3565b90600052602060002090601f0160209004810192826103095760008555610350565b82601f1061032257805160ff1916838001178555610350565b82800160010185558215610350579182015b8281111561034f578251825591602001919060010190610334565b5b50905061035d9190610361565b5090565b5b8082111561037a576000816000905550600101610362565b5090565b600061039161038c8461053e565b610519565b9050828152602081018484840111156103ad576103ac6106a9565b5b6103b88482856105a1565b509392505050565b6000813590506103cf816106c9565b92915050565b600082601f8301126103ea576103e96106a4565b5b81356103fa84826020860161037e565b91505092915050565b600081359050610412816106e0565b92915050565b6000806040838503121561042f5761042e6106b3565b5b600083013567ffffffffffffffff81111561044d5761044c6106ae565b5b610459858286016103d5565b925050602061046a858286016103c0565b9150509250929050565b60006020828403121561048a576104896106b3565b5b600061049884828501610403565b91505092915050565b6104aa8161058b565b82525050565b60006104bb8261056f565b6104c5818561057a565b93506104d58185602086016105b0565b6104de816106b8565b840191505092915050565b6000604082019050818103600083015261050381856104b0565b905061051260208301846104a1565b9392505050565b6000610523610534565b905061052f8282610615565b919050565b6000604051905090565b600067ffffffffffffffff82111561055957610558610675565b5b610562826106b8565b9050602081019050919050565b600081519050919050565b600082825260208201905092915050565b60008115159050919050565b6000819050919050565b82818337600083830152505050565b60005b838110156105ce5780820151818401526020810190506105b3565b838111156105dd576000848401525b50505050565b600060028204905060018216806105fb57607f821691505b6020821081141561060f5761060e610646565b5b50919050565b61061e826106b8565b810181811067ffffffffffffffff8211171561063d5761063c610675565b5b80604052505050565b7f4e487b7100000000000000000000000000000000000000000000000000000000600052602260045260246000fd5b7f4e487b7100000000000000000000000000000000000000000000000000000000600052604160045260246000fd5b600080fd5b600080fd5b600080fd5b600080fd5b6000601f19601f8301169050919050565b6106d28161058b565b81146106dd57600080fd5b50565b6106e981610597565b81146106f457600080fd5b5056fea2646970667358221220bd8a0547a970d28cfd93210031d53e8ee388a8b53cef23b01a7c9a72f2f3733664736f6c63430008070033",
					"opcodes": "PUSH1 0x80 PUSH1 0x40 MSTORE CALLVALUE DUP1 ISZERO PUSH2 0x10 JUMPI PUSH1 0x0 DUP1 REVERT JUMPDEST POP PUSH2 0x72D DUP1 PUSH2 0x20 PUSH1 0x0 CODECOPY PUSH1 0x0 RETURN INVALID PUSH1 0x80 PUSH1 0x40 MSTORE CALLVALUE DUP1 ISZERO PUSH2 0x10 JUMPI PUSH1 0x0 DUP1 REVERT JUMPDEST POP PUSH1 0x4 CALLDATASIZE LT PUSH2 0x41 JUMPI PUSH1 0x0 CALLDATALOAD PUSH1 0xE0 SHR DUP1 PUSH4 0x756030B9 EQ PUSH2 0x46 JUMPI DUP1 PUSH4 0x9B45FC32 EQ PUSH2 0x62 JUMPI DUP1 PUSH4 0xF5FCCD8F EQ PUSH2 0x93 JUMPI JUMPDEST PUSH1 0x0 DUP1 REVERT JUMPDEST PUSH2 0x60 PUSH1 0x4 DUP1 CALLDATASIZE SUB DUP2 ADD SWAP1 PUSH2 0x5B SWAP2 SWAP1 PUSH2 0x418 JUMP JUMPDEST PUSH2 0xC4 JUMP JUMPDEST STOP JUMPDEST PUSH2 0x7C PUSH1 0x4 DUP1 CALLDATASIZE SUB DUP2 ADD SWAP1 PUSH2 0x77 SWAP2 SWAP1 PUSH2 0x474 JUMP JUMPDEST PUSH2 0x149 JUMP JUMPDEST PUSH1 0x40 MLOAD PUSH2 0x8A SWAP3 SWAP2 SWAP1 PUSH2 0x4E9 JUMP JUMPDEST PUSH1 0x40 MLOAD DUP1 SWAP2 SUB SWAP1 RETURN JUMPDEST PUSH2 0xAD PUSH1 0x4 DUP1 CALLDATASIZE SUB DUP2 ADD SWAP1 PUSH2 0xA8 SWAP2 SWAP1 PUSH2 0x474 JUMP JUMPDEST PUSH2 0x212 JUMP JUMPDEST PUSH1 0x40 MLOAD PUSH2 0xBB SWAP3 SWAP2 SWAP1 PUSH2 0x4E9 JUMP JUMPDEST PUSH1 0x40 MLOAD DUP1 SWAP2 SUB SWAP1 RETURN JUMPDEST PUSH1 0x0 PUSH1 0x40 MLOAD DUP1 PUSH1 0x40 ADD PUSH1 0x40 MSTORE DUP1 DUP5 DUP2 MSTORE PUSH1 0x20 ADD DUP4 ISZERO ISZERO DUP2 MSTORE POP SWAP1 DUP1 PUSH1 0x1 DUP2 SLOAD ADD DUP1 DUP3 SSTORE DUP1 SWAP2 POP POP PUSH1 0x1 SWAP1 SUB SWAP1 PUSH1 0x0 MSTORE PUSH1 0x20 PUSH1 0x0 KECCAK256 SWAP1 PUSH1 0x2 MUL ADD PUSH1 0x0 SWAP1 SWAP2 SWAP1 SWAP2 SWAP1 SWAP2 POP PUSH1 0x0 DUP3 ADD MLOAD DUP2 PUSH1 0x0 ADD SWAP1 DUP1 MLOAD SWAP1 PUSH1 0x20 ADD SWAP1 PUSH2 0x122 SWAP3 SWAP2 SWAP1 PUSH2 0x2DB JUMP JUMPDEST POP PUSH1 0x20 DUP3 ADD MLOAD DUP2 PUSH1 0x1 ADD PUSH1 0x0 PUSH2 0x100 EXP DUP2 SLOAD DUP2 PUSH1 0xFF MUL NOT AND SWAP1 DUP4 ISZERO ISZERO MUL OR SWAP1 SSTORE POP POP POP POP POP JUMP JUMPDEST PUSH1 0x0 DUP2 DUP2 SLOAD DUP2 LT PUSH2 0x159 JUMPI PUSH1 0x0 DUP1 REVERT JUMPDEST SWAP1 PUSH1 0x0 MSTORE PUSH1 0x20 PUSH1 0x0 KECCAK256 SWAP1 PUSH1 0x2 MUL ADD PUSH1 0x0 SWAP2 POP SWAP1 POP DUP1 PUSH1 0x0 ADD DUP1 SLOAD PUSH2 0x17C SWAP1 PUSH2 0x5E3 JUMP JUMPDEST DUP1 PUSH1 0x1F ADD PUSH1 0x20 DUP1 SWAP2 DIV MUL PUSH1 0x20 ADD PUSH1 0x40 MLOAD SWAP1 DUP2 ADD PUSH1 0x40 MSTORE DUP1 SWAP3 SWAP2 SWAP1 DUP2 DUP2 MSTORE PUSH1 0x20 ADD DUP3 DUP1 SLOAD PUSH2 0x1A8 SWAP1 PUSH2 0x5E3 JUMP JUMPDEST DUP1 ISZERO PUSH2 0x1F5 JUMPI DUP1 PUSH1 0x1F LT PUSH2 0x1CA JUMPI PUSH2 0x100 DUP1 DUP4 SLOAD DIV MUL DUP4 MSTORE SWAP2 PUSH1 0x20 ADD SWAP2 PUSH2 0x1F5 JUMP JUMPDEST DUP3 ADD SWAP2 SWAP1 PUSH1 0x0 MSTORE PUSH1 0x20 PUSH1 0x0 KECCAK256 SWAP1 JUMPDEST DUP2 SLOAD DUP2 MSTORE SWAP1 PUSH1 0x1 ADD SWAP1 PUSH1 0x20 ADD DUP1 DUP4 GT PUSH2 0x1D8 JUMPI DUP3 SWAP1 SUB PUSH1 0x1F AND DUP3 ADD SWAP2 JUMPDEST POP POP POP POP POP SWAP1 DUP1 PUSH1 0x1 ADD PUSH1 0x0 SWAP1 SLOAD SWAP1 PUSH2 0x100 EXP SWAP1 DIV PUSH1 0xFF AND SWAP1 POP DUP3 JUMP JUMPDEST PUSH1 0x1 DUP2 DUP2 SLOAD DUP2 LT PUSH2 0x222 JUMPI PUSH1 0x0 DUP1 REVERT JUMPDEST SWAP1 PUSH1 0x0 MSTORE PUSH1 0x20 PUSH1 0x0 KECCAK256 SWAP1 PUSH1 0x2 MUL ADD PUSH1 0x0 SWAP2 POP SWAP1 POP DUP1 PUSH1 0x0 ADD DUP1 SLOAD PUSH2 0x245 SWAP1 PUSH2 0x5E3 JUMP JUMPDEST DUP1 PUSH1 0x1F ADD PUSH1 0x20 DUP1 SWAP2 DIV MUL PUSH1 0x20 ADD PUSH1 0x40 MLOAD SWAP1 DUP2 ADD PUSH1 0x40 MSTORE DUP1 SWAP3 SWAP2 SWAP1 DUP2 DUP2 MSTORE PUSH1 0x20 ADD DUP3 DUP1 SLOAD PUSH2 0x271 SWAP1 PUSH2 0x5E3 JUMP JUMPDEST DUP1 ISZERO PUSH2 0x2BE JUMPI DUP1 PUSH1 0x1F LT PUSH2 0x293 JUMPI PUSH2 0x100 DUP1 DUP4 SLOAD DIV MUL DUP4 MSTORE SWAP2 PUSH1 0x20 ADD SWAP2 PUSH2 0x2BE JUMP JUMPDEST DUP3 ADD SWAP2 SWAP1 PUSH1 0x0 MSTORE PUSH1 0x20 PUSH1 0x0 KECCAK256 SWAP1 JUMPDEST DUP2 SLOAD DUP2 MSTORE SWAP1 PUSH1 0x1 ADD SWAP1 PUSH1 0x20 ADD DUP1 DUP4 GT PUSH2 0x2A1 JUMPI DUP3 SWAP1 SUB PUSH1 0x1F AND DUP3 ADD SWAP2 JUMPDEST POP POP POP POP POP SWAP1 DUP1 PUSH1 0x1 ADD PUSH1 0x0 SWAP1 SLOAD SWAP1 PUSH2 0x100 EXP SWAP1 DIV PUSH1 0xFF AND SWAP1 POP DUP3 JUMP JUMPDEST DUP3 DUP1 SLOAD PUSH2 0x2E7 SWAP1 PUSH2 0x5E3 JUMP JUMPDEST SWAP1 PUSH1 0x0 MSTORE PUSH1 0x20 PUSH1 0x0 KECCAK256 SWAP1 PUSH1 0x1F ADD PUSH1 0x20 SWAP1 DIV DUP2 ADD SWAP3 DUP3 PUSH2 0x309 JUMPI PUSH1 0x0 DUP6 SSTORE PUSH2 0x350 JUMP JUMPDEST DUP3 PUSH1 0x1F LT PUSH2 0x322 JUMPI DUP1 MLOAD PUSH1 0xFF NOT AND DUP4 DUP1 ADD OR DUP6 SSTORE PUSH2 0x350 JUMP JUMPDEST DUP3 DUP1 ADD PUSH1 0x1 ADD DUP6 SSTORE DUP3 ISZERO PUSH2 0x350 JUMPI SWAP2 DUP3 ADD JUMPDEST DUP3 DUP2 GT ISZERO PUSH2 0x34F JUMPI DUP3 MLOAD DUP3 SSTORE SWAP2 PUSH1 0x20 ADD SWAP2 SWAP1 PUSH1 0x1 ADD SWAP1 PUSH2 0x334 JUMP JUMPDEST JUMPDEST POP SWAP1 POP PUSH2 0x35D SWAP2 SWAP1 PUSH2 0x361 JUMP JUMPDEST POP SWAP1 JUMP JUMPDEST JUMPDEST DUP1 DUP3 GT ISZERO PUSH2 0x37A JUMPI PUSH1 0x0 DUP2 PUSH1 0x0 SWAP1 SSTORE POP PUSH1 0x1 ADD PUSH2 0x362 JUMP JUMPDEST POP SWAP1 JUMP JUMPDEST PUSH1 0x0 PUSH2 0x391 PUSH2 0x38C DUP5 PUSH2 0x53E JUMP JUMPDEST PUSH2 0x519 JUMP JUMPDEST SWAP1 POP DUP3 DUP2 MSTORE PUSH1 0x20 DUP2 ADD DUP5 DUP5 DUP5 ADD GT ISZERO PUSH2 0x3AD JUMPI PUSH2 0x3AC PUSH2 0x6A9 JUMP JUMPDEST JUMPDEST PUSH2 0x3B8 DUP5 DUP3 DUP6 PUSH2 0x5A1 JUMP JUMPDEST POP SWAP4 SWAP3 POP POP POP JUMP JUMPDEST PUSH1 0x0 DUP2 CALLDATALOAD SWAP1 POP PUSH2 0x3CF DUP2 PUSH2 0x6C9 JUMP JUMPDEST SWAP3 SWAP2 POP POP JUMP JUMPDEST PUSH1 0x0 DUP3 PUSH1 0x1F DUP4 ADD SLT PUSH2 0x3EA JUMPI PUSH2 0x3E9 PUSH2 0x6A4 JUMP JUMPDEST JUMPDEST DUP2 CALLDATALOAD PUSH2 0x3FA DUP5 DUP3 PUSH1 0x20 DUP7 ADD PUSH2 0x37E JUMP JUMPDEST SWAP2 POP POP SWAP3 SWAP2 POP POP JUMP JUMPDEST PUSH1 0x0 DUP2 CALLDATALOAD SWAP1 POP PUSH2 0x412 DUP2 PUSH2 0x6E0 JUMP JUMPDEST SWAP3 SWAP2 POP POP JUMP JUMPDEST PUSH1 0x0 DUP1 PUSH1 0x40 DUP4 DUP6 SUB SLT ISZERO PUSH2 0x42F JUMPI PUSH2 0x42E PUSH2 0x6B3 JUMP JUMPDEST JUMPDEST PUSH1 0x0 DUP4 ADD CALLDATALOAD PUSH8 0xFFFFFFFFFFFFFFFF DUP2 GT ISZERO PUSH2 0x44D JUMPI PUSH2 0x44C PUSH2 0x6AE JUMP JUMPDEST JUMPDEST PUSH2 0x459 DUP6 DUP3 DUP7 ADD PUSH2 0x3D5 JUMP JUMPDEST SWAP3 POP POP PUSH1 0x20 PUSH2 0x46A DUP6 DUP3 DUP7 ADD PUSH2 0x3C0 JUMP JUMPDEST SWAP2 POP POP SWAP3 POP SWAP3 SWAP1 POP JUMP JUMPDEST PUSH1 0x0 PUSH1 0x20 DUP3 DUP5 SUB SLT ISZERO PUSH2 0x48A JUMPI PUSH2 0x489 PUSH2 0x6B3 JUMP JUMPDEST JUMPDEST PUSH1 0x0 PUSH2 0x498 DUP5 DUP3 DUP6 ADD PUSH2 0x403 JUMP JUMPDEST SWAP2 POP POP SWAP3 SWAP2 POP POP JUMP JUMPDEST PUSH2 0x4AA DUP2 PUSH2 0x58B JUMP JUMPDEST DUP3 MSTORE POP POP JUMP JUMPDEST PUSH1 0x0 PUSH2 0x4BB DUP3 PUSH2 0x56F JUMP JUMPDEST PUSH2 0x4C5 DUP2 DUP6 PUSH2 0x57A JUMP JUMPDEST SWAP4 POP PUSH2 0x4D5 DUP2 DUP6 PUSH1 0x20 DUP7 ADD PUSH2 0x5B0 JUMP JUMPDEST PUSH2 0x4DE DUP2 PUSH2 0x6B8 JUMP JUMPDEST DUP5 ADD SWAP2 POP POP SWAP3 SWAP2 POP POP JUMP JUMPDEST PUSH1 0x0 PUSH1 0x40 DUP3 ADD SWAP1 POP DUP2 DUP2 SUB PUSH1 0x0 DUP4 ADD MSTORE PUSH2 0x503 DUP2 DUP6 PUSH2 0x4B0 JUMP JUMPDEST SWAP1 POP PUSH2 0x512 PUSH1 0x20 DUP4 ADD DUP5 PUSH2 0x4A1 JUMP JUMPDEST SWAP4 SWAP3 POP POP POP JUMP JUMPDEST PUSH1 0x0 PUSH2 0x523 PUSH2 0x534 JUMP JUMPDEST SWAP1 POP PUSH2 0x52F DUP3 DUP3 PUSH2 0x615 JUMP JUMPDEST SWAP2 SWAP1 POP JUMP JUMPDEST PUSH1 0x0 PUSH1 0x40 MLOAD SWAP1 POP SWAP1 JUMP JUMPDEST PUSH1 0x0 PUSH8 0xFFFFFFFFFFFFFFFF DUP3 GT ISZERO PUSH2 0x559 JUMPI PUSH2 0x558 PUSH2 0x675 JUMP JUMPDEST JUMPDEST PUSH2 0x562 DUP3 PUSH2 0x6B8 JUMP JUMPDEST SWAP1 POP PUSH1 0x20 DUP2 ADD SWAP1 POP SWAP2 SWAP1 POP JUMP JUMPDEST PUSH1 0x0 DUP2 MLOAD SWAP1 POP SWAP2 SWAP1 POP JUMP JUMPDEST PUSH1 0x0 DUP3 DUP3 MSTORE PUSH1 0x20 DUP3 ADD SWAP1 POP SWAP3 SWAP2 POP POP JUMP JUMPDEST PUSH1 0x0 DUP2 ISZERO ISZERO SWAP1 POP SWAP2 SWAP1 POP JUMP JUMPDEST PUSH1 0x0 DUP2 SWAP1 POP SWAP2 SWAP1 POP JUMP JUMPDEST DUP3 DUP2 DUP4 CALLDATACOPY PUSH1 0x0 DUP4 DUP4 ADD MSTORE POP POP POP JUMP JUMPDEST PUSH1 0x0 JUMPDEST DUP4 DUP2 LT ISZERO PUSH2 0x5CE JUMPI DUP1 DUP3 ADD MLOAD DUP2 DUP5 ADD MSTORE PUSH1 0x20 DUP2 ADD SWAP1 POP PUSH2 0x5B3 JUMP JUMPDEST DUP4 DUP2 GT ISZERO PUSH2 0x5DD JUMPI PUSH1 0x0 DUP5 DUP5 ADD MSTORE JUMPDEST POP POP POP POP JUMP JUMPDEST PUSH1 0x0 PUSH1 0x2 DUP3 DIV SWAP1 POP PUSH1 0x1 DUP3 AND DUP1 PUSH2 0x5FB JUMPI PUSH1 0x7F DUP3 AND SWAP2 POP JUMPDEST PUSH1 0x20 DUP3 LT DUP2 EQ ISZERO PUSH2 0x60F JUMPI PUSH2 0x60E PUSH2 0x646 JUMP JUMPDEST JUMPDEST POP SWAP2 SWAP1 POP JUMP JUMPDEST PUSH2 0x61E DUP3 PUSH2 0x6B8 JUMP JUMPDEST DUP2 ADD DUP2 DUP2 LT PUSH8 0xFFFFFFFFFFFFFFFF DUP3 GT OR ISZERO PUSH2 0x63D JUMPI PUSH2 0x63C PUSH2 0x675 JUMP JUMPDEST JUMPDEST DUP1 PUSH1 0x40 MSTORE POP POP POP JUMP JUMPDEST PUSH32 0x4E487B7100000000000000000000000000000000000000000000000000000000 PUSH1 0x0 MSTORE PUSH1 0x22 PUSH1 0x4 MSTORE PUSH1 0x24 PUSH1 0x0 REVERT JUMPDEST PUSH32 0x4E487B7100000000000000000000000000000000000000000000000000000000 PUSH1 0x0 MSTORE PUSH1 0x41 PUSH1 0x4 MSTORE PUSH1 0x24 PUSH1 0x0 REVERT JUMPDEST PUSH1 0x0 DUP1 REVERT JUMPDEST PUSH1 0x0 DUP1 REVERT JUMPDEST PUSH1 0x0 DUP1 REVERT JUMPDEST PUSH1 0x0 DUP1 REVERT JUMPDEST PUSH1 0x0 PUSH1 0x1F NOT PUSH1 0x1F DUP4 ADD AND SWAP1 POP SWAP2 SWAP1 POP JUMP JUMPDEST PUSH2 0x6D2 DUP2 PUSH2 0x58B JUMP JUMPDEST DUP2 EQ PUSH2 0x6DD JUMPI PUSH1 0x0 DUP1 REVERT JUMPDEST POP JUMP JUMPDEST PUSH2 0x6E9 DUP2 PUSH2 0x597 JUMP JUMPDEST DUP2 EQ PUSH2 0x6F4 JUMPI PUSH1 0x0 DUP1 REVERT JUMPDEST POP JUMP INVALID LOG2 PUSH5 0x6970667358 0x22 SLT KECCAK256 0xBD DUP11 SDIV SELFBALANCE 0xA9 PUSH17 0xD28CFD93210031D53E8EE388A8B53CEF23 0xB0 BYTE PUSH29 0x9A72F2F3733664736F6C63430008070033000000000000000000000000 "
				},
				"gasEstimates": {
					"creation": {
						"codeDepositCost": "367400",
						"executionCost": "405",
						"totalCost": "367805"
					},
					"external": {
						"addFriend(string,bool)": "infinite",
						"guestList(uint256)": "infinite",
						"listOfFriends(uint256)": "infinite"
					}
				},
				"methodIdentifiers": {
					"addFriend(string,bool)": "756030b9",
					"guestList(uint256)": "f5fccd8f",
					"listOfFriends(uint256)": "9b45fc32"
				}
			},
			"storageLayout": {
				"storage": [
					{
						"astId": 10,
						"contract": "contracts/SmallStruct.sol:MyContract",
						"label": "listOfFriends",
						"offset": 0,
						"slot": "0",
						"type": "t_array(t_struct(Friends)6_storage)dyn_storage"
					},
					{
						"astId": 14,
						"contract": "contracts/SmallStruct.sol:MyContract",
						"label": "guestList",
						"offset": 0,
						"slot": "1",
						"type": "t_array(t_struct(Friends)6_storage)dyn_storage"
					}
				],
				"types": {
					"t_array(t_struct(Friends)6_storage)dyn_storage": {
						"base": "t_struct(Friends)6_storage",
						"encoding": "dynamic_array",
						"label": "struct MyContract.Friends[]",
						"numberOfBytes": "32"
					},
					"t_bool": {
						"encoding": "inplace",
						"label": "bool",
						"numberOfBytes": "1"
					},
					"t_string_storage": {
						"encoding": "bytes",
						"label": "string",
						"numberOfBytes": "32"
					},
					"t_struct(Friends)6_storage": {
						"encoding": "inplace",
						"label": "struct MyContract.Friends",
						"members": [
							{
								"astId": 3,
								"contract": "contracts/SmallStruct.sol:MyContract",
								"label": "name",
								"offset": 0,
								"slot": "0",
								"type": "t_string_storage"
							},
							{
								"astId": 5,
								"contract": "contracts/SmallStruct.sol:MyContract",
								"label": "invited",
								"offset": 0,
								"slot": "1",
								"type": "t_bool"
							}
						],
						"numberOfBytes": "64"
					}
				}
			},
			"userdoc": {
				"kind": "user",
				"methods": {},
				"version": 1
			}
		}
	}
}