{
	"contracts/SmallStruct.sol": {
		"MyContract": {
			"abi": [
				{
					"inputs": [],
					"name": "friend1",
					"outputs": [
						{
							"internalType": "string",
							"name": "name",
							"type": "string"
						},
						{
							"internalType": "bool",
							"name": "invited",
							"type": "bool"
						}
					],
					"stateMutability": "view",
					"type": "function"
				}
			],
			"devdoc": {
				"kind": "dev",
				"methods": {},
				"version": 1
			},
			"evm": {
				"assembly": "    /* \"contracts/SmallStruct.sol\":61:215  contract MyContract {... */\n  mstore(0x40, 0x80)\n    /* \"contracts/SmallStruct.sol\":187:212  Friends(\"Britney\", true ) */\n  mload(0x40)\n  dup1\n  0x40\n  add\n  0x40\n  mstore\n  dup1\n  mload(0x40)\n  dup1\n  0x40\n  add\n  0x40\n  mstore\n  dup1\n  0x07\n  dup2\n  mstore\n  0x20\n  add\n  0x427269746e657900000000000000000000000000000000000000000000000000\n  dup2\n  mstore\n  pop\n  dup2\n  mstore\n  0x20\n  add\n    /* \"contracts/SmallStruct.sol\":206:210  true */\n  0x01\n    /* \"contracts/SmallStruct.sol\":187:212  Friends(\"Britney\", true ) */\n  iszero\n  iszero\n  dup2\n  mstore\n  pop\n    /* \"contracts/SmallStruct.sol\":162:212  Friends public friend1 = Friends(\"Britney\", true ) */\n  0x00\n  dup1\n  dup3\n  add\n  mload\n  dup2\n  0x00\n  add\n  swap1\n  dup1\n  mload\n  swap1\n  0x20\n  add\n  swap1\n  tag_1\n  swap3\n  swap2\n  swap1\n  tag_2\n  jump\t// in\ntag_1:\n  pop\n  0x20\n  dup3\n  add\n  mload\n  dup2\n  0x01\n  add\n  exp(0x0100, 0x00)\n  dup2\n  sload\n  dup2\n  0xff\n  mul\n  not\n  and\n  swap1\n  dup4\n  iszero\n  iszero\n  mul\n  or\n  swap1\n  sstore\n  pop\n  pop\n  pop\n    /* \"contracts/SmallStruct.sol\":61:215  contract MyContract {... */\n  callvalue\n  dup1\n  iszero\n  tag_3\n  jumpi\n  0x00\n  dup1\n  revert\ntag_3:\n  pop\n  jump(tag_4)\ntag_2:\n  dup3\n  dup1\n  sload\n  tag_5\n  swap1\n  tag_6\n  jump\t// in\ntag_5:\n  swap1\n  0x00\n  mstore\n  keccak256(0x00, 0x20)\n  swap1\n  0x1f\n  add\n  0x20\n  swap1\n  div\n  dup2\n  add\n  swap3\n  dup3\n  tag_8\n  jumpi\n  0x00\n  dup6\n  sstore\n  jump(tag_7)\ntag_8:\n  dup3\n  0x1f\n  lt\n  tag_9\n  jumpi\n  dup1\n  mload\n  not(0xff)\n  and\n  dup4\n  dup1\n  add\n  or\n  dup6\n  sstore\n  jump(tag_7)\ntag_9:\n  dup3\n  dup1\n  add\n  0x01\n  add\n  dup6\n  sstore\n  dup3\n  iszero\n  tag_7\n  jumpi\n  swap2\n  dup3\n  add\ntag_10:\n  dup3\n  dup2\n  gt\n  iszero\n  tag_11\n  jumpi\n  dup3\n  mload\n  dup3\n  sstore\n  swap2\n  0x20\n  add\n  swap2\n  swap1\n  0x01\n  add\n  swap1\n  jump(tag_10)\ntag_11:\ntag_7:\n  pop\n  swap1\n  pop\n  tag_12\n  swap2\n  swap1\n  tag_13\n  jump\t// in\ntag_12:\n  pop\n  swap1\n  jump\t// out\ntag_13:\ntag_14:\n  dup1\n  dup3\n  gt\n  iszero\n  tag_15\n  jumpi\n  0x00\n  dup2\n  0x00\n  swap1\n  sstore\n  pop\n  0x01\n  add\n  jump(tag_14)\ntag_15:\n  pop\n  swap1\n  jump\t// out\n    /* \"#utility.yul\":7:327   */\ntag_6:\n    /* \"#utility.yul\":51:57   */\n  0x00\n    /* \"#utility.yul\":88:89   */\n  0x02\n    /* \"#utility.yul\":82:86   */\n  dup3\n    /* \"#utility.yul\":78:90   */\n  div\n    /* \"#utility.yul\":68:90   */\n  swap1\n  pop\n    /* \"#utility.yul\":135:136   */\n  0x01\n    /* \"#utility.yul\":129:133   */\n  dup3\n    /* \"#utility.yul\":125:137   */\n  and\n    /* \"#utility.yul\":156:174   */\n  dup1\n    /* \"#utility.yul\":146:227   */\n  tag_18\n  jumpi\n    /* \"#utility.yul\":212:216   */\n  0x7f\n    /* \"#utility.yul\":204:210   */\n  dup3\n    /* \"#utility.yul\":200:217   */\n  and\n    /* \"#utility.yul\":190:217   */\n  swap2\n  pop\n    /* \"#utility.yul\":146:227   */\ntag_18:\n    /* \"#utility.yul\":274:276   */\n  0x20\n    /* \"#utility.yul\":266:272   */\n  dup3\n    /* \"#utility.yul\":263:277   */\n  lt\n    /* \"#utility.yul\":243:261   */\n  dup2\n    /* \"#utility.yul\":240:278   */\n  eq\n    /* \"#utility.yul\":237:321   */\n  iszero\n  tag_19\n  jumpi\n    /* \"#utility.yul\":293:311   */\n  tag_20\n  tag_21\n  jump\t// in\ntag_20:\n    /* \"#utility.yul\":237:321   */\ntag_19:\n    /* \"#utility.yul\":58:327   */\n  pop\n    /* \"#utility.yul\":7:327   */\n  swap2\n  swap1\n  pop\n  jump\t// out\n    /* \"#utility.yul\":333:513   */\ntag_21:\n    /* \"#utility.yul\":381:458   */\n  0x4e487b7100000000000000000000000000000000000000000000000000000000\n    /* \"#utility.yul\":378:379   */\n  0x00\n    /* \"#utility.yul\":371:459   */\n  mstore\n    /* \"#utility.yul\":478:482   */\n  0x22\n    /* \"#utility.yul\":475:476   */\n  0x04\n    /* \"#utility.yul\":468:483   */\n  mstore\n    /* \"#utility.yul\":502:506   */\n  0x24\n    /* \"#utility.yul\":499:500   */\n  0x00\n    /* \"#utility.yul\":492:507   */\n  revert\n    /* \"contracts/SmallStruct.sol\":61:215  contract MyContract {... */\ntag_4:\n  dataSize(sub_0)\n  dup1\n  dataOffset(sub_0)\n  0x00\n  codecopy\n  0x00\n  return\nstop\n\nsub_0: assembly {\n        /* \"contracts/SmallStruct.sol\":61:215  contract MyContract {... */\n      mstore(0x40, 0x80)\n      callvalue\n      dup1\n      iszero\n      tag_1\n      jumpi\n      0x00\n      dup1\n      revert\n    tag_1:\n      pop\n      jumpi(tag_2, lt(calldatasize, 0x04))\n      shr(0xe0, calldataload(0x00))\n      dup1\n      0x1a2ba9b8\n      eq\n      tag_3\n      jumpi\n    tag_2:\n      0x00\n      dup1\n      revert\n        /* \"contracts/SmallStruct.sol\":162:212  Friends public friend1 = Friends(\"Britney\", true ) */\n    tag_3:\n      tag_4\n      tag_5\n      jump\t// in\n    tag_4:\n      mload(0x40)\n      tag_6\n      swap3\n      swap2\n      swap1\n      tag_7\n      jump\t// in\n    tag_6:\n      mload(0x40)\n      dup1\n      swap2\n      sub\n      swap1\n      return\n    tag_5:\n      0x00\n      dup1\n      0x00\n      add\n      dup1\n      sload\n      tag_8\n      swap1\n      tag_9\n      jump\t// in\n    tag_8:\n      dup1\n      0x1f\n      add\n      0x20\n      dup1\n      swap2\n      div\n      mul\n      0x20\n      add\n      mload(0x40)\n      swap1\n      dup2\n      add\n      0x40\n      mstore\n      dup1\n      swap3\n      swap2\n      swap1\n      dup2\n      dup2\n      mstore\n      0x20\n      add\n      dup3\n      dup1\n      sload\n      tag_10\n      swap1\n      tag_9\n      jump\t// in\n    tag_10:\n      dup1\n      iszero\n      tag_11\n      jumpi\n      dup1\n      0x1f\n      lt\n      tag_12\n      jumpi\n      0x0100\n      dup1\n      dup4\n      sload\n      div\n      mul\n      dup4\n      mstore\n      swap2\n      0x20\n      add\n      swap2\n      jump(tag_11)\n    tag_12:\n      dup3\n      add\n      swap2\n      swap1\n      0x00\n      mstore\n      keccak256(0x00, 0x20)\n      swap1\n    tag_13:\n      dup2\n      sload\n      dup2\n      mstore\n      swap1\n      0x01\n      add\n      swap1\n      0x20\n      add\n      dup1\n      dup4\n      gt\n      tag_13\n      jumpi\n      dup3\n      swap1\n      sub\n      0x1f\n      and\n      dup3\n      add\n      swap2\n    tag_11:\n      pop\n      pop\n      pop\n      pop\n      pop\n      swap1\n      dup1\n      0x01\n      add\n      0x00\n      swap1\n      sload\n      swap1\n      0x0100\n      exp\n      swap1\n      div\n      0xff\n      and\n      swap1\n      pop\n      dup3\n      jump\t// out\n        /* \"#utility.yul\":7:116   */\n    tag_15:\n        /* \"#utility.yul\":88:109   */\n      tag_17\n        /* \"#utility.yul\":103:108   */\n      dup2\n        /* \"#utility.yul\":88:109   */\n      tag_18\n      jump\t// in\n    tag_17:\n        /* \"#utility.yul\":83:86   */\n      dup3\n        /* \"#utility.yul\":76:110   */\n      mstore\n        /* \"#utility.yul\":7:116   */\n      pop\n      pop\n      jump\t// out\n        /* \"#utility.yul\":122:486   */\n    tag_19:\n        /* \"#utility.yul\":210:213   */\n      0x00\n        /* \"#utility.yul\":238:277   */\n      tag_21\n        /* \"#utility.yul\":271:276   */\n      dup3\n        /* \"#utility.yul\":238:277   */\n      tag_22\n      jump\t// in\n    tag_21:\n        /* \"#utility.yul\":293:364   */\n      tag_23\n        /* \"#utility.yul\":357:363   */\n      dup2\n        /* \"#utility.yul\":352:355   */\n      dup6\n        /* \"#utility.yul\":293:364   */\n      tag_24\n      jump\t// in\n    tag_23:\n        /* \"#utility.yul\":286:364   */\n      swap4\n      pop\n        /* \"#utility.yul\":373:425   */\n      tag_25\n        /* \"#utility.yul\":418:424   */\n      dup2\n        /* \"#utility.yul\":413:416   */\n      dup6\n        /* \"#utility.yul\":406:410   */\n      0x20\n        /* \"#utility.yul\":399:404   */\n      dup7\n        /* \"#utility.yul\":395:411   */\n      add\n        /* \"#utility.yul\":373:425   */\n      tag_26\n      jump\t// in\n    tag_25:\n        /* \"#utility.yul\":450:479   */\n      tag_27\n        /* \"#utility.yul\":472:478   */\n      dup2\n        /* \"#utility.yul\":450:479   */\n      tag_28\n      jump\t// in\n    tag_27:\n        /* \"#utility.yul\":445:448   */\n      dup5\n        /* \"#utility.yul\":441:480   */\n      add\n        /* \"#utility.yul\":434:480   */\n      swap2\n      pop\n        /* \"#utility.yul\":214:486   */\n      pop\n        /* \"#utility.yul\":122:486   */\n      swap3\n      swap2\n      pop\n      pop\n      jump\t// out\n        /* \"#utility.yul\":492:903   */\n    tag_7:\n        /* \"#utility.yul\":627:631   */\n      0x00\n        /* \"#utility.yul\":665:667   */\n      0x40\n        /* \"#utility.yul\":654:663   */\n      dup3\n        /* \"#utility.yul\":650:668   */\n      add\n        /* \"#utility.yul\":642:668   */\n      swap1\n      pop\n        /* \"#utility.yul\":714:723   */\n      dup2\n        /* \"#utility.yul\":708:712   */\n      dup2\n        /* \"#utility.yul\":704:724   */\n      sub\n        /* \"#utility.yul\":700:701   */\n      0x00\n        /* \"#utility.yul\":689:698   */\n      dup4\n        /* \"#utility.yul\":685:702   */\n      add\n        /* \"#utility.yul\":678:725   */\n      mstore\n        /* \"#utility.yul\":742:820   */\n      tag_30\n        /* \"#utility.yul\":815:819   */\n      dup2\n        /* \"#utility.yul\":806:812   */\n      dup6\n        /* \"#utility.yul\":742:820   */\n      tag_19\n      jump\t// in\n    tag_30:\n        /* \"#utility.yul\":734:820   */\n      swap1\n      pop\n        /* \"#utility.yul\":830:896   */\n      tag_31\n        /* \"#utility.yul\":892:894   */\n      0x20\n        /* \"#utility.yul\":881:890   */\n      dup4\n        /* \"#utility.yul\":877:895   */\n      add\n        /* \"#utility.yul\":868:874   */\n      dup5\n        /* \"#utility.yul\":830:896   */\n      tag_15\n      jump\t// in\n    tag_31:\n        /* \"#utility.yul\":492:903   */\n      swap4\n      swap3\n      pop\n      pop\n      pop\n      jump\t// out\n        /* \"#utility.yul\":909:1008   */\n    tag_22:\n        /* \"#utility.yul\":961:967   */\n      0x00\n        /* \"#utility.yul\":995:1000   */\n      dup2\n        /* \"#utility.yul\":989:1001   */\n      mload\n        /* \"#utility.yul\":979:1001   */\n      swap1\n      pop\n        /* \"#utility.yul\":909:1008   */\n      swap2\n      swap1\n      pop\n      jump\t// out\n        /* \"#utility.yul\":1014:1183   */\n    tag_24:\n        /* \"#utility.yul\":1098:1109   */\n      0x00\n        /* \"#utility.yul\":1132:1138   */\n      dup3\n        /* \"#utility.yul\":1127:1130   */\n      dup3\n        /* \"#utility.yul\":1120:1139   */\n      mstore\n        /* \"#utility.yul\":1172:1176   */\n      0x20\n        /* \"#utility.yul\":1167:1170   */\n      dup3\n        /* \"#utility.yul\":1163:1177   */\n      add\n        /* \"#utility.yul\":1148:1177   */\n      swap1\n      pop\n        /* \"#utility.yul\":1014:1183   */\n      swap3\n      swap2\n      pop\n      pop\n      jump\t// out\n        /* \"#utility.yul\":1189:1279   */\n    tag_18:\n        /* \"#utility.yul\":1223:1230   */\n      0x00\n        /* \"#utility.yul\":1266:1271   */\n      dup2\n        /* \"#utility.yul\":1259:1272   */\n      iszero\n        /* \"#utility.yul\":1252:1273   */\n      iszero\n        /* \"#utility.yul\":1241:1273   */\n      swap1\n      pop\n        /* \"#utility.yul\":1189:1279   */\n      swap2\n      swap1\n      pop\n      jump\t// out\n        /* \"#utility.yul\":1285:1592   */\n    tag_26:\n        /* \"#utility.yul\":1353:1354   */\n      0x00\n        /* \"#utility.yul\":1363:1476   */\n    tag_36:\n        /* \"#utility.yul\":1377:1383   */\n      dup4\n        /* \"#utility.yul\":1374:1375   */\n      dup2\n        /* \"#utility.yul\":1371:1384   */\n      lt\n        /* \"#utility.yul\":1363:1476   */\n      iszero\n      tag_38\n      jumpi\n        /* \"#utility.yul\":1462:1463   */\n      dup1\n        /* \"#utility.yul\":1457:1460   */\n      dup3\n        /* \"#utility.yul\":1453:1464   */\n      add\n        /* \"#utility.yul\":1447:1465   */\n      mload\n        /* \"#utility.yul\":1443:1444   */\n      dup2\n        /* \"#utility.yul\":1438:1441   */\n      dup5\n        /* \"#utility.yul\":1434:1445   */\n      add\n        /* \"#utility.yul\":1427:1466   */\n      mstore\n        /* \"#utility.yul\":1399:1401   */\n      0x20\n        /* \"#utility.yul\":1396:1397   */\n      dup2\n        /* \"#utility.yul\":1392:1402   */\n      add\n        /* \"#utility.yul\":1387:1402   */\n      swap1\n      pop\n        /* \"#utility.yul\":1363:1476   */\n      jump(tag_36)\n    tag_38:\n        /* \"#utility.yul\":1494:1500   */\n      dup4\n        /* \"#utility.yul\":1491:1492   */\n      dup2\n        /* \"#utility.yul\":1488:1501   */\n      gt\n        /* \"#utility.yul\":1485:1586   */\n      iszero\n      tag_39\n      jumpi\n        /* \"#utility.yul\":1574:1575   */\n      0x00\n        /* \"#utility.yul\":1565:1571   */\n      dup5\n        /* \"#utility.yul\":1560:1563   */\n      dup5\n        /* \"#utility.yul\":1556:1572   */\n      add\n        /* \"#utility.yul\":1549:1576   */\n      mstore\n        /* \"#utility.yul\":1485:1586   */\n    tag_39:\n        /* \"#utility.yul\":1334:1592   */\n      pop\n        /* \"#utility.yul\":1285:1592   */\n      pop\n      pop\n      pop\n      jump\t// out\n        /* \"#utility.yul\":1598:1918   */\n    tag_9:\n        /* \"#utility.yul\":1642:1648   */\n      0x00\n        /* \"#utility.yul\":1679:1680   */\n      0x02\n        /* \"#utility.yul\":1673:1677   */\n      dup3\n        /* \"#utility.yul\":1669:1681   */\n      div\n        /* \"#utility.yul\":1659:1681   */\n      swap1\n      pop\n        /* \"#utility.yul\":1726:1727   */\n      0x01\n        /* \"#utility.yul\":1720:1724   */\n      dup3\n        /* \"#utility.yul\":1716:1728   */\n      and\n        /* \"#utility.yul\":1747:1765   */\n      dup1\n        /* \"#utility.yul\":1737:1818   */\n      tag_41\n      jumpi\n        /* \"#utility.yul\":1803:1807   */\n      0x7f\n        /* \"#utility.yul\":1795:1801   */\n      dup3\n        /* \"#utility.yul\":1791:1808   */\n      and\n        /* \"#utility.yul\":1781:1808   */\n      swap2\n      pop\n        /* \"#utility.yul\":1737:1818   */\n    tag_41:\n        /* \"#utility.yul\":1865:1867   */\n      0x20\n        /* \"#utility.yul\":1857:1863   */\n      dup3\n        /* \"#utility.yul\":1854:1868   */\n      lt\n        /* \"#utility.yul\":1834:1852   */\n      dup2\n        /* \"#utility.yul\":1831:1869   */\n      eq\n        /* \"#utility.yul\":1828:1912   */\n      iszero\n      tag_42\n      jumpi\n        /* \"#utility.yul\":1884:1902   */\n      tag_43\n      tag_44\n      jump\t// in\n    tag_43:\n        /* \"#utility.yul\":1828:1912   */\n    tag_42:\n        /* \"#utility.yul\":1649:1918   */\n      pop\n        /* \"#utility.yul\":1598:1918   */\n      swap2\n      swap1\n      pop\n      jump\t// out\n        /* \"#utility.yul\":1924:2104   */\n    tag_44:\n        /* \"#utility.yul\":1972:2049   */\n      0x4e487b7100000000000000000000000000000000000000000000000000000000\n        /* \"#utility.yul\":1969:1970   */\n      0x00\n        /* \"#utility.yul\":1962:2050   */\n      mstore\n        /* \"#utility.yul\":2069:2073   */\n      0x22\n        /* \"#utility.yul\":2066:2067   */\n      0x04\n        /* \"#utility.yul\":2059:2074   */\n      mstore\n        /* \"#utility.yul\":2093:2097   */\n      0x24\n        /* \"#utility.yul\":2090:2091   */\n      0x00\n        /* \"#utility.yul\":2083:2098   */\n      revert\n        /* \"#utility.yul\":2110:2212   */\n    tag_28:\n        /* \"#utility.yul\":2151:2157   */\n      0x00\n        /* \"#utility.yul\":2202:2204   */\n      0x1f\n        /* \"#utility.yul\":2198:2205   */\n      not\n        /* \"#utility.yul\":2193:2195   */\n      0x1f\n        /* \"#utility.yul\":2186:2191   */\n      dup4\n        /* \"#utility.yul\":2182:2196   */\n      add\n        /* \"#utility.yul\":2178:2206   */\n      and\n        /* \"#utility.yul\":2168:2206   */\n      swap1\n      pop\n        /* \"#utility.yul\":2110:2212   */\n      swap2\n      swap1\n      pop\n      jump\t// out\n\n    auxdata: 0xa26469706673582212201b5992ee3f0dc4dd4d64db8232ea73e53869ae7f55a33d770665efa8970bb05c64736f6c63430008070033\n}\n",
				"bytecode": {
					"linkReferences": {},
					"object": "608060405260405180604001604052806040518060400160405280600781526020017f427269746e65790000000000000000000000000000000000000000000000000081525081526020016001151581525060008082015181600001908051906020019061006e9291906100a3565b5060208201518160010160006101000a81548160ff021916908315150217905550505034801561009d57600080fd5b506101a7565b8280546100af90610146565b90600052602060002090601f0160209004810192826100d15760008555610118565b82601f106100ea57805160ff1916838001178555610118565b82800160010185558215610118579182015b828111156101175782518255916020019190600101906100fc565b5b5090506101259190610129565b5090565b5b8082111561014257600081600090555060010161012a565b5090565b6000600282049050600182168061015e57607f821691505b6020821081141561017257610171610178565b5b50919050565b7f4e487b7100000000000000000000000000000000000000000000000000000000600052602260045260246000fd5b610271806101b66000396000f3fe608060405234801561001057600080fd5b506004361061002b5760003560e01c80631a2ba9b814610030575b600080fd5b61003861004f565b60405161004692919061013e565b60405180910390f35b6000806000018054610060906101c9565b80601f016020809104026020016040519081016040528092919081815260200182805461008c906101c9565b80156100d95780601f106100ae576101008083540402835291602001916100d9565b820191906000526020600020905b8154815290600101906020018083116100bc57829003601f168201915b5050505050908060010160009054906101000a900460ff16905082565b6100ff8161018a565b82525050565b60006101108261016e565b61011a8185610179565b935061012a818560208601610196565b6101338161022a565b840191505092915050565b600060408201905081810360008301526101588185610105565b905061016760208301846100f6565b9392505050565b600081519050919050565b600082825260208201905092915050565b60008115159050919050565b60005b838110156101b4578082015181840152602081019050610199565b838111156101c3576000848401525b50505050565b600060028204905060018216806101e157607f821691505b602082108114156101f5576101f46101fb565b5b50919050565b7f4e487b7100000000000000000000000000000000000000000000000000000000600052602260045260246000fd5b6000601f19601f830116905091905056fea26469706673582212201b5992ee3f0dc4dd4d64db8232ea73e53869ae7f55a33d770665efa8970bb05c64736f6c63430008070033",
					"opcodes": "PUSH1 0x80 PUSH1 0x40 MSTORE PUSH1 0x40 MLOAD DUP1 PUSH1 0x40 ADD PUSH1 0x40 MSTORE DUP1 PUSH1 0x40 MLOAD DUP1 PUSH1 0x40 ADD PUSH1 0x40 MSTORE DUP1 PUSH1 0x7 DUP2 MSTORE PUSH1 0x20 ADD PUSH32 0x427269746E657900000000000000000000000000000000000000000000000000 DUP2 MSTORE POP DUP2 MSTORE PUSH1 0x20 ADD PUSH1 0x1 ISZERO ISZERO DUP2 MSTORE POP PUSH1 0x0 DUP1 DUP3 ADD MLOAD DUP2 PUSH1 0x0 ADD SWAP1 DUP1 MLOAD SWAP1 PUSH1 0x20 ADD SWAP1 PUSH2 0x6E SWAP3 SWAP2 SWAP1 PUSH2 0xA3 JUMP JUMPDEST POP PUSH1 0x20 DUP3 ADD MLOAD DUP2 PUSH1 0x1 ADD PUSH1 0x0 PUSH2 0x100 EXP DUP2 SLOAD DUP2 PUSH1 0xFF MUL NOT AND SWAP1 DUP4 ISZERO ISZERO MUL OR SWAP1 SSTORE POP POP POP CALLVALUE DUP1 ISZERO PUSH2 0x9D JUMPI PUSH1 0x0 DUP1 REVERT JUMPDEST POP PUSH2 0x1A7 JUMP JUMPDEST DUP3 DUP1 SLOAD PUSH2 0xAF SWAP1 PUSH2 0x146 JUMP JUMPDEST SWAP1 PUSH1 0x0 MSTORE PUSH1 0x20 PUSH1 0x0 KECCAK256 SWAP1 PUSH1 0x1F ADD PUSH1 0x20 SWAP1 DIV DUP2 ADD SWAP3 DUP3 PUSH2 0xD1 JUMPI PUSH1 0x0 DUP6 SSTORE PUSH2 0x118 JUMP JUMPDEST DUP3 PUSH1 0x1F LT PUSH2 0xEA JUMPI DUP1 MLOAD PUSH1 0xFF NOT AND DUP4 DUP1 ADD OR DUP6 SSTORE PUSH2 0x118 JUMP JUMPDEST DUP3 DUP1 ADD PUSH1 0x1 ADD DUP6 SSTORE DUP3 ISZERO PUSH2 0x118 JUMPI SWAP2 DUP3 ADD JUMPDEST DUP3 DUP2 GT ISZERO PUSH2 0x117 JUMPI DUP3 MLOAD DUP3 SSTORE SWAP2 PUSH1 0x20 ADD SWAP2 SWAP1 PUSH1 0x1 ADD SWAP1 PUSH2 0xFC JUMP JUMPDEST JUMPDEST POP SWAP1 POP PUSH2 0x125 SWAP2 SWAP1 PUSH2 0x129 JUMP JUMPDEST POP SWAP1 JUMP JUMPDEST JUMPDEST DUP1 DUP3 GT ISZERO PUSH2 0x142 JUMPI PUSH1 0x0 DUP2 PUSH1 0x0 SWAP1 SSTORE POP PUSH1 0x1 ADD PUSH2 0x12A JUMP JUMPDEST POP SWAP1 JUMP JUMPDEST PUSH1 0x0 PUSH1 0x2 DUP3 DIV SWAP1 POP PUSH1 0x1 DUP3 AND DUP1 PUSH2 0x15E JUMPI PUSH1 0x7F DUP3 AND SWAP2 POP JUMPDEST PUSH1 0x20 DUP3 LT DUP2 EQ ISZERO PUSH2 0x172 JUMPI PUSH2 0x171 PUSH2 0x178 JUMP JUMPDEST JUMPDEST POP SWAP2 SWAP1 POP JUMP JUMPDEST PUSH32 0x4E487B7100000000000000000000000000000000000000000000000000000000 PUSH1 0x0 MSTORE PUSH1 0x22 PUSH1 0x4 MSTORE PUSH1 0x24 PUSH1 0x0 REVERT JUMPDEST PUSH2 0x271 DUP1 PUSH2 0x1B6 PUSH1 0x0 CODECOPY PUSH1 0x0 RETURN INVALID PUSH1 0x80 PUSH1 0x40 MSTORE CALLVALUE DUP1 ISZERO PUSH2 0x10 JUMPI PUSH1 0x0 DUP1 REVERT JUMPDEST POP PUSH1 0x4 CALLDATASIZE LT PUSH2 0x2B JUMPI PUSH1 0x0 CALLDATALOAD PUSH1 0xE0 SHR DUP1 PUSH4 0x1A2BA9B8 EQ PUSH2 0x30 JUMPI JUMPDEST PUSH1 0x0 DUP1 REVERT JUMPDEST PUSH2 0x38 PUSH2 0x4F JUMP JUMPDEST PUSH1 0x40 MLOAD PUSH2 0x46 SWAP3 SWAP2 SWAP1 PUSH2 0x13E JUMP JUMPDEST PUSH1 0x40 MLOAD DUP1 SWAP2 SUB SWAP1 RETURN JUMPDEST PUSH1 0x0 DUP1 PUSH1 0x0 ADD DUP1 SLOAD PUSH2 0x60 SWAP1 PUSH2 0x1C9 JUMP JUMPDEST DUP1 PUSH1 0x1F ADD PUSH1 0x20 DUP1 SWAP2 DIV MUL PUSH1 0x20 ADD PUSH1 0x40 MLOAD SWAP1 DUP2 ADD PUSH1 0x40 MSTORE DUP1 SWAP3 SWAP2 SWAP1 DUP2 DUP2 MSTORE PUSH1 0x20 ADD DUP3 DUP1 SLOAD PUSH2 0x8C SWAP1 PUSH2 0x1C9 JUMP JUMPDEST DUP1 ISZERO PUSH2 0xD9 JUMPI DUP1 PUSH1 0x1F LT PUSH2 0xAE JUMPI PUSH2 0x100 DUP1 DUP4 SLOAD DIV MUL DUP4 MSTORE SWAP2 PUSH1 0x20 ADD SWAP2 PUSH2 0xD9 JUMP JUMPDEST DUP3 ADD SWAP2 SWAP1 PUSH1 0x0 MSTORE PUSH1 0x20 PUSH1 0x0 KECCAK256 SWAP1 JUMPDEST DUP2 SLOAD DUP2 MSTORE SWAP1 PUSH1 0x1 ADD SWAP1 PUSH1 0x20 ADD DUP1 DUP4 GT PUSH2 0xBC JUMPI DUP3 SWAP1 SUB PUSH1 0x1F AND DUP3 ADD SWAP2 JUMPDEST POP POP POP POP POP SWAP1 DUP1 PUSH1 0x1 ADD PUSH1 0x0 SWAP1 SLOAD SWAP1 PUSH2 0x100 EXP SWAP1 DIV PUSH1 0xFF AND SWAP1 POP DUP3 JUMP JUMPDEST PUSH2 0xFF DUP2 PUSH2 0x18A JUMP JUMPDEST DUP3 MSTORE POP POP JUMP JUMPDEST PUSH1 0x0 PUSH2 0x110 DUP3 PUSH2 0x16E JUMP JUMPDEST PUSH2 0x11A DUP2 DUP6 PUSH2 0x179 JUMP JUMPDEST SWAP4 POP PUSH2 0x12A DUP2 DUP6 PUSH1 0x20 DUP7 ADD PUSH2 0x196 JUMP JUMPDEST PUSH2 0x133 DUP2 PUSH2 0x22A JUMP JUMPDEST DUP5 ADD SWAP2 POP POP SWAP3 SWAP2 POP POP JUMP JUMPDEST PUSH1 0x0 PUSH1 0x40 DUP3 ADD SWAP1 POP DUP2 DUP2 SUB PUSH1 0x0 DUP4 ADD MSTORE PUSH2 0x158 DUP2 DUP6 PUSH2 0x105 JUMP JUMPDEST SWAP1 POP PUSH2 0x167 PUSH1 0x20 DUP4 ADD DUP5 PUSH2 0xF6 JUMP JUMPDEST SWAP4 SWAP3 POP POP POP JUMP JUMPDEST PUSH1 0x0 DUP2 MLOAD SWAP1 POP SWAP2 SWAP1 POP JUMP JUMPDEST PUSH1 0x0 DUP3 DUP3 MSTORE PUSH1 0x20 DUP3 ADD SWAP1 POP SWAP3 SWAP2 POP POP JUMP JUMPDEST PUSH1 0x0 DUP2 ISZERO ISZERO SWAP1 POP SWAP2 SWAP1 POP JUMP JUMPDEST PUSH1 0x0 JUMPDEST DUP4 DUP2 LT ISZERO PUSH2 0x1B4 JUMPI DUP1 DUP3 ADD MLOAD DUP2 DUP5 ADD MSTORE PUSH1 0x20 DUP2 ADD SWAP1 POP PUSH2 0x199 JUMP JUMPDEST DUP4 DUP2 GT ISZERO PUSH2 0x1C3 JUMPI PUSH1 0x0 DUP5 DUP5 ADD MSTORE JUMPDEST POP POP POP POP JUMP JUMPDEST PUSH1 0x0 PUSH1 0x2 DUP3 DIV SWAP1 POP PUSH1 0x1 DUP3 AND DUP1 PUSH2 0x1E1 JUMPI PUSH1 0x7F DUP3 AND SWAP2 POP JUMPDEST PUSH1 0x20 DUP3 LT DUP2 EQ ISZERO PUSH2 0x1F5 JUMPI PUSH2 0x1F4 PUSH2 0x1FB JUMP JUMPDEST JUMPDEST POP SWAP2 SWAP1 POP JUMP JUMPDEST PUSH32 0x4E487B7100000000000000000000000000000000000000000000000000000000 PUSH1 0x0 MSTORE PUSH1 0x22 PUSH1 0x4 MSTORE PUSH1 0x24 PUSH1 0x0 REVERT JUMPDEST PUSH1 0x0 PUSH1 0x1F NOT PUSH1 0x1F DUP4 ADD AND SWAP1 POP SWAP2 SWAP1 POP JUMP INVALID LOG2 PUSH5 0x6970667358 0x22 SLT KECCAK256 SHL MSIZE SWAP3 0xEE EXTCODEHASH 0xD 0xC4 0xDD 0x4D PUSH5 0xDB8232EA73 0xE5 CODESIZE PUSH10 0xAE7F55A33D770665EFA8 SWAP8 SIGNEXTEND 0xB0 0x5C PUSH5 0x736F6C6343 STOP ADDMOD SMOD STOP CALLER "
				},
				"gasEstimates": {
					"creation": {
						"codeDepositCost": "125000",
						"executionCost": "infinite",
						"totalCost": "infinite"
					},
					"external": {
						"friend1()": "infinite"
					}
				},
				"methodIdentifiers": {
					"friend1()": "1a2ba9b8"
				}
			},
			"storageLayout": {
				"storage": [
					{
						"astId": 13,
						"contract": "contracts/SmallStruct.sol:MyContract",
						"label": "friend1",
						"offset": 0,
						"slot": "0",
						"type": "t_struct(Friends)6_storage"
					}
				],
				"types": {
					"t_bool": {
						"encoding": "inplace",
						"label": "bool",
						"numberOfBytes": "1"
					},
					"t_string_storage": {
						"encoding": "bytes",
						"label": "string",
						"numberOfBytes": "32"
					},
					"t_struct(Friends)6_storage": {
						"encoding": "inplace",
						"label": "struct MyContract.Friends",
						"members": [
							{
								"astId": 3,
								"contract": "contracts/SmallStruct.sol:MyContract",
								"label": "name",
								"offset": 0,
								"slot": "0",
								"type": "t_string_storage"
							},
							{
								"astId": 5,
								"contract": "contracts/SmallStruct.sol:MyContract",
								"label": "invited",
								"offset": 0,
								"slot": "1",
								"type": "t_bool"
							}
						],
						"numberOfBytes": "64"
					}
				}
			},
			"userdoc": {
				"kind": "user",
				"methods": {},
				"version": 1
			}
		}
	}
}