{
	"contracts/sol.sol": {
		"First": {
			"abi": [
				{
					"inputs": [],
					"name": "_addr",
					"outputs": [
						{
							"internalType": "address",
							"name": "",
							"type": "address"
						}
					],
					"stateMutability": "view",
					"type": "function"
				},
				{
					"inputs": [],
					"name": "_amount",
					"outputs": [
						{
							"internalType": "uint256",
							"name": "",
							"type": "uint256"
						}
					],
					"stateMutability": "view",
					"type": "function"
				},
				{
					"inputs": [
						{
							"internalType": "address payable",
							"name": "_addr",
							"type": "address"
						},
						{
							"internalType": "uint256",
							"name": "_amount",
							"type": "uint256"
						}
					],
					"name": "sendMoney",
					"outputs": [],
					"stateMutability": "nonpayable",
					"type": "function"
				}
			],
			"devdoc": {
				"kind": "dev",
				"methods": {},
				"version": 1
			},
			"evm": {
				"assembly": "    /* \"contracts/sol.sol\":61:221  contract First {... */\n  mstore(0x40, 0x80)\n  callvalue\n  dup1\n  iszero\n  tag_1\n  jumpi\n  0x00\n  dup1\n  revert\ntag_1:\n  pop\n  dataSize(sub_0)\n  dup1\n  dataOffset(sub_0)\n  0x00\n  codecopy\n  0x00\n  return\nstop\n\nsub_0: assembly {\n        /* \"contracts/sol.sol\":61:221  contract First {... */\n      mstore(0x40, 0x80)\n      callvalue\n      dup1\n      iszero\n      tag_1\n      jumpi\n      0x00\n      dup1\n      revert\n    tag_1:\n      pop\n      jumpi(tag_2, lt(calldatasize, 0x04))\n      shr(0xe0, calldataload(0x00))\n      dup1\n      0x62ab1a77\n      eq\n      tag_3\n      jumpi\n      dup1\n      0x9887f180\n      eq\n      tag_4\n      jumpi\n      dup1\n      0xee4ae2c9\n      eq\n      tag_5\n      jumpi\n    tag_2:\n      0x00\n      dup1\n      revert\n        /* \"contracts/sol.sol\":79:99  address public _addr */\n    tag_3:\n      tag_6\n      tag_7\n      jump\t// in\n    tag_6:\n      mload(0x40)\n      tag_8\n      swap2\n      swap1\n      tag_9\n      jump\t// in\n    tag_8:\n      mload(0x40)\n      dup1\n      swap2\n      sub\n      swap1\n      return\n        /* \"contracts/sol.sol\":102:121  uint public _amount */\n    tag_4:\n      tag_10\n      tag_11\n      jump\t// in\n    tag_10:\n      mload(0x40)\n      tag_12\n      swap2\n      swap1\n      tag_13\n      jump\t// in\n    tag_12:\n      mload(0x40)\n      dup1\n      swap2\n      sub\n      swap1\n      return\n        /* \"contracts/sol.sol\":125:219  function sendMoney(address payable _addr, uint _amount) public {... */\n    tag_5:\n      tag_14\n      0x04\n      dup1\n      calldatasize\n      sub\n      dup2\n      add\n      swap1\n      tag_15\n      swap2\n      swap1\n      tag_16\n      jump\t// in\n    tag_15:\n      tag_17\n      jump\t// in\n    tag_14:\n      stop\n        /* \"contracts/sol.sol\":79:99  address public _addr */\n    tag_7:\n      0x00\n      dup1\n      sload\n      swap1\n      0x0100\n      exp\n      swap1\n      div\n      0xffffffffffffffffffffffffffffffffffffffff\n      and\n      dup2\n      jump\t// out\n        /* \"contracts/sol.sol\":102:121  uint public _amount */\n    tag_11:\n      sload(0x01)\n      dup2\n      jump\t// out\n        /* \"contracts/sol.sol\":125:219  function sendMoney(address payable _addr, uint _amount) public {... */\n    tag_17:\n        /* \"contracts/sol.sol\":192:197  _addr */\n      dup2\n        /* \"contracts/sol.sol\":192:206  _addr.transfer */\n      0xffffffffffffffffffffffffffffffffffffffff\n      and\n        /* \"contracts/sol.sol\":192:215  _addr.transfer(_amount) */\n      0x08fc\n        /* \"contracts/sol.sol\":207:214  _amount */\n      dup3\n        /* \"contracts/sol.sol\":192:215  _addr.transfer(_amount) */\n      swap1\n      dup2\n      iszero\n      mul\n      swap1\n      mload(0x40)\n      0x00\n      mload(0x40)\n      dup1\n      dup4\n      sub\n      dup2\n      dup6\n      dup9\n      dup9\n      call\n      swap4\n      pop\n      pop\n      pop\n      pop\n      iszero\n      dup1\n      iszero\n      tag_20\n      jumpi\n      returndatasize\n      0x00\n      dup1\n      returndatacopy\n      revert(0x00, returndatasize)\n    tag_20:\n      pop\n        /* \"contracts/sol.sol\":125:219  function sendMoney(address payable _addr, uint _amount) public {... */\n      pop\n      pop\n      jump\t// out\n        /* \"#utility.yul\":7:162   */\n    tag_22:\n        /* \"#utility.yul\":61:66   */\n      0x00\n        /* \"#utility.yul\":99:105   */\n      dup2\n        /* \"#utility.yul\":86:106   */\n      calldataload\n        /* \"#utility.yul\":77:106   */\n      swap1\n      pop\n        /* \"#utility.yul\":115:156   */\n      tag_24\n        /* \"#utility.yul\":150:155   */\n      dup2\n        /* \"#utility.yul\":115:156   */\n      tag_25\n      jump\t// in\n    tag_24:\n        /* \"#utility.yul\":7:162   */\n      swap3\n      swap2\n      pop\n      pop\n      jump\t// out\n        /* \"#utility.yul\":168:307   */\n    tag_26:\n        /* \"#utility.yul\":214:219   */\n      0x00\n        /* \"#utility.yul\":252:258   */\n      dup2\n        /* \"#utility.yul\":239:259   */\n      calldataload\n        /* \"#utility.yul\":230:259   */\n      swap1\n      pop\n        /* \"#utility.yul\":268:301   */\n      tag_28\n        /* \"#utility.yul\":295:300   */\n      dup2\n        /* \"#utility.yul\":268:301   */\n      tag_29\n      jump\t// in\n    tag_28:\n        /* \"#utility.yul\":168:307   */\n      swap3\n      swap2\n      pop\n      pop\n      jump\t// out\n        /* \"#utility.yul\":313:803   */\n    tag_16:\n        /* \"#utility.yul\":389:395   */\n      0x00\n        /* \"#utility.yul\":397:403   */\n      dup1\n        /* \"#utility.yul\":446:448   */\n      0x40\n        /* \"#utility.yul\":434:443   */\n      dup4\n        /* \"#utility.yul\":425:432   */\n      dup6\n        /* \"#utility.yul\":421:444   */\n      sub\n        /* \"#utility.yul\":417:449   */\n      slt\n        /* \"#utility.yul\":414:533   */\n      iszero\n      tag_31\n      jumpi\n        /* \"#utility.yul\":452:531   */\n      tag_32\n      tag_33\n      jump\t// in\n    tag_32:\n        /* \"#utility.yul\":414:533   */\n    tag_31:\n        /* \"#utility.yul\":572:573   */\n      0x00\n        /* \"#utility.yul\":597:658   */\n      tag_34\n        /* \"#utility.yul\":650:657   */\n      dup6\n        /* \"#utility.yul\":641:647   */\n      dup3\n        /* \"#utility.yul\":630:639   */\n      dup7\n        /* \"#utility.yul\":626:648   */\n      add\n        /* \"#utility.yul\":597:658   */\n      tag_22\n      jump\t// in\n    tag_34:\n        /* \"#utility.yul\":587:658   */\n      swap3\n      pop\n        /* \"#utility.yul\":543:668   */\n      pop\n        /* \"#utility.yul\":707:709   */\n      0x20\n        /* \"#utility.yul\":733:786   */\n      tag_35\n        /* \"#utility.yul\":778:785   */\n      dup6\n        /* \"#utility.yul\":769:775   */\n      dup3\n        /* \"#utility.yul\":758:767   */\n      dup7\n        /* \"#utility.yul\":754:776   */\n      add\n        /* \"#utility.yul\":733:786   */\n      tag_26\n      jump\t// in\n    tag_35:\n        /* \"#utility.yul\":723:786   */\n      swap2\n      pop\n        /* \"#utility.yul\":678:796   */\n      pop\n        /* \"#utility.yul\":313:803   */\n      swap3\n      pop\n      swap3\n      swap1\n      pop\n      jump\t// out\n        /* \"#utility.yul\":809:927   */\n    tag_36:\n        /* \"#utility.yul\":896:920   */\n      tag_38\n        /* \"#utility.yul\":914:919   */\n      dup2\n        /* \"#utility.yul\":896:920   */\n      tag_39\n      jump\t// in\n    tag_38:\n        /* \"#utility.yul\":891:894   */\n      dup3\n        /* \"#utility.yul\":884:921   */\n      mstore\n        /* \"#utility.yul\":809:927   */\n      pop\n      pop\n      jump\t// out\n        /* \"#utility.yul\":933:1051   */\n    tag_40:\n        /* \"#utility.yul\":1020:1044   */\n      tag_42\n        /* \"#utility.yul\":1038:1043   */\n      dup2\n        /* \"#utility.yul\":1020:1044   */\n      tag_43\n      jump\t// in\n    tag_42:\n        /* \"#utility.yul\":1015:1018   */\n      dup3\n        /* \"#utility.yul\":1008:1045   */\n      mstore\n        /* \"#utility.yul\":933:1051   */\n      pop\n      pop\n      jump\t// out\n        /* \"#utility.yul\":1057:1279   */\n    tag_9:\n        /* \"#utility.yul\":1150:1154   */\n      0x00\n        /* \"#utility.yul\":1188:1190   */\n      0x20\n        /* \"#utility.yul\":1177:1186   */\n      dup3\n        /* \"#utility.yul\":1173:1191   */\n      add\n        /* \"#utility.yul\":1165:1191   */\n      swap1\n      pop\n        /* \"#utility.yul\":1201:1272   */\n      tag_45\n        /* \"#utility.yul\":1269:1270   */\n      0x00\n        /* \"#utility.yul\":1258:1267   */\n      dup4\n        /* \"#utility.yul\":1254:1271   */\n      add\n        /* \"#utility.yul\":1245:1251   */\n      dup5\n        /* \"#utility.yul\":1201:1272   */\n      tag_36\n      jump\t// in\n    tag_45:\n        /* \"#utility.yul\":1057:1279   */\n      swap3\n      swap2\n      pop\n      pop\n      jump\t// out\n        /* \"#utility.yul\":1285:1507   */\n    tag_13:\n        /* \"#utility.yul\":1378:1382   */\n      0x00\n        /* \"#utility.yul\":1416:1418   */\n      0x20\n        /* \"#utility.yul\":1405:1414   */\n      dup3\n        /* \"#utility.yul\":1401:1419   */\n      add\n        /* \"#utility.yul\":1393:1419   */\n      swap1\n      pop\n        /* \"#utility.yul\":1429:1500   */\n      tag_47\n        /* \"#utility.yul\":1497:1498   */\n      0x00\n        /* \"#utility.yul\":1486:1495   */\n      dup4\n        /* \"#utility.yul\":1482:1499   */\n      add\n        /* \"#utility.yul\":1473:1479   */\n      dup5\n        /* \"#utility.yul\":1429:1500   */\n      tag_40\n      jump\t// in\n    tag_47:\n        /* \"#utility.yul\":1285:1507   */\n      swap3\n      swap2\n      pop\n      pop\n      jump\t// out\n        /* \"#utility.yul\":1594:1690   */\n    tag_39:\n        /* \"#utility.yul\":1631:1638   */\n      0x00\n        /* \"#utility.yul\":1660:1684   */\n      tag_51\n        /* \"#utility.yul\":1678:1683   */\n      dup3\n        /* \"#utility.yul\":1660:1684   */\n      tag_52\n      jump\t// in\n    tag_51:\n        /* \"#utility.yul\":1649:1684   */\n      swap1\n      pop\n        /* \"#utility.yul\":1594:1690   */\n      swap2\n      swap1\n      pop\n      jump\t// out\n        /* \"#utility.yul\":1696:1800   */\n    tag_53:\n        /* \"#utility.yul\":1741:1748   */\n      0x00\n        /* \"#utility.yul\":1770:1794   */\n      tag_55\n        /* \"#utility.yul\":1788:1793   */\n      dup3\n        /* \"#utility.yul\":1770:1794   */\n      tag_52\n      jump\t// in\n    tag_55:\n        /* \"#utility.yul\":1759:1794   */\n      swap1\n      pop\n        /* \"#utility.yul\":1696:1800   */\n      swap2\n      swap1\n      pop\n      jump\t// out\n        /* \"#utility.yul\":1806:1932   */\n    tag_52:\n        /* \"#utility.yul\":1843:1850   */\n      0x00\n        /* \"#utility.yul\":1883:1925   */\n      0xffffffffffffffffffffffffffffffffffffffff\n        /* \"#utility.yul\":1876:1881   */\n      dup3\n        /* \"#utility.yul\":1872:1926   */\n      and\n        /* \"#utility.yul\":1861:1926   */\n      swap1\n      pop\n        /* \"#utility.yul\":1806:1932   */\n      swap2\n      swap1\n      pop\n      jump\t// out\n        /* \"#utility.yul\":1938:2015   */\n    tag_43:\n        /* \"#utility.yul\":1975:1982   */\n      0x00\n        /* \"#utility.yul\":2004:2009   */\n      dup2\n        /* \"#utility.yul\":1993:2009   */\n      swap1\n      pop\n        /* \"#utility.yul\":1938:2015   */\n      swap2\n      swap1\n      pop\n      jump\t// out\n        /* \"#utility.yul\":2144:2261   */\n    tag_33:\n        /* \"#utility.yul\":2253:2254   */\n      0x00\n        /* \"#utility.yul\":2250:2251   */\n      dup1\n        /* \"#utility.yul\":2243:2255   */\n      revert\n        /* \"#utility.yul\":2267:2405   */\n    tag_25:\n        /* \"#utility.yul\":2348:2380   */\n      tag_62\n        /* \"#utility.yul\":2374:2379   */\n      dup2\n        /* \"#utility.yul\":2348:2380   */\n      tag_53\n      jump\t// in\n    tag_62:\n        /* \"#utility.yul\":2341:2346   */\n      dup2\n        /* \"#utility.yul\":2338:2381   */\n      eq\n        /* \"#utility.yul\":2328:2399   */\n      tag_63\n      jumpi\n        /* \"#utility.yul\":2395:2396   */\n      0x00\n        /* \"#utility.yul\":2392:2393   */\n      dup1\n        /* \"#utility.yul\":2385:2397   */\n      revert\n        /* \"#utility.yul\":2328:2399   */\n    tag_63:\n        /* \"#utility.yul\":2267:2405   */\n      pop\n      jump\t// out\n        /* \"#utility.yul\":2411:2533   */\n    tag_29:\n        /* \"#utility.yul\":2484:2508   */\n      tag_65\n        /* \"#utility.yul\":2502:2507   */\n      dup2\n        /* \"#utility.yul\":2484:2508   */\n      tag_43\n      jump\t// in\n    tag_65:\n        /* \"#utility.yul\":2477:2482   */\n      dup2\n        /* \"#utility.yul\":2474:2509   */\n      eq\n        /* \"#utility.yul\":2464:2527   */\n      tag_66\n      jumpi\n        /* \"#utility.yul\":2523:2524   */\n      0x00\n        /* \"#utility.yul\":2520:2521   */\n      dup1\n        /* \"#utility.yul\":2513:2525   */\n      revert\n        /* \"#utility.yul\":2464:2527   */\n    tag_66:\n        /* \"#utility.yul\":2411:2533   */\n      pop\n      jump\t// out\n\n    auxdata: 0xa264697066735822122005fe83155b70c8738469c401a03f102521557d3b01b2f55bd6ab54e8cb14c6c264736f6c63430008070033\n}\n",
				"bytecode": {
					"linkReferences": {},
					"object": "608060405234801561001057600080fd5b50610288806100206000396000f3fe608060405234801561001057600080fd5b50600436106100415760003560e01c806362ab1a77146100465780639887f18014610064578063ee4ae2c914610082575b600080fd5b61004e61009e565b60405161005b919061019b565b60405180910390f35b61006c6100c2565b60405161007991906101b6565b60405180910390f35b61009c6004803603810190610097919061013d565b6100c8565b005b60008054906101000a900473ffffffffffffffffffffffffffffffffffffffff1681565b60015481565b8173ffffffffffffffffffffffffffffffffffffffff166108fc829081150290604051600060405180830381858888f1935050505015801561010e573d6000803e3d6000fd5b505050565b60008135905061012281610224565b92915050565b6000813590506101378161023b565b92915050565b600080604083850312156101545761015361021f565b5b600061016285828601610113565b925050602061017385828601610128565b9150509250929050565b610186816101d1565b82525050565b61019581610215565b82525050565b60006020820190506101b0600083018461017d565b92915050565b60006020820190506101cb600083018461018c565b92915050565b60006101dc826101f5565b9050919050565b60006101ee826101f5565b9050919050565b600073ffffffffffffffffffffffffffffffffffffffff82169050919050565b6000819050919050565b600080fd5b61022d816101e3565b811461023857600080fd5b50565b61024481610215565b811461024f57600080fd5b5056fea264697066735822122005fe83155b70c8738469c401a03f102521557d3b01b2f55bd6ab54e8cb14c6c264736f6c63430008070033",
					"opcodes": "PUSH1 0x80 PUSH1 0x40 MSTORE CALLVALUE DUP1 ISZERO PUSH2 0x10 JUMPI PUSH1 0x0 DUP1 REVERT JUMPDEST POP PUSH2 0x288 DUP1 PUSH2 0x20 PUSH1 0x0 CODECOPY PUSH1 0x0 RETURN INVALID PUSH1 0x80 PUSH1 0x40 MSTORE CALLVALUE DUP1 ISZERO PUSH2 0x10 JUMPI PUSH1 0x0 DUP1 REVERT JUMPDEST POP PUSH1 0x4 CALLDATASIZE LT PUSH2 0x41 JUMPI PUSH1 0x0 CALLDATALOAD PUSH1 0xE0 SHR DUP1 PUSH4 0x62AB1A77 EQ PUSH2 0x46 JUMPI DUP1 PUSH4 0x9887F180 EQ PUSH2 0x64 JUMPI DUP1 PUSH4 0xEE4AE2C9 EQ PUSH2 0x82 JUMPI JUMPDEST PUSH1 0x0 DUP1 REVERT JUMPDEST PUSH2 0x4E PUSH2 0x9E JUMP JUMPDEST PUSH1 0x40 MLOAD PUSH2 0x5B SWAP2 SWAP1 PUSH2 0x19B JUMP JUMPDEST PUSH1 0x40 MLOAD DUP1 SWAP2 SUB SWAP1 RETURN JUMPDEST PUSH2 0x6C PUSH2 0xC2 JUMP JUMPDEST PUSH1 0x40 MLOAD PUSH2 0x79 SWAP2 SWAP1 PUSH2 0x1B6 JUMP JUMPDEST PUSH1 0x40 MLOAD DUP1 SWAP2 SUB SWAP1 RETURN JUMPDEST PUSH2 0x9C PUSH1 0x4 DUP1 CALLDATASIZE SUB DUP2 ADD SWAP1 PUSH2 0x97 SWAP2 SWAP1 PUSH2 0x13D JUMP JUMPDEST PUSH2 0xC8 JUMP JUMPDEST STOP JUMPDEST PUSH1 0x0 DUP1 SLOAD SWAP1 PUSH2 0x100 EXP SWAP1 DIV PUSH20 0xFFFFFFFFFFFFFFFFFFFFFFFFFFFFFFFFFFFFFFFF AND DUP2 JUMP JUMPDEST PUSH1 0x1 SLOAD DUP2 JUMP JUMPDEST DUP2 PUSH20 0xFFFFFFFFFFFFFFFFFFFFFFFFFFFFFFFFFFFFFFFF AND PUSH2 0x8FC DUP3 SWAP1 DUP2 ISZERO MUL SWAP1 PUSH1 0x40 MLOAD PUSH1 0x0 PUSH1 0x40 MLOAD DUP1 DUP4 SUB DUP2 DUP6 DUP9 DUP9 CALL SWAP4 POP POP POP POP ISZERO DUP1 ISZERO PUSH2 0x10E JUMPI RETURNDATASIZE PUSH1 0x0 DUP1 RETURNDATACOPY RETURNDATASIZE PUSH1 0x0 REVERT JUMPDEST POP POP POP JUMP JUMPDEST PUSH1 0x0 DUP2 CALLDATALOAD SWAP1 POP PUSH2 0x122 DUP2 PUSH2 0x224 JUMP JUMPDEST SWAP3 SWAP2 POP POP JUMP JUMPDEST PUSH1 0x0 DUP2 CALLDATALOAD SWAP1 POP PUSH2 0x137 DUP2 PUSH2 0x23B JUMP JUMPDEST SWAP3 SWAP2 POP POP JUMP JUMPDEST PUSH1 0x0 DUP1 PUSH1 0x40 DUP4 DUP6 SUB SLT ISZERO PUSH2 0x154 JUMPI PUSH2 0x153 PUSH2 0x21F JUMP JUMPDEST JUMPDEST PUSH1 0x0 PUSH2 0x162 DUP6 DUP3 DUP7 ADD PUSH2 0x113 JUMP JUMPDEST SWAP3 POP POP PUSH1 0x20 PUSH2 0x173 DUP6 DUP3 DUP7 ADD PUSH2 0x128 JUMP JUMPDEST SWAP2 POP POP SWAP3 POP SWAP3 SWAP1 POP JUMP JUMPDEST PUSH2 0x186 DUP2 PUSH2 0x1D1 JUMP JUMPDEST DUP3 MSTORE POP POP JUMP JUMPDEST PUSH2 0x195 DUP2 PUSH2 0x215 JUMP JUMPDEST DUP3 MSTORE POP POP JUMP JUMPDEST PUSH1 0x0 PUSH1 0x20 DUP3 ADD SWAP1 POP PUSH2 0x1B0 PUSH1 0x0 DUP4 ADD DUP5 PUSH2 0x17D JUMP JUMPDEST SWAP3 SWAP2 POP POP JUMP JUMPDEST PUSH1 0x0 PUSH1 0x20 DUP3 ADD SWAP1 POP PUSH2 0x1CB PUSH1 0x0 DUP4 ADD DUP5 PUSH2 0x18C JUMP JUMPDEST SWAP3 SWAP2 POP POP JUMP JUMPDEST PUSH1 0x0 PUSH2 0x1DC DUP3 PUSH2 0x1F5 JUMP JUMPDEST SWAP1 POP SWAP2 SWAP1 POP JUMP JUMPDEST PUSH1 0x0 PUSH2 0x1EE DUP3 PUSH2 0x1F5 JUMP JUMPDEST SWAP1 POP SWAP2 SWAP1 POP JUMP JUMPDEST PUSH1 0x0 PUSH20 0xFFFFFFFFFFFFFFFFFFFFFFFFFFFFFFFFFFFFFFFF DUP3 AND SWAP1 POP SWAP2 SWAP1 POP JUMP JUMPDEST PUSH1 0x0 DUP2 SWAP1 POP SWAP2 SWAP1 POP JUMP JUMPDEST PUSH1 0x0 DUP1 REVERT JUMPDEST PUSH2 0x22D DUP2 PUSH2 0x1E3 JUMP JUMPDEST DUP2 EQ PUSH2 0x238 JUMPI PUSH1 0x0 DUP1 REVERT JUMPDEST POP JUMP JUMPDEST PUSH2 0x244 DUP2 PUSH2 0x215 JUMP JUMPDEST DUP2 EQ PUSH2 0x24F JUMPI PUSH1 0x0 DUP1 REVERT JUMPDEST POP JUMP INVALID LOG2 PUSH5 0x6970667358 0x22 SLT KECCAK256 SDIV INVALID DUP4 ISZERO JUMPDEST PUSH17 0xC8738469C401A03F102521557D3B01B2F5 JUMPDEST 0xD6 0xAB SLOAD 0xE8 0xCB EQ 0xC6 0xC2 PUSH5 0x736F6C6343 STOP ADDMOD SMOD STOP CALLER "
				},
				"gasEstimates": {
					"creation": {
						"codeDepositCost": "129600",
						"executionCost": "177",
						"totalCost": "129777"
					},
					"external": {
						"_addr()": "2489",
						"_amount()": "2429",
						"sendMoney(address,uint256)": "infinite"
					}
				},
				"methodIdentifiers": {
					"_addr()": "62ab1a77",
					"_amount()": "9887f180",
					"sendMoney(address,uint256)": "ee4ae2c9"
				}
			},
			"storageLayout": {
				"storage": [
					{
						"astId": 3,
						"contract": "contracts/sol.sol:First",
						"label": "_addr",
						"offset": 0,
						"slot": "0",
						"type": "t_address"
					},
					{
						"astId": 5,
						"contract": "contracts/sol.sol:First",
						"label": "_amount",
						"offset": 0,
						"slot": "1",
						"type": "t_uint256"
					}
				],
				"types": {
					"t_address": {
						"encoding": "inplace",
						"label": "address",
						"numberOfBytes": "20"
					},
					"t_uint256": {
						"encoding": "inplace",
						"label": "uint256",
						"numberOfBytes": "32"
					}
				}
			},
			"userdoc": {
				"kind": "user",
				"methods": {},
				"version": 1
			}
		}
	}
}