{
	"contracts/Fuck.sol": {
		"MyContract": {
			"abi": [
				{
					"inputs": [
						{
							"internalType": "uint256",
							"name": "x",
							"type": "uint256"
						}
					],
					"name": "factorial",
					"outputs": [
						{
							"internalType": "uint256",
							"name": "y",
							"type": "uint256"
						}
					],
					"stateMutability": "pure",
					"type": "function"
				}
			],
			"devdoc": {
				"kind": "dev",
				"methods": {},
				"version": 1
			},
			"evm": {
				"assembly": "    /* \"contracts/Fuck.sol\":61:232  contract MyContract {... */\n  mstore(0x40, 0x80)\n  callvalue\n  dup1\n  iszero\n  tag_1\n  jumpi\n  0x00\n  dup1\n  revert\ntag_1:\n  pop\n  dataSize(sub_0)\n  dup1\n  dataOffset(sub_0)\n  0x00\n  codecopy\n  0x00\n  return\nstop\n\nsub_0: assembly {\n        /* \"contracts/Fuck.sol\":61:232  contract MyContract {... */\n      mstore(0x40, 0x80)\n      callvalue\n      dup1\n      iszero\n      tag_1\n      jumpi\n      0x00\n      dup1\n      revert\n    tag_1:\n      pop\n      jumpi(tag_2, lt(calldatasize, 0x04))\n      shr(0xe0, calldataload(0x00))\n      dup1\n      0x83714834\n      eq\n      tag_3\n      jumpi\n    tag_2:\n      0x00\n      dup1\n      revert\n        /* \"contracts/Fuck.sol\":85:230  function factorial(uint x) public pure returns (uint y) {... */\n    tag_3:\n      tag_4\n      0x04\n      dup1\n      calldatasize\n      sub\n      dup2\n      add\n      swap1\n      tag_5\n      swap2\n      swap1\n      tag_6\n      jump\t// in\n    tag_5:\n      tag_7\n      jump\t// in\n    tag_4:\n      mload(0x40)\n      tag_8\n      swap2\n      swap1\n      tag_9\n      jump\t// in\n    tag_8:\n      mload(0x40)\n      dup1\n      swap2\n      sub\n      swap1\n      return\n    tag_7:\n        /* \"contracts/Fuck.sol\":133:139  uint y */\n      0x00\n        /* \"contracts/Fuck.sol\":151:152  1 */\n      0x01\n        /* \"contracts/Fuck.sol\":147:152  y = 1 */\n      swap1\n      pop\n        /* \"contracts/Fuck.sol\":163:169  uint i */\n      0x00\n        /* \"contracts/Fuck.sol\":172:173  1 */\n      0x01\n        /* \"contracts/Fuck.sol\":163:173  uint i = 1 */\n      swap1\n      pop\n        /* \"contracts/Fuck.sol\":158:212  for (uint i = 1; i <= x; i++) {... */\n    tag_11:\n        /* \"contracts/Fuck.sol\":180:181  x */\n      dup3\n        /* \"contracts/Fuck.sol\":175:176  i */\n      dup2\n        /* \"contracts/Fuck.sol\":175:181  i <= x */\n      gt\n        /* \"contracts/Fuck.sol\":158:212  for (uint i = 1; i <= x; i++) {... */\n      tag_12\n      jumpi\n        /* \"contracts/Fuck.sol\":204:205  y */\n      dup2\n        /* \"contracts/Fuck.sol\":200:201  i */\n      dup2\n        /* \"contracts/Fuck.sol\":200:205  i * y */\n      tag_14\n      swap2\n      swap1\n      tag_15\n      jump\t// in\n    tag_14:\n        /* \"contracts/Fuck.sol\":196:205  y = i * y */\n      swap2\n      pop\n        /* \"contracts/Fuck.sol\":183:186  i++ */\n      dup1\n      dup1\n      tag_16\n      swap1\n      tag_17\n      jump\t// in\n    tag_16:\n      swap2\n      pop\n      pop\n        /* \"contracts/Fuck.sol\":158:212  for (uint i = 1; i <= x; i++) {... */\n      jump(tag_11)\n    tag_12:\n      pop\n        /* \"contracts/Fuck.sol\":85:230  function factorial(uint x) public pure returns (uint y) {... */\n      swap2\n      swap1\n      pop\n      jump\t// out\n        /* \"#utility.yul\":7:146   */\n    tag_19:\n        /* \"#utility.yul\":53:58   */\n      0x00\n        /* \"#utility.yul\":91:97   */\n      dup2\n        /* \"#utility.yul\":78:98   */\n      calldataload\n        /* \"#utility.yul\":69:98   */\n      swap1\n      pop\n        /* \"#utility.yul\":107:140   */\n      tag_21\n        /* \"#utility.yul\":134:139   */\n      dup2\n        /* \"#utility.yul\":107:140   */\n      tag_22\n      jump\t// in\n    tag_21:\n        /* \"#utility.yul\":7:146   */\n      swap3\n      swap2\n      pop\n      pop\n      jump\t// out\n        /* \"#utility.yul\":152:481   */\n    tag_6:\n        /* \"#utility.yul\":211:217   */\n      0x00\n        /* \"#utility.yul\":260:262   */\n      0x20\n        /* \"#utility.yul\":248:257   */\n      dup3\n        /* \"#utility.yul\":239:246   */\n      dup5\n        /* \"#utility.yul\":235:258   */\n      sub\n        /* \"#utility.yul\":231:263   */\n      slt\n        /* \"#utility.yul\":228:347   */\n      iszero\n      tag_24\n      jumpi\n        /* \"#utility.yul\":266:345   */\n      tag_25\n      tag_26\n      jump\t// in\n    tag_25:\n        /* \"#utility.yul\":228:347   */\n    tag_24:\n        /* \"#utility.yul\":386:387   */\n      0x00\n        /* \"#utility.yul\":411:464   */\n      tag_27\n        /* \"#utility.yul\":456:463   */\n      dup5\n        /* \"#utility.yul\":447:453   */\n      dup3\n        /* \"#utility.yul\":436:445   */\n      dup6\n        /* \"#utility.yul\":432:454   */\n      add\n        /* \"#utility.yul\":411:464   */\n      tag_19\n      jump\t// in\n    tag_27:\n        /* \"#utility.yul\":401:464   */\n      swap2\n      pop\n        /* \"#utility.yul\":357:474   */\n      pop\n        /* \"#utility.yul\":152:481   */\n      swap3\n      swap2\n      pop\n      pop\n      jump\t// out\n        /* \"#utility.yul\":487:605   */\n    tag_28:\n        /* \"#utility.yul\":574:598   */\n      tag_30\n        /* \"#utility.yul\":592:597   */\n      dup2\n        /* \"#utility.yul\":574:598   */\n      tag_31\n      jump\t// in\n    tag_30:\n        /* \"#utility.yul\":569:572   */\n      dup3\n        /* \"#utility.yul\":562:599   */\n      mstore\n        /* \"#utility.yul\":487:605   */\n      pop\n      pop\n      jump\t// out\n        /* \"#utility.yul\":611:833   */\n    tag_9:\n        /* \"#utility.yul\":704:708   */\n      0x00\n        /* \"#utility.yul\":742:744   */\n      0x20\n        /* \"#utility.yul\":731:740   */\n      dup3\n        /* \"#utility.yul\":727:745   */\n      add\n        /* \"#utility.yul\":719:745   */\n      swap1\n      pop\n        /* \"#utility.yul\":755:826   */\n      tag_33\n        /* \"#utility.yul\":823:824   */\n      0x00\n        /* \"#utility.yul\":812:821   */\n      dup4\n        /* \"#utility.yul\":808:825   */\n      add\n        /* \"#utility.yul\":799:805   */\n      dup5\n        /* \"#utility.yul\":755:826   */\n      tag_28\n      jump\t// in\n    tag_33:\n        /* \"#utility.yul\":611:833   */\n      swap3\n      swap2\n      pop\n      pop\n      jump\t// out\n        /* \"#utility.yul\":920:1268   */\n    tag_15:\n        /* \"#utility.yul\":960:967   */\n      0x00\n        /* \"#utility.yul\":983:1003   */\n      tag_37\n        /* \"#utility.yul\":1001:1002   */\n      dup3\n        /* \"#utility.yul\":983:1003   */\n      tag_31\n      jump\t// in\n    tag_37:\n        /* \"#utility.yul\":978:1003   */\n      swap2\n      pop\n        /* \"#utility.yul\":1017:1037   */\n      tag_38\n        /* \"#utility.yul\":1035:1036   */\n      dup4\n        /* \"#utility.yul\":1017:1037   */\n      tag_31\n      jump\t// in\n    tag_38:\n        /* \"#utility.yul\":1012:1037   */\n      swap3\n      pop\n        /* \"#utility.yul\":1205:1206   */\n      dup2\n        /* \"#utility.yul\":1137:1203   */\n      0xffffffffffffffffffffffffffffffffffffffffffffffffffffffffffffffff\n        /* \"#utility.yul\":1133:1207   */\n      div\n        /* \"#utility.yul\":1130:1131   */\n      dup4\n        /* \"#utility.yul\":1127:1208   */\n      gt\n        /* \"#utility.yul\":1122:1123   */\n      dup3\n        /* \"#utility.yul\":1115:1124   */\n      iszero\n        /* \"#utility.yul\":1108:1125   */\n      iszero\n        /* \"#utility.yul\":1104:1209   */\n      and\n        /* \"#utility.yul\":1101:1232   */\n      iszero\n      tag_39\n      jumpi\n        /* \"#utility.yul\":1212:1230   */\n      tag_40\n      tag_41\n      jump\t// in\n    tag_40:\n        /* \"#utility.yul\":1101:1232   */\n    tag_39:\n        /* \"#utility.yul\":1260:1261   */\n      dup3\n        /* \"#utility.yul\":1257:1258   */\n      dup3\n        /* \"#utility.yul\":1253:1262   */\n      mul\n        /* \"#utility.yul\":1242:1262   */\n      swap1\n      pop\n        /* \"#utility.yul\":920:1268   */\n      swap3\n      swap2\n      pop\n      pop\n      jump\t// out\n        /* \"#utility.yul\":1274:1351   */\n    tag_31:\n        /* \"#utility.yul\":1311:1318   */\n      0x00\n        /* \"#utility.yul\":1340:1345   */\n      dup2\n        /* \"#utility.yul\":1329:1345   */\n      swap1\n      pop\n        /* \"#utility.yul\":1274:1351   */\n      swap2\n      swap1\n      pop\n      jump\t// out\n        /* \"#utility.yul\":1357:1590   */\n    tag_17:\n        /* \"#utility.yul\":1396:1399   */\n      0x00\n        /* \"#utility.yul\":1419:1443   */\n      tag_44\n        /* \"#utility.yul\":1437:1442   */\n      dup3\n        /* \"#utility.yul\":1419:1443   */\n      tag_31\n      jump\t// in\n    tag_44:\n        /* \"#utility.yul\":1410:1443   */\n      swap2\n      pop\n        /* \"#utility.yul\":1465:1531   */\n      0xffffffffffffffffffffffffffffffffffffffffffffffffffffffffffffffff\n        /* \"#utility.yul\":1458:1463   */\n      dup3\n        /* \"#utility.yul\":1455:1532   */\n      eq\n        /* \"#utility.yul\":1452:1555   */\n      iszero\n      tag_45\n      jumpi\n        /* \"#utility.yul\":1535:1553   */\n      tag_46\n      tag_41\n      jump\t// in\n    tag_46:\n        /* \"#utility.yul\":1452:1555   */\n    tag_45:\n        /* \"#utility.yul\":1582:1583   */\n      0x01\n        /* \"#utility.yul\":1575:1580   */\n      dup3\n        /* \"#utility.yul\":1571:1584   */\n      add\n        /* \"#utility.yul\":1564:1584   */\n      swap1\n      pop\n        /* \"#utility.yul\":1357:1590   */\n      swap2\n      swap1\n      pop\n      jump\t// out\n        /* \"#utility.yul\":1596:1776   */\n    tag_41:\n        /* \"#utility.yul\":1644:1721   */\n      0x4e487b7100000000000000000000000000000000000000000000000000000000\n        /* \"#utility.yul\":1641:1642   */\n      0x00\n        /* \"#utility.yul\":1634:1722   */\n      mstore\n        /* \"#utility.yul\":1741:1745   */\n      0x11\n        /* \"#utility.yul\":1738:1739   */\n      0x04\n        /* \"#utility.yul\":1731:1746   */\n      mstore\n        /* \"#utility.yul\":1765:1769   */\n      0x24\n        /* \"#utility.yul\":1762:1763   */\n      0x00\n        /* \"#utility.yul\":1755:1770   */\n      revert\n        /* \"#utility.yul\":1905:2022   */\n    tag_26:\n        /* \"#utility.yul\":2014:2015   */\n      0x00\n        /* \"#utility.yul\":2011:2012   */\n      dup1\n        /* \"#utility.yul\":2004:2016   */\n      revert\n        /* \"#utility.yul\":2028:2150   */\n    tag_22:\n        /* \"#utility.yul\":2101:2125   */\n      tag_52\n        /* \"#utility.yul\":2119:2124   */\n      dup2\n        /* \"#utility.yul\":2101:2125   */\n      tag_31\n      jump\t// in\n    tag_52:\n        /* \"#utility.yul\":2094:2099   */\n      dup2\n        /* \"#utility.yul\":2091:2126   */\n      eq\n        /* \"#utility.yul\":2081:2144   */\n      tag_53\n      jumpi\n        /* \"#utility.yul\":2140:2141   */\n      0x00\n        /* \"#utility.yul\":2137:2138   */\n      dup1\n        /* \"#utility.yul\":2130:2142   */\n      revert\n        /* \"#utility.yul\":2081:2144   */\n    tag_53:\n        /* \"#utility.yul\":2028:2150   */\n      pop\n      jump\t// out\n\n    auxdata: 0xa2646970667358221220a16fa1c52b49d2438bc9791df1d15d1da2fdc3c166ad7b623def0485edf4b07a64736f6c63430008070033\n}\n",
				"bytecode": {
					"linkReferences": {},
					"object": "608060405234801561001057600080fd5b50610235806100206000396000f3fe608060405234801561001057600080fd5b506004361061002b5760003560e01c80638371483414610030575b600080fd5b61004a600480360381019061004591906100b0565b610060565b60405161005791906100ec565b60405180910390f35b6000600190506000600190505b8281116100955781816100809190610107565b9150808061008d9061016b565b91505061006d565b50919050565b6000813590506100aa816101e8565b92915050565b6000602082840312156100c6576100c56101e3565b5b60006100d48482850161009b565b91505092915050565b6100e681610161565b82525050565b600060208201905061010160008301846100dd565b92915050565b600061011282610161565b915061011d83610161565b9250817fffffffffffffffffffffffffffffffffffffffffffffffffffffffffffffffff0483118215151615610156576101556101b4565b5b828202905092915050565b6000819050919050565b600061017682610161565b91507fffffffffffffffffffffffffffffffffffffffffffffffffffffffffffffffff8214156101a9576101a86101b4565b5b600182019050919050565b7f4e487b7100000000000000000000000000000000000000000000000000000000600052601160045260246000fd5b600080fd5b6101f181610161565b81146101fc57600080fd5b5056fea2646970667358221220a16fa1c52b49d2438bc9791df1d15d1da2fdc3c166ad7b623def0485edf4b07a64736f6c63430008070033",
					"opcodes": "PUSH1 0x80 PUSH1 0x40 MSTORE CALLVALUE DUP1 ISZERO PUSH2 0x10 JUMPI PUSH1 0x0 DUP1 REVERT JUMPDEST POP PUSH2 0x235 DUP1 PUSH2 0x20 PUSH1 0x0 CODECOPY PUSH1 0x0 RETURN INVALID PUSH1 0x80 PUSH1 0x40 MSTORE CALLVALUE DUP1 ISZERO PUSH2 0x10 JUMPI PUSH1 0x0 DUP1 REVERT JUMPDEST POP PUSH1 0x4 CALLDATASIZE LT PUSH2 0x2B JUMPI PUSH1 0x0 CALLDATALOAD PUSH1 0xE0 SHR DUP1 PUSH4 0x83714834 EQ PUSH2 0x30 JUMPI JUMPDEST PUSH1 0x0 DUP1 REVERT JUMPDEST PUSH2 0x4A PUSH1 0x4 DUP1 CALLDATASIZE SUB DUP2 ADD SWAP1 PUSH2 0x45 SWAP2 SWAP1 PUSH2 0xB0 JUMP JUMPDEST PUSH2 0x60 JUMP JUMPDEST PUSH1 0x40 MLOAD PUSH2 0x57 SWAP2 SWAP1 PUSH2 0xEC JUMP JUMPDEST PUSH1 0x40 MLOAD DUP1 SWAP2 SUB SWAP1 RETURN JUMPDEST PUSH1 0x0 PUSH1 0x1 SWAP1 POP PUSH1 0x0 PUSH1 0x1 SWAP1 POP JUMPDEST DUP3 DUP2 GT PUSH2 0x95 JUMPI DUP2 DUP2 PUSH2 0x80 SWAP2 SWAP1 PUSH2 0x107 JUMP JUMPDEST SWAP2 POP DUP1 DUP1 PUSH2 0x8D SWAP1 PUSH2 0x16B JUMP JUMPDEST SWAP2 POP POP PUSH2 0x6D JUMP JUMPDEST POP SWAP2 SWAP1 POP JUMP JUMPDEST PUSH1 0x0 DUP2 CALLDATALOAD SWAP1 POP PUSH2 0xAA DUP2 PUSH2 0x1E8 JUMP JUMPDEST SWAP3 SWAP2 POP POP JUMP JUMPDEST PUSH1 0x0 PUSH1 0x20 DUP3 DUP5 SUB SLT ISZERO PUSH2 0xC6 JUMPI PUSH2 0xC5 PUSH2 0x1E3 JUMP JUMPDEST JUMPDEST PUSH1 0x0 PUSH2 0xD4 DUP5 DUP3 DUP6 ADD PUSH2 0x9B JUMP JUMPDEST SWAP2 POP POP SWAP3 SWAP2 POP POP JUMP JUMPDEST PUSH2 0xE6 DUP2 PUSH2 0x161 JUMP JUMPDEST DUP3 MSTORE POP POP JUMP JUMPDEST PUSH1 0x0 PUSH1 0x20 DUP3 ADD SWAP1 POP PUSH2 0x101 PUSH1 0x0 DUP4 ADD DUP5 PUSH2 0xDD JUMP JUMPDEST SWAP3 SWAP2 POP POP JUMP JUMPDEST PUSH1 0x0 PUSH2 0x112 DUP3 PUSH2 0x161 JUMP JUMPDEST SWAP2 POP PUSH2 0x11D DUP4 PUSH2 0x161 JUMP JUMPDEST SWAP3 POP DUP2 PUSH32 0xFFFFFFFFFFFFFFFFFFFFFFFFFFFFFFFFFFFFFFFFFFFFFFFFFFFFFFFFFFFFFFFF DIV DUP4 GT DUP3 ISZERO ISZERO AND ISZERO PUSH2 0x156 JUMPI PUSH2 0x155 PUSH2 0x1B4 JUMP JUMPDEST JUMPDEST DUP3 DUP3 MUL SWAP1 POP SWAP3 SWAP2 POP POP JUMP JUMPDEST PUSH1 0x0 DUP2 SWAP1 POP SWAP2 SWAP1 POP JUMP JUMPDEST PUSH1 0x0 PUSH2 0x176 DUP3 PUSH2 0x161 JUMP JUMPDEST SWAP2 POP PUSH32 0xFFFFFFFFFFFFFFFFFFFFFFFFFFFFFFFFFFFFFFFFFFFFFFFFFFFFFFFFFFFFFFFF DUP3 EQ ISZERO PUSH2 0x1A9 JUMPI PUSH2 0x1A8 PUSH2 0x1B4 JUMP JUMPDEST JUMPDEST PUSH1 0x1 DUP3 ADD SWAP1 POP SWAP2 SWAP1 POP JUMP JUMPDEST PUSH32 0x4E487B7100000000000000000000000000000000000000000000000000000000 PUSH1 0x0 MSTORE PUSH1 0x11 PUSH1 0x4 MSTORE PUSH1 0x24 PUSH1 0x0 REVERT JUMPDEST PUSH1 0x0 DUP1 REVERT JUMPDEST PUSH2 0x1F1 DUP2 PUSH2 0x161 JUMP JUMPDEST DUP2 EQ PUSH2 0x1FC JUMPI PUSH1 0x0 DUP1 REVERT JUMPDEST POP JUMP INVALID LOG2 PUSH5 0x6970667358 0x22 SLT KECCAK256 LOG1 PUSH16 0xA1C52B49D2438BC9791DF1D15D1DA2FD 0xC3 0xC1 PUSH7 0xAD7B623DEF0485 0xED DELEGATECALL 0xB0 PUSH27 0x64736F6C6343000807003300000000000000000000000000000000 "
				},
				"gasEstimates": {
					"creation": {
						"codeDepositCost": "113000",
						"executionCost": "159",
						"totalCost": "113159"
					},
					"external": {
						"factorial(uint256)": "infinite"
					}
				},
				"methodIdentifiers": {
					"factorial(uint256)": "83714834"
				}
			},
			"storageLayout": {
				"storage": [],
				"types": null
			},
			"userdoc": {
				"kind": "user",
				"methods": {},
				"version": 1
			}
		}
	}
}