{
	"contracts/SmallStruct.sol": {
		"MyContract": {
			"abi": [
				{
					"inputs": [
						{
							"internalType": "string",
							"name": "_name",
							"type": "string"
						},
						{
							"internalType": "bool",
							"name": "_invited",
							"type": "bool"
						}
					],
					"name": "addFriend",
					"outputs": [],
					"stateMutability": "nonpayable",
					"type": "function"
				},
				{
					"inputs": [
						{
							"internalType": "uint256",
							"name": "",
							"type": "uint256"
						}
					],
					"name": "friendList",
					"outputs": [
						{
							"internalType": "string",
							"name": "name",
							"type": "string"
						},
						{
							"internalType": "bool",
							"name": "invited",
							"type": "bool"
						}
					],
					"stateMutability": "view",
					"type": "function"
				},
				{
					"inputs": [
						{
							"internalType": "uint256",
							"name": "",
							"type": "uint256"
						}
					],
					"name": "guestList",
					"outputs": [
						{
							"internalType": "string",
							"name": "name",
							"type": "string"
						},
						{
							"internalType": "bool",
							"name": "invited",
							"type": "bool"
						}
					],
					"stateMutability": "view",
					"type": "function"
				},
				{
					"inputs": [],
					"name": "whoWillCome",
					"outputs": [],
					"stateMutability": "nonpayable",
					"type": "function"
				}
			],
			"devdoc": {
				"kind": "dev",
				"methods": {},
				"version": 1
			},
			"evm": {
				"assembly": "    /* \"contracts/SmallStruct.sol\":61:567  contract MyContract {... */\n  mstore(0x40, 0x80)\n  callvalue\n  dup1\n  iszero\n  tag_1\n  jumpi\n  0x00\n  dup1\n  revert\ntag_1:\n  pop\n  dataSize(sub_0)\n  dup1\n  dataOffset(sub_0)\n  0x00\n  codecopy\n  0x00\n  return\nstop\n\nsub_0: assembly {\n        /* \"contracts/SmallStruct.sol\":61:567  contract MyContract {... */\n      mstore(0x40, 0x80)\n      callvalue\n      dup1\n      iszero\n      tag_1\n      jumpi\n      0x00\n      dup1\n      revert\n    tag_1:\n      pop\n      jumpi(tag_2, lt(calldatasize, 0x04))\n      shr(0xe0, calldataload(0x00))\n      dup1\n      0x21668a01\n      eq\n      tag_3\n      jumpi\n      dup1\n      0x552b71c3\n      eq\n      tag_4\n      jumpi\n      dup1\n      0x756030b9\n      eq\n      tag_5\n      jumpi\n      dup1\n      0xf5fccd8f\n      eq\n      tag_6\n      jumpi\n    tag_2:\n      0x00\n      dup1\n      revert\n        /* \"contracts/SmallStruct.sol\":160:188  Friends [] public friendList */\n    tag_3:\n      tag_7\n      0x04\n      dup1\n      calldatasize\n      sub\n      dup2\n      add\n      swap1\n      tag_8\n      swap2\n      swap1\n      tag_9\n      jump\t// in\n    tag_8:\n      tag_10\n      jump\t// in\n    tag_7:\n      mload(0x40)\n      tag_11\n      swap3\n      swap2\n      swap1\n      tag_12\n      jump\t// in\n    tag_11:\n      mload(0x40)\n      dup1\n      swap2\n      sub\n      swap1\n      return\n        /* \"contracts/SmallStruct.sol\":362:565  function whoWillCome() public {... */\n    tag_4:\n      tag_13\n      tag_14\n      jump\t// in\n    tag_13:\n      stop\n        /* \"contracts/SmallStruct.sol\":224:355  function addFriend(string memory _name, bool _invited) public {... */\n    tag_5:\n      tag_15\n      0x04\n      dup1\n      calldatasize\n      sub\n      dup2\n      add\n      swap1\n      tag_16\n      swap2\n      swap1\n      tag_17\n      jump\t// in\n    tag_16:\n      tag_18\n      jump\t// in\n    tag_15:\n      stop\n        /* \"contracts/SmallStruct.sol\":192:219  Friends [] public guestList */\n    tag_6:\n      tag_19\n      0x04\n      dup1\n      calldatasize\n      sub\n      dup2\n      add\n      swap1\n      tag_20\n      swap2\n      swap1\n      tag_9\n      jump\t// in\n    tag_20:\n      tag_21\n      jump\t// in\n    tag_19:\n      mload(0x40)\n      tag_22\n      swap3\n      swap2\n      swap1\n      tag_12\n      jump\t// in\n    tag_22:\n      mload(0x40)\n      dup1\n      swap2\n      sub\n      swap1\n      return\n        /* \"contracts/SmallStruct.sol\":160:188  Friends [] public friendList */\n    tag_10:\n      0x00\n      dup2\n      dup2\n      sload\n      dup2\n      lt\n      tag_23\n      jumpi\n      0x00\n      dup1\n      revert\n    tag_23:\n      swap1\n      0x00\n      mstore\n      keccak256(0x00, 0x20)\n      swap1\n      0x02\n      mul\n      add\n      0x00\n      swap2\n      pop\n      swap1\n      pop\n      dup1\n      0x00\n      add\n      dup1\n      sload\n      tag_25\n      swap1\n      tag_26\n      jump\t// in\n    tag_25:\n      dup1\n      0x1f\n      add\n      0x20\n      dup1\n      swap2\n      div\n      mul\n      0x20\n      add\n      mload(0x40)\n      swap1\n      dup2\n      add\n      0x40\n      mstore\n      dup1\n      swap3\n      swap2\n      swap1\n      dup2\n      dup2\n      mstore\n      0x20\n      add\n      dup3\n      dup1\n      sload\n      tag_27\n      swap1\n      tag_26\n      jump\t// in\n    tag_27:\n      dup1\n      iszero\n      tag_28\n      jumpi\n      dup1\n      0x1f\n      lt\n      tag_29\n      jumpi\n      0x0100\n      dup1\n      dup4\n      sload\n      div\n      mul\n      dup4\n      mstore\n      swap2\n      0x20\n      add\n      swap2\n      jump(tag_28)\n    tag_29:\n      dup3\n      add\n      swap2\n      swap1\n      0x00\n      mstore\n      keccak256(0x00, 0x20)\n      swap1\n    tag_30:\n      dup2\n      sload\n      dup2\n      mstore\n      swap1\n      0x01\n      add\n      swap1\n      0x20\n      add\n      dup1\n      dup4\n      gt\n      tag_30\n      jumpi\n      dup3\n      swap1\n      sub\n      0x1f\n      and\n      dup3\n      add\n      swap2\n    tag_28:\n      pop\n      pop\n      pop\n      pop\n      pop\n      swap1\n      dup1\n      0x01\n      add\n      0x00\n      swap1\n      sload\n      swap1\n      0x0100\n      exp\n      swap1\n      div\n      0xff\n      and\n      swap1\n      pop\n      dup3\n      jump\t// out\n        /* \"contracts/SmallStruct.sol\":362:565  function whoWillCome() public {... */\n    tag_14:\n        /* \"contracts/SmallStruct.sol\":406:412  uint i */\n      0x00\n        /* \"contracts/SmallStruct.sol\":402:559  for(uint i = 0; i < friendList.length; i++) {... */\n    tag_32:\n        /* \"contracts/SmallStruct.sol\":422:432  friendList */\n      0x00\n        /* \"contracts/SmallStruct.sol\":422:439  friendList.length */\n      dup1\n      sload\n      swap1\n      pop\n        /* \"contracts/SmallStruct.sol\":418:419  i */\n      dup2\n        /* \"contracts/SmallStruct.sol\":418:439  i < friendList.length */\n      lt\n        /* \"contracts/SmallStruct.sol\":402:559  for(uint i = 0; i < friendList.length; i++) {... */\n      iszero\n      tag_33\n      jumpi\n        /* \"contracts/SmallStruct.sol\":464:474  friendList */\n      0x00\n        /* \"contracts/SmallStruct.sol\":475:476  i */\n      dup2\n        /* \"contracts/SmallStruct.sol\":464:477  friendList[i] */\n      dup2\n      sload\n      dup2\n      lt\n      tag_35\n      jumpi\n      tag_36\n      tag_37\n      jump\t// in\n    tag_36:\n    tag_35:\n      swap1\n      0x00\n      mstore\n      keccak256(0x00, 0x20)\n      swap1\n      0x02\n      mul\n      add\n        /* \"contracts/SmallStruct.sol\":464:485  friendList[i].invited */\n      0x01\n      add\n      0x00\n      swap1\n      sload\n      swap1\n      0x0100\n      exp\n      swap1\n      div\n      0xff\n      and\n        /* \"contracts/SmallStruct.sol\":460:549  if (friendList[i].invited) {... */\n      iszero\n      tag_39\n      jumpi\n        /* \"contracts/SmallStruct.sol\":505:514  guestList */\n      0x01\n        /* \"contracts/SmallStruct.sol\":520:530  friendList */\n      0x00\n        /* \"contracts/SmallStruct.sol\":531:532  i */\n      dup3\n        /* \"contracts/SmallStruct.sol\":520:533  friendList[i] */\n      dup2\n      sload\n      dup2\n      lt\n      tag_40\n      jumpi\n      tag_41\n      tag_37\n      jump\t// in\n    tag_41:\n    tag_40:\n      swap1\n      0x00\n      mstore\n      keccak256(0x00, 0x20)\n      swap1\n      0x02\n      mul\n      add\n        /* \"contracts/SmallStruct.sol\":505:534  guestList.push(friendList[i]) */\n      swap1\n      dup1\n      0x01\n      dup2\n      sload\n      add\n      dup1\n      dup3\n      sstore\n      dup1\n      swap2\n      pop\n      pop\n      0x01\n      swap1\n      sub\n      swap1\n      0x00\n      mstore\n      keccak256(0x00, 0x20)\n      swap1\n      0x02\n      mul\n      add\n      0x00\n      swap1\n      swap2\n      swap1\n      swap2\n      swap1\n      swap2\n      pop\n      0x00\n      dup3\n      add\n      dup2\n      0x00\n      add\n      swap1\n      dup1\n      sload\n      tag_44\n      swap1\n      tag_26\n      jump\t// in\n    tag_44:\n      tag_45\n      swap3\n      swap2\n      swap1\n      tag_46\n      jump\t// in\n    tag_45:\n      pop\n      0x01\n      dup3\n      add\n      0x00\n      swap1\n      sload\n      swap1\n      0x0100\n      exp\n      swap1\n      div\n      0xff\n      and\n      dup2\n      0x01\n      add\n      exp(0x0100, 0x00)\n      dup2\n      sload\n      dup2\n      0xff\n      mul\n      not\n      and\n      swap1\n      dup4\n      iszero\n      iszero\n      mul\n      or\n      swap1\n      sstore\n      pop\n      pop\n      pop\n        /* \"contracts/SmallStruct.sol\":460:549  if (friendList[i].invited) {... */\n    tag_39:\n        /* \"contracts/SmallStruct.sol\":441:444  i++ */\n      dup1\n      dup1\n      tag_47\n      swap1\n      tag_48\n      jump\t// in\n    tag_47:\n      swap2\n      pop\n      pop\n        /* \"contracts/SmallStruct.sol\":402:559  for(uint i = 0; i < friendList.length; i++) {... */\n      jump(tag_32)\n    tag_33:\n      pop\n        /* \"contracts/SmallStruct.sol\":362:565  function whoWillCome() public {... */\n      jump\t// out\n        /* \"contracts/SmallStruct.sol\":224:355  function addFriend(string memory _name, bool _invited) public {... */\n    tag_18:\n        /* \"contracts/SmallStruct.sol\":292:302  friendList */\n      0x00\n        /* \"contracts/SmallStruct.sol\":308:349  Friends({name: _name, invited: _invited}) */\n      mload(0x40)\n      dup1\n      0x40\n      add\n      0x40\n      mstore\n      dup1\n        /* \"contracts/SmallStruct.sol\":323:328  _name */\n      dup5\n        /* \"contracts/SmallStruct.sol\":308:349  Friends({name: _name, invited: _invited}) */\n      dup2\n      mstore\n      0x20\n      add\n        /* \"contracts/SmallStruct.sol\":339:347  _invited */\n      dup4\n        /* \"contracts/SmallStruct.sol\":308:349  Friends({name: _name, invited: _invited}) */\n      iszero\n      iszero\n      dup2\n      mstore\n      pop\n        /* \"contracts/SmallStruct.sol\":292:350  friendList.push(Friends({name: _name, invited: _invited})) */\n      swap1\n      dup1\n      0x01\n      dup2\n      sload\n      add\n      dup1\n      dup3\n      sstore\n      dup1\n      swap2\n      pop\n      pop\n      0x01\n      swap1\n      sub\n      swap1\n      0x00\n      mstore\n      keccak256(0x00, 0x20)\n      swap1\n      0x02\n      mul\n      add\n      0x00\n      swap1\n      swap2\n      swap1\n      swap2\n      swap1\n      swap2\n      pop\n      0x00\n      dup3\n      add\n      mload\n      dup2\n      0x00\n      add\n      swap1\n      dup1\n      mload\n      swap1\n      0x20\n      add\n      swap1\n      tag_51\n      swap3\n      swap2\n      swap1\n      tag_52\n      jump\t// in\n    tag_51:\n      pop\n      0x20\n      dup3\n      add\n      mload\n      dup2\n      0x01\n      add\n      exp(0x0100, 0x00)\n      dup2\n      sload\n      dup2\n      0xff\n      mul\n      not\n      and\n      swap1\n      dup4\n      iszero\n      iszero\n      mul\n      or\n      swap1\n      sstore\n      pop\n      pop\n      pop\n        /* \"contracts/SmallStruct.sol\":224:355  function addFriend(string memory _name, bool _invited) public {... */\n      pop\n      pop\n      jump\t// out\n        /* \"contracts/SmallStruct.sol\":192:219  Friends [] public guestList */\n    tag_21:\n      0x01\n      dup2\n      dup2\n      sload\n      dup2\n      lt\n      tag_53\n      jumpi\n      0x00\n      dup1\n      revert\n    tag_53:\n      swap1\n      0x00\n      mstore\n      keccak256(0x00, 0x20)\n      swap1\n      0x02\n      mul\n      add\n      0x00\n      swap2\n      pop\n      swap1\n      pop\n      dup1\n      0x00\n      add\n      dup1\n      sload\n      tag_55\n      swap1\n      tag_26\n      jump\t// in\n    tag_55:\n      dup1\n      0x1f\n      add\n      0x20\n      dup1\n      swap2\n      div\n      mul\n      0x20\n      add\n      mload(0x40)\n      swap1\n      dup2\n      add\n      0x40\n      mstore\n      dup1\n      swap3\n      swap2\n      swap1\n      dup2\n      dup2\n      mstore\n      0x20\n      add\n      dup3\n      dup1\n      sload\n      tag_56\n      swap1\n      tag_26\n      jump\t// in\n    tag_56:\n      dup1\n      iszero\n      tag_57\n      jumpi\n      dup1\n      0x1f\n      lt\n      tag_58\n      jumpi\n      0x0100\n      dup1\n      dup4\n      sload\n      div\n      mul\n      dup4\n      mstore\n      swap2\n      0x20\n      add\n      swap2\n      jump(tag_57)\n    tag_58:\n      dup3\n      add\n      swap2\n      swap1\n      0x00\n      mstore\n      keccak256(0x00, 0x20)\n      swap1\n    tag_59:\n      dup2\n      sload\n      dup2\n      mstore\n      swap1\n      0x01\n      add\n      swap1\n      0x20\n      add\n      dup1\n      dup4\n      gt\n      tag_59\n      jumpi\n      dup3\n      swap1\n      sub\n      0x1f\n      and\n      dup3\n      add\n      swap2\n    tag_57:\n      pop\n      pop\n      pop\n      pop\n      pop\n      swap1\n      dup1\n      0x01\n      add\n      0x00\n      swap1\n      sload\n      swap1\n      0x0100\n      exp\n      swap1\n      div\n      0xff\n      and\n      swap1\n      pop\n      dup3\n      jump\t// out\n    tag_46:\n      dup3\n      dup1\n      sload\n      tag_60\n      swap1\n      tag_26\n      jump\t// in\n    tag_60:\n      swap1\n      0x00\n      mstore\n      keccak256(0x00, 0x20)\n      swap1\n      0x1f\n      add\n      0x20\n      swap1\n      div\n      dup2\n      add\n      swap3\n      dup3\n      tag_62\n      jumpi\n      0x00\n      dup6\n      sstore\n      jump(tag_61)\n    tag_62:\n      dup3\n      0x1f\n      lt\n      tag_63\n      jumpi\n      dup1\n      sload\n      dup6\n      sstore\n      jump(tag_61)\n    tag_63:\n      dup3\n      dup1\n      add\n      0x01\n      add\n      dup6\n      sstore\n      dup3\n      iszero\n      tag_61\n      jumpi\n      0x00\n      mstore\n      keccak256(0x00, 0x20)\n      swap2\n      0x1f\n      add\n      0x20\n      swap1\n      div\n      dup3\n      add\n    tag_64:\n      dup3\n      dup2\n      gt\n      iszero\n      tag_65\n      jumpi\n      dup3\n      sload\n      dup3\n      sstore\n      swap2\n      0x01\n      add\n      swap2\n      swap1\n      0x01\n      add\n      swap1\n      jump(tag_64)\n    tag_65:\n    tag_61:\n      pop\n      swap1\n      pop\n      tag_66\n      swap2\n      swap1\n      tag_67\n      jump\t// in\n    tag_66:\n      pop\n      swap1\n      jump\t// out\n    tag_52:\n      dup3\n      dup1\n      sload\n      tag_68\n      swap1\n      tag_26\n      jump\t// in\n    tag_68:\n      swap1\n      0x00\n      mstore\n      keccak256(0x00, 0x20)\n      swap1\n      0x1f\n      add\n      0x20\n      swap1\n      div\n      dup2\n      add\n      swap3\n      dup3\n      tag_70\n      jumpi\n      0x00\n      dup6\n      sstore\n      jump(tag_69)\n    tag_70:\n      dup3\n      0x1f\n      lt\n      tag_71\n      jumpi\n      dup1\n      mload\n      not(0xff)\n      and\n      dup4\n      dup1\n      add\n      or\n      dup6\n      sstore\n      jump(tag_69)\n    tag_71:\n      dup3\n      dup1\n      add\n      0x01\n      add\n      dup6\n      sstore\n      dup3\n      iszero\n      tag_69\n      jumpi\n      swap2\n      dup3\n      add\n    tag_72:\n      dup3\n      dup2\n      gt\n      iszero\n      tag_73\n      jumpi\n      dup3\n      mload\n      dup3\n      sstore\n      swap2\n      0x20\n      add\n      swap2\n      swap1\n      0x01\n      add\n      swap1\n      jump(tag_72)\n    tag_73:\n    tag_69:\n      pop\n      swap1\n      pop\n      tag_74\n      swap2\n      swap1\n      tag_67\n      jump\t// in\n    tag_74:\n      pop\n      swap1\n      jump\t// out\n    tag_67:\n    tag_75:\n      dup1\n      dup3\n      gt\n      iszero\n      tag_76\n      jumpi\n      0x00\n      dup2\n      0x00\n      swap1\n      sstore\n      pop\n      0x01\n      add\n      jump(tag_75)\n    tag_76:\n      pop\n      swap1\n      jump\t// out\n        /* \"#utility.yul\":7:419   */\n    tag_78:\n        /* \"#utility.yul\":85:90   */\n      0x00\n        /* \"#utility.yul\":110:176   */\n      tag_80\n        /* \"#utility.yul\":126:175   */\n      tag_81\n        /* \"#utility.yul\":168:174   */\n      dup5\n        /* \"#utility.yul\":126:175   */\n      tag_82\n      jump\t// in\n    tag_81:\n        /* \"#utility.yul\":110:176   */\n      tag_83\n      jump\t// in\n    tag_80:\n        /* \"#utility.yul\":101:176   */\n      swap1\n      pop\n        /* \"#utility.yul\":199:205   */\n      dup3\n        /* \"#utility.yul\":192:197   */\n      dup2\n        /* \"#utility.yul\":185:206   */\n      mstore\n        /* \"#utility.yul\":237:241   */\n      0x20\n        /* \"#utility.yul\":230:235   */\n      dup2\n        /* \"#utility.yul\":226:242   */\n      add\n        /* \"#utility.yul\":275:278   */\n      dup5\n        /* \"#utility.yul\":266:272   */\n      dup5\n        /* \"#utility.yul\":261:264   */\n      dup5\n        /* \"#utility.yul\":257:273   */\n      add\n        /* \"#utility.yul\":254:279   */\n      gt\n        /* \"#utility.yul\":251:363   */\n      iszero\n      tag_84\n      jumpi\n        /* \"#utility.yul\":282:361   */\n      tag_85\n      tag_86\n      jump\t// in\n    tag_85:\n        /* \"#utility.yul\":251:363   */\n    tag_84:\n        /* \"#utility.yul\":372:413   */\n      tag_87\n        /* \"#utility.yul\":406:412   */\n      dup5\n        /* \"#utility.yul\":401:404   */\n      dup3\n        /* \"#utility.yul\":396:399   */\n      dup6\n        /* \"#utility.yul\":372:413   */\n      tag_88\n      jump\t// in\n    tag_87:\n        /* \"#utility.yul\":91:419   */\n      pop\n        /* \"#utility.yul\":7:419   */\n      swap4\n      swap3\n      pop\n      pop\n      pop\n      jump\t// out\n        /* \"#utility.yul\":425:558   */\n    tag_89:\n        /* \"#utility.yul\":468:473   */\n      0x00\n        /* \"#utility.yul\":506:512   */\n      dup2\n        /* \"#utility.yul\":493:513   */\n      calldataload\n        /* \"#utility.yul\":484:513   */\n      swap1\n      pop\n        /* \"#utility.yul\":522:552   */\n      tag_91\n        /* \"#utility.yul\":546:551   */\n      dup2\n        /* \"#utility.yul\":522:552   */\n      tag_92\n      jump\t// in\n    tag_91:\n        /* \"#utility.yul\":425:558   */\n      swap3\n      swap2\n      pop\n      pop\n      jump\t// out\n        /* \"#utility.yul\":578:918   */\n    tag_93:\n        /* \"#utility.yul\":634:639   */\n      0x00\n        /* \"#utility.yul\":683:686   */\n      dup3\n        /* \"#utility.yul\":676:680   */\n      0x1f\n        /* \"#utility.yul\":668:674   */\n      dup4\n        /* \"#utility.yul\":664:681   */\n      add\n        /* \"#utility.yul\":660:687   */\n      slt\n        /* \"#utility.yul\":650:772   */\n      tag_95\n      jumpi\n        /* \"#utility.yul\":691:770   */\n      tag_96\n      tag_97\n      jump\t// in\n    tag_96:\n        /* \"#utility.yul\":650:772   */\n    tag_95:\n        /* \"#utility.yul\":808:814   */\n      dup2\n        /* \"#utility.yul\":795:815   */\n      calldataload\n        /* \"#utility.yul\":833:912   */\n      tag_98\n        /* \"#utility.yul\":908:911   */\n      dup5\n        /* \"#utility.yul\":900:906   */\n      dup3\n        /* \"#utility.yul\":893:897   */\n      0x20\n        /* \"#utility.yul\":885:891   */\n      dup7\n        /* \"#utility.yul\":881:898   */\n      add\n        /* \"#utility.yul\":833:912   */\n      tag_78\n      jump\t// in\n    tag_98:\n        /* \"#utility.yul\":824:912   */\n      swap2\n      pop\n        /* \"#utility.yul\":640:918   */\n      pop\n        /* \"#utility.yul\":578:918   */\n      swap3\n      swap2\n      pop\n      pop\n      jump\t// out\n        /* \"#utility.yul\":924:1063   */\n    tag_99:\n        /* \"#utility.yul\":970:975   */\n      0x00\n        /* \"#utility.yul\":1008:1014   */\n      dup2\n        /* \"#utility.yul\":995:1015   */\n      calldataload\n        /* \"#utility.yul\":986:1015   */\n      swap1\n      pop\n        /* \"#utility.yul\":1024:1057   */\n      tag_101\n        /* \"#utility.yul\":1051:1056   */\n      dup2\n        /* \"#utility.yul\":1024:1057   */\n      tag_102\n      jump\t// in\n    tag_101:\n        /* \"#utility.yul\":924:1063   */\n      swap3\n      swap2\n      pop\n      pop\n      jump\t// out\n        /* \"#utility.yul\":1069:1717   */\n    tag_17:\n        /* \"#utility.yul\":1144:1150   */\n      0x00\n        /* \"#utility.yul\":1152:1158   */\n      dup1\n        /* \"#utility.yul\":1201:1203   */\n      0x40\n        /* \"#utility.yul\":1189:1198   */\n      dup4\n        /* \"#utility.yul\":1180:1187   */\n      dup6\n        /* \"#utility.yul\":1176:1199   */\n      sub\n        /* \"#utility.yul\":1172:1204   */\n      slt\n        /* \"#utility.yul\":1169:1288   */\n      iszero\n      tag_104\n      jumpi\n        /* \"#utility.yul\":1207:1286   */\n      tag_105\n      tag_106\n      jump\t// in\n    tag_105:\n        /* \"#utility.yul\":1169:1288   */\n    tag_104:\n        /* \"#utility.yul\":1355:1356   */\n      0x00\n        /* \"#utility.yul\":1344:1353   */\n      dup4\n        /* \"#utility.yul\":1340:1357   */\n      add\n        /* \"#utility.yul\":1327:1358   */\n      calldataload\n        /* \"#utility.yul\":1385:1403   */\n      0xffffffffffffffff\n        /* \"#utility.yul\":1377:1383   */\n      dup2\n        /* \"#utility.yul\":1374:1404   */\n      gt\n        /* \"#utility.yul\":1371:1488   */\n      iszero\n      tag_107\n      jumpi\n        /* \"#utility.yul\":1407:1486   */\n      tag_108\n      tag_109\n      jump\t// in\n    tag_108:\n        /* \"#utility.yul\":1371:1488   */\n    tag_107:\n        /* \"#utility.yul\":1512:1575   */\n      tag_110\n        /* \"#utility.yul\":1567:1574   */\n      dup6\n        /* \"#utility.yul\":1558:1564   */\n      dup3\n        /* \"#utility.yul\":1547:1556   */\n      dup7\n        /* \"#utility.yul\":1543:1565   */\n      add\n        /* \"#utility.yul\":1512:1575   */\n      tag_93\n      jump\t// in\n    tag_110:\n        /* \"#utility.yul\":1502:1575   */\n      swap3\n      pop\n        /* \"#utility.yul\":1298:1585   */\n      pop\n        /* \"#utility.yul\":1624:1626   */\n      0x20\n        /* \"#utility.yul\":1650:1700   */\n      tag_111\n        /* \"#utility.yul\":1692:1699   */\n      dup6\n        /* \"#utility.yul\":1683:1689   */\n      dup3\n        /* \"#utility.yul\":1672:1681   */\n      dup7\n        /* \"#utility.yul\":1668:1690   */\n      add\n        /* \"#utility.yul\":1650:1700   */\n      tag_89\n      jump\t// in\n    tag_111:\n        /* \"#utility.yul\":1640:1700   */\n      swap2\n      pop\n        /* \"#utility.yul\":1595:1710   */\n      pop\n        /* \"#utility.yul\":1069:1717   */\n      swap3\n      pop\n      swap3\n      swap1\n      pop\n      jump\t// out\n        /* \"#utility.yul\":1723:2052   */\n    tag_9:\n        /* \"#utility.yul\":1782:1788   */\n      0x00\n        /* \"#utility.yul\":1831:1833   */\n      0x20\n        /* \"#utility.yul\":1819:1828   */\n      dup3\n        /* \"#utility.yul\":1810:1817   */\n      dup5\n        /* \"#utility.yul\":1806:1829   */\n      sub\n        /* \"#utility.yul\":1802:1834   */\n      slt\n        /* \"#utility.yul\":1799:1918   */\n      iszero\n      tag_113\n      jumpi\n        /* \"#utility.yul\":1837:1916   */\n      tag_114\n      tag_106\n      jump\t// in\n    tag_114:\n        /* \"#utility.yul\":1799:1918   */\n    tag_113:\n        /* \"#utility.yul\":1957:1958   */\n      0x00\n        /* \"#utility.yul\":1982:2035   */\n      tag_115\n        /* \"#utility.yul\":2027:2034   */\n      dup5\n        /* \"#utility.yul\":2018:2024   */\n      dup3\n        /* \"#utility.yul\":2007:2016   */\n      dup6\n        /* \"#utility.yul\":2003:2025   */\n      add\n        /* \"#utility.yul\":1982:2035   */\n      tag_99\n      jump\t// in\n    tag_115:\n        /* \"#utility.yul\":1972:2035   */\n      swap2\n      pop\n        /* \"#utility.yul\":1928:2045   */\n      pop\n        /* \"#utility.yul\":1723:2052   */\n      swap3\n      swap2\n      pop\n      pop\n      jump\t// out\n        /* \"#utility.yul\":2058:2167   */\n    tag_116:\n        /* \"#utility.yul\":2139:2160   */\n      tag_118\n        /* \"#utility.yul\":2154:2159   */\n      dup2\n        /* \"#utility.yul\":2139:2160   */\n      tag_119\n      jump\t// in\n    tag_118:\n        /* \"#utility.yul\":2134:2137   */\n      dup3\n        /* \"#utility.yul\":2127:2161   */\n      mstore\n        /* \"#utility.yul\":2058:2167   */\n      pop\n      pop\n      jump\t// out\n        /* \"#utility.yul\":2173:2537   */\n    tag_120:\n        /* \"#utility.yul\":2261:2264   */\n      0x00\n        /* \"#utility.yul\":2289:2328   */\n      tag_122\n        /* \"#utility.yul\":2322:2327   */\n      dup3\n        /* \"#utility.yul\":2289:2328   */\n      tag_123\n      jump\t// in\n    tag_122:\n        /* \"#utility.yul\":2344:2415   */\n      tag_124\n        /* \"#utility.yul\":2408:2414   */\n      dup2\n        /* \"#utility.yul\":2403:2406   */\n      dup6\n        /* \"#utility.yul\":2344:2415   */\n      tag_125\n      jump\t// in\n    tag_124:\n        /* \"#utility.yul\":2337:2415   */\n      swap4\n      pop\n        /* \"#utility.yul\":2424:2476   */\n      tag_126\n        /* \"#utility.yul\":2469:2475   */\n      dup2\n        /* \"#utility.yul\":2464:2467   */\n      dup6\n        /* \"#utility.yul\":2457:2461   */\n      0x20\n        /* \"#utility.yul\":2450:2455   */\n      dup7\n        /* \"#utility.yul\":2446:2462   */\n      add\n        /* \"#utility.yul\":2424:2476   */\n      tag_127\n      jump\t// in\n    tag_126:\n        /* \"#utility.yul\":2501:2530   */\n      tag_128\n        /* \"#utility.yul\":2523:2529   */\n      dup2\n        /* \"#utility.yul\":2501:2530   */\n      tag_129\n      jump\t// in\n    tag_128:\n        /* \"#utility.yul\":2496:2499   */\n      dup5\n        /* \"#utility.yul\":2492:2531   */\n      add\n        /* \"#utility.yul\":2485:2531   */\n      swap2\n      pop\n        /* \"#utility.yul\":2265:2537   */\n      pop\n        /* \"#utility.yul\":2173:2537   */\n      swap3\n      swap2\n      pop\n      pop\n      jump\t// out\n        /* \"#utility.yul\":2543:2954   */\n    tag_12:\n        /* \"#utility.yul\":2678:2682   */\n      0x00\n        /* \"#utility.yul\":2716:2718   */\n      0x40\n        /* \"#utility.yul\":2705:2714   */\n      dup3\n        /* \"#utility.yul\":2701:2719   */\n      add\n        /* \"#utility.yul\":2693:2719   */\n      swap1\n      pop\n        /* \"#utility.yul\":2765:2774   */\n      dup2\n        /* \"#utility.yul\":2759:2763   */\n      dup2\n        /* \"#utility.yul\":2755:2775   */\n      sub\n        /* \"#utility.yul\":2751:2752   */\n      0x00\n        /* \"#utility.yul\":2740:2749   */\n      dup4\n        /* \"#utility.yul\":2736:2753   */\n      add\n        /* \"#utility.yul\":2729:2776   */\n      mstore\n        /* \"#utility.yul\":2793:2871   */\n      tag_131\n        /* \"#utility.yul\":2866:2870   */\n      dup2\n        /* \"#utility.yul\":2857:2863   */\n      dup6\n        /* \"#utility.yul\":2793:2871   */\n      tag_120\n      jump\t// in\n    tag_131:\n        /* \"#utility.yul\":2785:2871   */\n      swap1\n      pop\n        /* \"#utility.yul\":2881:2947   */\n      tag_132\n        /* \"#utility.yul\":2943:2945   */\n      0x20\n        /* \"#utility.yul\":2932:2941   */\n      dup4\n        /* \"#utility.yul\":2928:2946   */\n      add\n        /* \"#utility.yul\":2919:2925   */\n      dup5\n        /* \"#utility.yul\":2881:2947   */\n      tag_116\n      jump\t// in\n    tag_132:\n        /* \"#utility.yul\":2543:2954   */\n      swap4\n      swap3\n      pop\n      pop\n      pop\n      jump\t// out\n        /* \"#utility.yul\":2960:3089   */\n    tag_83:\n        /* \"#utility.yul\":2994:3000   */\n      0x00\n        /* \"#utility.yul\":3021:3041   */\n      tag_134\n      tag_135\n      jump\t// in\n    tag_134:\n        /* \"#utility.yul\":3011:3041   */\n      swap1\n      pop\n        /* \"#utility.yul\":3050:3083   */\n      tag_136\n        /* \"#utility.yul\":3078:3082   */\n      dup3\n        /* \"#utility.yul\":3070:3076   */\n      dup3\n        /* \"#utility.yul\":3050:3083   */\n      tag_137\n      jump\t// in\n    tag_136:\n        /* \"#utility.yul\":2960:3089   */\n      swap2\n      swap1\n      pop\n      jump\t// out\n        /* \"#utility.yul\":3095:3170   */\n    tag_135:\n        /* \"#utility.yul\":3128:3134   */\n      0x00\n        /* \"#utility.yul\":3161:3163   */\n      0x40\n        /* \"#utility.yul\":3155:3164   */\n      mload\n        /* \"#utility.yul\":3145:3164   */\n      swap1\n      pop\n        /* \"#utility.yul\":3095:3170   */\n      swap1\n      jump\t// out\n        /* \"#utility.yul\":3176:3484   */\n    tag_82:\n        /* \"#utility.yul\":3238:3242   */\n      0x00\n        /* \"#utility.yul\":3328:3346   */\n      0xffffffffffffffff\n        /* \"#utility.yul\":3320:3326   */\n      dup3\n        /* \"#utility.yul\":3317:3347   */\n      gt\n        /* \"#utility.yul\":3314:3370   */\n      iszero\n      tag_140\n      jumpi\n        /* \"#utility.yul\":3350:3368   */\n      tag_141\n      tag_142\n      jump\t// in\n    tag_141:\n        /* \"#utility.yul\":3314:3370   */\n    tag_140:\n        /* \"#utility.yul\":3388:3417   */\n      tag_143\n        /* \"#utility.yul\":3410:3416   */\n      dup3\n        /* \"#utility.yul\":3388:3417   */\n      tag_129\n      jump\t// in\n    tag_143:\n        /* \"#utility.yul\":3380:3417   */\n      swap1\n      pop\n        /* \"#utility.yul\":3472:3476   */\n      0x20\n        /* \"#utility.yul\":3466:3470   */\n      dup2\n        /* \"#utility.yul\":3462:3477   */\n      add\n        /* \"#utility.yul\":3454:3477   */\n      swap1\n      pop\n        /* \"#utility.yul\":3176:3484   */\n      swap2\n      swap1\n      pop\n      jump\t// out\n        /* \"#utility.yul\":3490:3589   */\n    tag_123:\n        /* \"#utility.yul\":3542:3548   */\n      0x00\n        /* \"#utility.yul\":3576:3581   */\n      dup2\n        /* \"#utility.yul\":3570:3582   */\n      mload\n        /* \"#utility.yul\":3560:3582   */\n      swap1\n      pop\n        /* \"#utility.yul\":3490:3589   */\n      swap2\n      swap1\n      pop\n      jump\t// out\n        /* \"#utility.yul\":3595:3764   */\n    tag_125:\n        /* \"#utility.yul\":3679:3690   */\n      0x00\n        /* \"#utility.yul\":3713:3719   */\n      dup3\n        /* \"#utility.yul\":3708:3711   */\n      dup3\n        /* \"#utility.yul\":3701:3720   */\n      mstore\n        /* \"#utility.yul\":3753:3757   */\n      0x20\n        /* \"#utility.yul\":3748:3751   */\n      dup3\n        /* \"#utility.yul\":3744:3758   */\n      add\n        /* \"#utility.yul\":3729:3758   */\n      swap1\n      pop\n        /* \"#utility.yul\":3595:3764   */\n      swap3\n      swap2\n      pop\n      pop\n      jump\t// out\n        /* \"#utility.yul\":3770:3860   */\n    tag_119:\n        /* \"#utility.yul\":3804:3811   */\n      0x00\n        /* \"#utility.yul\":3847:3852   */\n      dup2\n        /* \"#utility.yul\":3840:3853   */\n      iszero\n        /* \"#utility.yul\":3833:3854   */\n      iszero\n        /* \"#utility.yul\":3822:3854   */\n      swap1\n      pop\n        /* \"#utility.yul\":3770:3860   */\n      swap2\n      swap1\n      pop\n      jump\t// out\n        /* \"#utility.yul\":3866:3943   */\n    tag_147:\n        /* \"#utility.yul\":3903:3910   */\n      0x00\n        /* \"#utility.yul\":3932:3937   */\n      dup2\n        /* \"#utility.yul\":3921:3937   */\n      swap1\n      pop\n        /* \"#utility.yul\":3866:3943   */\n      swap2\n      swap1\n      pop\n      jump\t// out\n        /* \"#utility.yul\":3949:4103   */\n    tag_88:\n        /* \"#utility.yul\":4033:4039   */\n      dup3\n        /* \"#utility.yul\":4028:4031   */\n      dup2\n        /* \"#utility.yul\":4023:4026   */\n      dup4\n        /* \"#utility.yul\":4010:4040   */\n      calldatacopy\n        /* \"#utility.yul\":4095:4096   */\n      0x00\n        /* \"#utility.yul\":4086:4092   */\n      dup4\n        /* \"#utility.yul\":4081:4084   */\n      dup4\n        /* \"#utility.yul\":4077:4093   */\n      add\n        /* \"#utility.yul\":4070:4097   */\n      mstore\n        /* \"#utility.yul\":3949:4103   */\n      pop\n      pop\n      pop\n      jump\t// out\n        /* \"#utility.yul\":4109:4416   */\n    tag_127:\n        /* \"#utility.yul\":4177:4178   */\n      0x00\n        /* \"#utility.yul\":4187:4300   */\n    tag_151:\n        /* \"#utility.yul\":4201:4207   */\n      dup4\n        /* \"#utility.yul\":4198:4199   */\n      dup2\n        /* \"#utility.yul\":4195:4208   */\n      lt\n        /* \"#utility.yul\":4187:4300   */\n      iszero\n      tag_153\n      jumpi\n        /* \"#utility.yul\":4286:4287   */\n      dup1\n        /* \"#utility.yul\":4281:4284   */\n      dup3\n        /* \"#utility.yul\":4277:4288   */\n      add\n        /* \"#utility.yul\":4271:4289   */\n      mload\n        /* \"#utility.yul\":4267:4268   */\n      dup2\n        /* \"#utility.yul\":4262:4265   */\n      dup5\n        /* \"#utility.yul\":4258:4269   */\n      add\n        /* \"#utility.yul\":4251:4290   */\n      mstore\n        /* \"#utility.yul\":4223:4225   */\n      0x20\n        /* \"#utility.yul\":4220:4221   */\n      dup2\n        /* \"#utility.yul\":4216:4226   */\n      add\n        /* \"#utility.yul\":4211:4226   */\n      swap1\n      pop\n        /* \"#utility.yul\":4187:4300   */\n      jump(tag_151)\n    tag_153:\n        /* \"#utility.yul\":4318:4324   */\n      dup4\n        /* \"#utility.yul\":4315:4316   */\n      dup2\n        /* \"#utility.yul\":4312:4325   */\n      gt\n        /* \"#utility.yul\":4309:4410   */\n      iszero\n      tag_154\n      jumpi\n        /* \"#utility.yul\":4398:4399   */\n      0x00\n        /* \"#utility.yul\":4389:4395   */\n      dup5\n        /* \"#utility.yul\":4384:4387   */\n      dup5\n        /* \"#utility.yul\":4380:4396   */\n      add\n        /* \"#utility.yul\":4373:4400   */\n      mstore\n        /* \"#utility.yul\":4309:4410   */\n    tag_154:\n        /* \"#utility.yul\":4158:4416   */\n      pop\n        /* \"#utility.yul\":4109:4416   */\n      pop\n      pop\n      pop\n      jump\t// out\n        /* \"#utility.yul\":4422:4742   */\n    tag_26:\n        /* \"#utility.yul\":4466:4472   */\n      0x00\n        /* \"#utility.yul\":4503:4504   */\n      0x02\n        /* \"#utility.yul\":4497:4501   */\n      dup3\n        /* \"#utility.yul\":4493:4505   */\n      div\n        /* \"#utility.yul\":4483:4505   */\n      swap1\n      pop\n        /* \"#utility.yul\":4550:4551   */\n      0x01\n        /* \"#utility.yul\":4544:4548   */\n      dup3\n        /* \"#utility.yul\":4540:4552   */\n      and\n        /* \"#utility.yul\":4571:4589   */\n      dup1\n        /* \"#utility.yul\":4561:4642   */\n      tag_156\n      jumpi\n        /* \"#utility.yul\":4627:4631   */\n      0x7f\n        /* \"#utility.yul\":4619:4625   */\n      dup3\n        /* \"#utility.yul\":4615:4632   */\n      and\n        /* \"#utility.yul\":4605:4632   */\n      swap2\n      pop\n        /* \"#utility.yul\":4561:4642   */\n    tag_156:\n        /* \"#utility.yul\":4689:4691   */\n      0x20\n        /* \"#utility.yul\":4681:4687   */\n      dup3\n        /* \"#utility.yul\":4678:4692   */\n      lt\n        /* \"#utility.yul\":4658:4676   */\n      dup2\n        /* \"#utility.yul\":4655:4693   */\n      eq\n        /* \"#utility.yul\":4652:4736   */\n      iszero\n      tag_157\n      jumpi\n        /* \"#utility.yul\":4708:4726   */\n      tag_158\n      tag_159\n      jump\t// in\n    tag_158:\n        /* \"#utility.yul\":4652:4736   */\n    tag_157:\n        /* \"#utility.yul\":4473:4742   */\n      pop\n        /* \"#utility.yul\":4422:4742   */\n      swap2\n      swap1\n      pop\n      jump\t// out\n        /* \"#utility.yul\":4748:5029   */\n    tag_137:\n        /* \"#utility.yul\":4831:4858   */\n      tag_161\n        /* \"#utility.yul\":4853:4857   */\n      dup3\n        /* \"#utility.yul\":4831:4858   */\n      tag_129\n      jump\t// in\n    tag_161:\n        /* \"#utility.yul\":4823:4829   */\n      dup2\n        /* \"#utility.yul\":4819:4859   */\n      add\n        /* \"#utility.yul\":4961:4967   */\n      dup2\n        /* \"#utility.yul\":4949:4959   */\n      dup2\n        /* \"#utility.yul\":4946:4968   */\n      lt\n        /* \"#utility.yul\":4925:4943   */\n      0xffffffffffffffff\n        /* \"#utility.yul\":4913:4923   */\n      dup3\n        /* \"#utility.yul\":4910:4944   */\n      gt\n        /* \"#utility.yul\":4907:4969   */\n      or\n        /* \"#utility.yul\":4904:4992   */\n      iszero\n      tag_162\n      jumpi\n        /* \"#utility.yul\":4972:4990   */\n      tag_163\n      tag_142\n      jump\t// in\n    tag_163:\n        /* \"#utility.yul\":4904:4992   */\n    tag_162:\n        /* \"#utility.yul\":5012:5022   */\n      dup1\n        /* \"#utility.yul\":5008:5010   */\n      0x40\n        /* \"#utility.yul\":5001:5023   */\n      mstore\n        /* \"#utility.yul\":4791:5029   */\n      pop\n        /* \"#utility.yul\":4748:5029   */\n      pop\n      pop\n      jump\t// out\n        /* \"#utility.yul\":5035:5268   */\n    tag_48:\n        /* \"#utility.yul\":5074:5077   */\n      0x00\n        /* \"#utility.yul\":5097:5121   */\n      tag_165\n        /* \"#utility.yul\":5115:5120   */\n      dup3\n        /* \"#utility.yul\":5097:5121   */\n      tag_147\n      jump\t// in\n    tag_165:\n        /* \"#utility.yul\":5088:5121   */\n      swap2\n      pop\n        /* \"#utility.yul\":5143:5209   */\n      0xffffffffffffffffffffffffffffffffffffffffffffffffffffffffffffffff\n        /* \"#utility.yul\":5136:5141   */\n      dup3\n        /* \"#utility.yul\":5133:5210   */\n      eq\n        /* \"#utility.yul\":5130:5233   */\n      iszero\n      tag_166\n      jumpi\n        /* \"#utility.yul\":5213:5231   */\n      tag_167\n      tag_168\n      jump\t// in\n    tag_167:\n        /* \"#utility.yul\":5130:5233   */\n    tag_166:\n        /* \"#utility.yul\":5260:5261   */\n      0x01\n        /* \"#utility.yul\":5253:5258   */\n      dup3\n        /* \"#utility.yul\":5249:5262   */\n      add\n        /* \"#utility.yul\":5242:5262   */\n      swap1\n      pop\n        /* \"#utility.yul\":5035:5268   */\n      swap2\n      swap1\n      pop\n      jump\t// out\n        /* \"#utility.yul\":5274:5454   */\n    tag_168:\n        /* \"#utility.yul\":5322:5399   */\n      0x4e487b7100000000000000000000000000000000000000000000000000000000\n        /* \"#utility.yul\":5319:5320   */\n      0x00\n        /* \"#utility.yul\":5312:5400   */\n      mstore\n        /* \"#utility.yul\":5419:5423   */\n      0x11\n        /* \"#utility.yul\":5416:5417   */\n      0x04\n        /* \"#utility.yul\":5409:5424   */\n      mstore\n        /* \"#utility.yul\":5443:5447   */\n      0x24\n        /* \"#utility.yul\":5440:5441   */\n      0x00\n        /* \"#utility.yul\":5433:5448   */\n      revert\n        /* \"#utility.yul\":5460:5640   */\n    tag_159:\n        /* \"#utility.yul\":5508:5585   */\n      0x4e487b7100000000000000000000000000000000000000000000000000000000\n        /* \"#utility.yul\":5505:5506   */\n      0x00\n        /* \"#utility.yul\":5498:5586   */\n      mstore\n        /* \"#utility.yul\":5605:5609   */\n      0x22\n        /* \"#utility.yul\":5602:5603   */\n      0x04\n        /* \"#utility.yul\":5595:5610   */\n      mstore\n        /* \"#utility.yul\":5629:5633   */\n      0x24\n        /* \"#utility.yul\":5626:5627   */\n      0x00\n        /* \"#utility.yul\":5619:5634   */\n      revert\n        /* \"#utility.yul\":5646:5826   */\n    tag_37:\n        /* \"#utility.yul\":5694:5771   */\n      0x4e487b7100000000000000000000000000000000000000000000000000000000\n        /* \"#utility.yul\":5691:5692   */\n      0x00\n        /* \"#utility.yul\":5684:5772   */\n      mstore\n        /* \"#utility.yul\":5791:5795   */\n      0x32\n        /* \"#utility.yul\":5788:5789   */\n      0x04\n        /* \"#utility.yul\":5781:5796   */\n      mstore\n        /* \"#utility.yul\":5815:5819   */\n      0x24\n        /* \"#utility.yul\":5812:5813   */\n      0x00\n        /* \"#utility.yul\":5805:5820   */\n      revert\n        /* \"#utility.yul\":5832:6012   */\n    tag_142:\n        /* \"#utility.yul\":5880:5957   */\n      0x4e487b7100000000000000000000000000000000000000000000000000000000\n        /* \"#utility.yul\":5877:5878   */\n      0x00\n        /* \"#utility.yul\":5870:5958   */\n      mstore\n        /* \"#utility.yul\":5977:5981   */\n      0x41\n        /* \"#utility.yul\":5974:5975   */\n      0x04\n        /* \"#utility.yul\":5967:5982   */\n      mstore\n        /* \"#utility.yul\":6001:6005   */\n      0x24\n        /* \"#utility.yul\":5998:5999   */\n      0x00\n        /* \"#utility.yul\":5991:6006   */\n      revert\n        /* \"#utility.yul\":6018:6135   */\n    tag_97:\n        /* \"#utility.yul\":6127:6128   */\n      0x00\n        /* \"#utility.yul\":6124:6125   */\n      dup1\n        /* \"#utility.yul\":6117:6129   */\n      revert\n        /* \"#utility.yul\":6141:6258   */\n    tag_86:\n        /* \"#utility.yul\":6250:6251   */\n      0x00\n        /* \"#utility.yul\":6247:6248   */\n      dup1\n        /* \"#utility.yul\":6240:6252   */\n      revert\n        /* \"#utility.yul\":6264:6381   */\n    tag_109:\n        /* \"#utility.yul\":6373:6374   */\n      0x00\n        /* \"#utility.yul\":6370:6371   */\n      dup1\n        /* \"#utility.yul\":6363:6375   */\n      revert\n        /* \"#utility.yul\":6387:6504   */\n    tag_106:\n        /* \"#utility.yul\":6496:6497   */\n      0x00\n        /* \"#utility.yul\":6493:6494   */\n      dup1\n        /* \"#utility.yul\":6486:6498   */\n      revert\n        /* \"#utility.yul\":6510:6612   */\n    tag_129:\n        /* \"#utility.yul\":6551:6557   */\n      0x00\n        /* \"#utility.yul\":6602:6604   */\n      0x1f\n        /* \"#utility.yul\":6598:6605   */\n      not\n        /* \"#utility.yul\":6593:6595   */\n      0x1f\n        /* \"#utility.yul\":6586:6591   */\n      dup4\n        /* \"#utility.yul\":6582:6596   */\n      add\n        /* \"#utility.yul\":6578:6606   */\n      and\n        /* \"#utility.yul\":6568:6606   */\n      swap1\n      pop\n        /* \"#utility.yul\":6510:6612   */\n      swap2\n      swap1\n      pop\n      jump\t// out\n        /* \"#utility.yul\":6618:6734   */\n    tag_92:\n        /* \"#utility.yul\":6688:6709   */\n      tag_179\n        /* \"#utility.yul\":6703:6708   */\n      dup2\n        /* \"#utility.yul\":6688:6709   */\n      tag_119\n      jump\t// in\n    tag_179:\n        /* \"#utility.yul\":6681:6686   */\n      dup2\n        /* \"#utility.yul\":6678:6710   */\n      eq\n        /* \"#utility.yul\":6668:6728   */\n      tag_180\n      jumpi\n        /* \"#utility.yul\":6724:6725   */\n      0x00\n        /* \"#utility.yul\":6721:6722   */\n      dup1\n        /* \"#utility.yul\":6714:6726   */\n      revert\n        /* \"#utility.yul\":6668:6728   */\n    tag_180:\n        /* \"#utility.yul\":6618:6734   */\n      pop\n      jump\t// out\n        /* \"#utility.yul\":6740:6862   */\n    tag_102:\n        /* \"#utility.yul\":6813:6837   */\n      tag_182\n        /* \"#utility.yul\":6831:6836   */\n      dup2\n        /* \"#utility.yul\":6813:6837   */\n      tag_147\n      jump\t// in\n    tag_182:\n        /* \"#utility.yul\":6806:6811   */\n      dup2\n        /* \"#utility.yul\":6803:6838   */\n      eq\n        /* \"#utility.yul\":6793:6856   */\n      tag_183\n      jumpi\n        /* \"#utility.yul\":6852:6853   */\n      0x00\n        /* \"#utility.yul\":6849:6850   */\n      dup1\n        /* \"#utility.yul\":6842:6854   */\n      revert\n        /* \"#utility.yul\":6793:6856   */\n    tag_183:\n        /* \"#utility.yul\":6740:6862   */\n      pop\n      jump\t// out\n\n    auxdata: 0xa264697066735822122029cefd0f909312e9075f5faf8f78eedbf7ed1193349c8823909648e4950bb6b964736f6c63430008070033\n}\n",
				"bytecode": {
					"linkReferences": {},
					"object": "608060405234801561001057600080fd5b50610971806100206000396000f3fe608060405234801561001057600080fd5b506004361061004c5760003560e01c806321668a0114610051578063552b71c314610082578063756030b91461008c578063f5fccd8f146100a8575b600080fd5b61006b60048036038101906100669190610611565b6100d9565b604051610079929190610686565b60405180910390f35b61008a6101a2565b005b6100a660048036038101906100a191906105b5565b61029d565b005b6100c260048036038101906100bd9190610611565b610322565b6040516100d0929190610686565b60405180910390f35b600081815481106100e957600080fd5b906000526020600020906002020160009150905080600001805461010c90610780565b80601f016020809104026020016040519081016040528092919081815260200182805461013890610780565b80156101855780601f1061015a57610100808354040283529160200191610185565b820191906000526020600020905b81548152906001019060200180831161016857829003601f168201915b5050505050908060010160009054906101000a900460ff16905082565b60005b60008054905081101561029a57600081815481106101c6576101c561088a565b5b906000526020600020906002020160010160009054906101000a900460ff161561028757600160008281548110610200576101ff61088a565b5b90600052602060002090600202019080600181540180825580915050600190039060005260206000209060020201600090919091909150600082018160000190805461024b90610780565b6102569291906103eb565b506001820160009054906101000a900460ff168160010160006101000a81548160ff02191690831515021790555050505b8080610292906107e3565b9150506101a5565b50565b60006040518060400160405280848152602001831515815250908060018154018082558091505060019003906000526020600020906002020160009091909190915060008201518160000190805190602001906102fb929190610478565b5060208201518160010160006101000a81548160ff02191690831515021790555050505050565b6001818154811061033257600080fd5b906000526020600020906002020160009150905080600001805461035590610780565b80601f016020809104026020016040519081016040528092919081815260200182805461038190610780565b80156103ce5780601f106103a3576101008083540402835291602001916103ce565b820191906000526020600020905b8154815290600101906020018083116103b157829003601f168201915b5050505050908060010160009054906101000a900460ff16905082565b8280546103f790610780565b90600052602060002090601f0160209004810192826104195760008555610467565b82601f1061042a5780548555610467565b8280016001018555821561046757600052602060002091601f016020900482015b8281111561046657825482559160010191906001019061044b565b5b50905061047491906104fe565b5090565b82805461048490610780565b90600052602060002090601f0160209004810192826104a657600085556104ed565b82601f106104bf57805160ff19168380011785556104ed565b828001600101855582156104ed579182015b828111156104ec5782518255916020019190600101906104d1565b5b5090506104fa91906104fe565b5090565b5b808211156105175760008160009055506001016104ff565b5090565b600061052e610529846106db565b6106b6565b90508281526020810184848401111561054a576105496108ed565b5b61055584828561073e565b509392505050565b60008135905061056c8161090d565b92915050565b600082601f830112610587576105866108e8565b5b813561059784826020860161051b565b91505092915050565b6000813590506105af81610924565b92915050565b600080604083850312156105cc576105cb6108f7565b5b600083013567ffffffffffffffff8111156105ea576105e96108f2565b5b6105f685828601610572565b92505060206106078582860161055d565b9150509250929050565b600060208284031215610627576106266108f7565b5b6000610635848285016105a0565b91505092915050565b61064781610728565b82525050565b60006106588261070c565b6106628185610717565b935061067281856020860161074d565b61067b816108fc565b840191505092915050565b600060408201905081810360008301526106a0818561064d565b90506106af602083018461063e565b9392505050565b60006106c06106d1565b90506106cc82826107b2565b919050565b6000604051905090565b600067ffffffffffffffff8211156106f6576106f56108b9565b5b6106ff826108fc565b9050602081019050919050565b600081519050919050565b600082825260208201905092915050565b60008115159050919050565b6000819050919050565b82818337600083830152505050565b60005b8381101561076b578082015181840152602081019050610750565b8381111561077a576000848401525b50505050565b6000600282049050600182168061079857607f821691505b602082108114156107ac576107ab61085b565b5b50919050565b6107bb826108fc565b810181811067ffffffffffffffff821117156107da576107d96108b9565b5b80604052505050565b60006107ee82610734565b91507fffffffffffffffffffffffffffffffffffffffffffffffffffffffffffffffff8214156108215761082061082c565b5b600182019050919050565b7f4e487b7100000000000000000000000000000000000000000000000000000000600052601160045260246000fd5b7f4e487b7100000000000000000000000000000000000000000000000000000000600052602260045260246000fd5b7f4e487b7100000000000000000000000000000000000000000000000000000000600052603260045260246000fd5b7f4e487b7100000000000000000000000000000000000000000000000000000000600052604160045260246000fd5b600080fd5b600080fd5b600080fd5b600080fd5b6000601f19601f8301169050919050565b61091681610728565b811461092157600080fd5b50565b61092d81610734565b811461093857600080fd5b5056fea264697066735822122029cefd0f909312e9075f5faf8f78eedbf7ed1193349c8823909648e4950bb6b964736f6c63430008070033",
					"opcodes": "PUSH1 0x80 PUSH1 0x40 MSTORE CALLVALUE DUP1 ISZERO PUSH2 0x10 JUMPI PUSH1 0x0 DUP1 REVERT JUMPDEST POP PUSH2 0x971 DUP1 PUSH2 0x20 PUSH1 0x0 CODECOPY PUSH1 0x0 RETURN INVALID PUSH1 0x80 PUSH1 0x40 MSTORE CALLVALUE DUP1 ISZERO PUSH2 0x10 JUMPI PUSH1 0x0 DUP1 REVERT JUMPDEST POP PUSH1 0x4 CALLDATASIZE LT PUSH2 0x4C JUMPI PUSH1 0x0 CALLDATALOAD PUSH1 0xE0 SHR DUP1 PUSH4 0x21668A01 EQ PUSH2 0x51 JUMPI DUP1 PUSH4 0x552B71C3 EQ PUSH2 0x82 JUMPI DUP1 PUSH4 0x756030B9 EQ PUSH2 0x8C JUMPI DUP1 PUSH4 0xF5FCCD8F EQ PUSH2 0xA8 JUMPI JUMPDEST PUSH1 0x0 DUP1 REVERT JUMPDEST PUSH2 0x6B PUSH1 0x4 DUP1 CALLDATASIZE SUB DUP2 ADD SWAP1 PUSH2 0x66 SWAP2 SWAP1 PUSH2 0x611 JUMP JUMPDEST PUSH2 0xD9 JUMP JUMPDEST PUSH1 0x40 MLOAD PUSH2 0x79 SWAP3 SWAP2 SWAP1 PUSH2 0x686 JUMP JUMPDEST PUSH1 0x40 MLOAD DUP1 SWAP2 SUB SWAP1 RETURN JUMPDEST PUSH2 0x8A PUSH2 0x1A2 JUMP JUMPDEST STOP JUMPDEST PUSH2 0xA6 PUSH1 0x4 DUP1 CALLDATASIZE SUB DUP2 ADD SWAP1 PUSH2 0xA1 SWAP2 SWAP1 PUSH2 0x5B5 JUMP JUMPDEST PUSH2 0x29D JUMP JUMPDEST STOP JUMPDEST PUSH2 0xC2 PUSH1 0x4 DUP1 CALLDATASIZE SUB DUP2 ADD SWAP1 PUSH2 0xBD SWAP2 SWAP1 PUSH2 0x611 JUMP JUMPDEST PUSH2 0x322 JUMP JUMPDEST PUSH1 0x40 MLOAD PUSH2 0xD0 SWAP3 SWAP2 SWAP1 PUSH2 0x686 JUMP JUMPDEST PUSH1 0x40 MLOAD DUP1 SWAP2 SUB SWAP1 RETURN JUMPDEST PUSH1 0x0 DUP2 DUP2 SLOAD DUP2 LT PUSH2 0xE9 JUMPI PUSH1 0x0 DUP1 REVERT JUMPDEST SWAP1 PUSH1 0x0 MSTORE PUSH1 0x20 PUSH1 0x0 KECCAK256 SWAP1 PUSH1 0x2 MUL ADD PUSH1 0x0 SWAP2 POP SWAP1 POP DUP1 PUSH1 0x0 ADD DUP1 SLOAD PUSH2 0x10C SWAP1 PUSH2 0x780 JUMP JUMPDEST DUP1 PUSH1 0x1F ADD PUSH1 0x20 DUP1 SWAP2 DIV MUL PUSH1 0x20 ADD PUSH1 0x40 MLOAD SWAP1 DUP2 ADD PUSH1 0x40 MSTORE DUP1 SWAP3 SWAP2 SWAP1 DUP2 DUP2 MSTORE PUSH1 0x20 ADD DUP3 DUP1 SLOAD PUSH2 0x138 SWAP1 PUSH2 0x780 JUMP JUMPDEST DUP1 ISZERO PUSH2 0x185 JUMPI DUP1 PUSH1 0x1F LT PUSH2 0x15A JUMPI PUSH2 0x100 DUP1 DUP4 SLOAD DIV MUL DUP4 MSTORE SWAP2 PUSH1 0x20 ADD SWAP2 PUSH2 0x185 JUMP JUMPDEST DUP3 ADD SWAP2 SWAP1 PUSH1 0x0 MSTORE PUSH1 0x20 PUSH1 0x0 KECCAK256 SWAP1 JUMPDEST DUP2 SLOAD DUP2 MSTORE SWAP1 PUSH1 0x1 ADD SWAP1 PUSH1 0x20 ADD DUP1 DUP4 GT PUSH2 0x168 JUMPI DUP3 SWAP1 SUB PUSH1 0x1F AND DUP3 ADD SWAP2 JUMPDEST POP POP POP POP POP SWAP1 DUP1 PUSH1 0x1 ADD PUSH1 0x0 SWAP1 SLOAD SWAP1 PUSH2 0x100 EXP SWAP1 DIV PUSH1 0xFF AND SWAP1 POP DUP3 JUMP JUMPDEST PUSH1 0x0 JUMPDEST PUSH1 0x0 DUP1 SLOAD SWAP1 POP DUP2 LT ISZERO PUSH2 0x29A JUMPI PUSH1 0x0 DUP2 DUP2 SLOAD DUP2 LT PUSH2 0x1C6 JUMPI PUSH2 0x1C5 PUSH2 0x88A JUMP JUMPDEST JUMPDEST SWAP1 PUSH1 0x0 MSTORE PUSH1 0x20 PUSH1 0x0 KECCAK256 SWAP1 PUSH1 0x2 MUL ADD PUSH1 0x1 ADD PUSH1 0x0 SWAP1 SLOAD SWAP1 PUSH2 0x100 EXP SWAP1 DIV PUSH1 0xFF AND ISZERO PUSH2 0x287 JUMPI PUSH1 0x1 PUSH1 0x0 DUP3 DUP2 SLOAD DUP2 LT PUSH2 0x200 JUMPI PUSH2 0x1FF PUSH2 0x88A JUMP JUMPDEST JUMPDEST SWAP1 PUSH1 0x0 MSTORE PUSH1 0x20 PUSH1 0x0 KECCAK256 SWAP1 PUSH1 0x2 MUL ADD SWAP1 DUP1 PUSH1 0x1 DUP2 SLOAD ADD DUP1 DUP3 SSTORE DUP1 SWAP2 POP POP PUSH1 0x1 SWAP1 SUB SWAP1 PUSH1 0x0 MSTORE PUSH1 0x20 PUSH1 0x0 KECCAK256 SWAP1 PUSH1 0x2 MUL ADD PUSH1 0x0 SWAP1 SWAP2 SWAP1 SWAP2 SWAP1 SWAP2 POP PUSH1 0x0 DUP3 ADD DUP2 PUSH1 0x0 ADD SWAP1 DUP1 SLOAD PUSH2 0x24B SWAP1 PUSH2 0x780 JUMP JUMPDEST PUSH2 0x256 SWAP3 SWAP2 SWAP1 PUSH2 0x3EB JUMP JUMPDEST POP PUSH1 0x1 DUP3 ADD PUSH1 0x0 SWAP1 SLOAD SWAP1 PUSH2 0x100 EXP SWAP1 DIV PUSH1 0xFF AND DUP2 PUSH1 0x1 ADD PUSH1 0x0 PUSH2 0x100 EXP DUP2 SLOAD DUP2 PUSH1 0xFF MUL NOT AND SWAP1 DUP4 ISZERO ISZERO MUL OR SWAP1 SSTORE POP POP POP JUMPDEST DUP1 DUP1 PUSH2 0x292 SWAP1 PUSH2 0x7E3 JUMP JUMPDEST SWAP2 POP POP PUSH2 0x1A5 JUMP JUMPDEST POP JUMP JUMPDEST PUSH1 0x0 PUSH1 0x40 MLOAD DUP1 PUSH1 0x40 ADD PUSH1 0x40 MSTORE DUP1 DUP5 DUP2 MSTORE PUSH1 0x20 ADD DUP4 ISZERO ISZERO DUP2 MSTORE POP SWAP1 DUP1 PUSH1 0x1 DUP2 SLOAD ADD DUP1 DUP3 SSTORE DUP1 SWAP2 POP POP PUSH1 0x1 SWAP1 SUB SWAP1 PUSH1 0x0 MSTORE PUSH1 0x20 PUSH1 0x0 KECCAK256 SWAP1 PUSH1 0x2 MUL ADD PUSH1 0x0 SWAP1 SWAP2 SWAP1 SWAP2 SWAP1 SWAP2 POP PUSH1 0x0 DUP3 ADD MLOAD DUP2 PUSH1 0x0 ADD SWAP1 DUP1 MLOAD SWAP1 PUSH1 0x20 ADD SWAP1 PUSH2 0x2FB SWAP3 SWAP2 SWAP1 PUSH2 0x478 JUMP JUMPDEST POP PUSH1 0x20 DUP3 ADD MLOAD DUP2 PUSH1 0x1 ADD PUSH1 0x0 PUSH2 0x100 EXP DUP2 SLOAD DUP2 PUSH1 0xFF MUL NOT AND SWAP1 DUP4 ISZERO ISZERO MUL OR SWAP1 SSTORE POP POP POP POP POP JUMP JUMPDEST PUSH1 0x1 DUP2 DUP2 SLOAD DUP2 LT PUSH2 0x332 JUMPI PUSH1 0x0 DUP1 REVERT JUMPDEST SWAP1 PUSH1 0x0 MSTORE PUSH1 0x20 PUSH1 0x0 KECCAK256 SWAP1 PUSH1 0x2 MUL ADD PUSH1 0x0 SWAP2 POP SWAP1 POP DUP1 PUSH1 0x0 ADD DUP1 SLOAD PUSH2 0x355 SWAP1 PUSH2 0x780 JUMP JUMPDEST DUP1 PUSH1 0x1F ADD PUSH1 0x20 DUP1 SWAP2 DIV MUL PUSH1 0x20 ADD PUSH1 0x40 MLOAD SWAP1 DUP2 ADD PUSH1 0x40 MSTORE DUP1 SWAP3 SWAP2 SWAP1 DUP2 DUP2 MSTORE PUSH1 0x20 ADD DUP3 DUP1 SLOAD PUSH2 0x381 SWAP1 PUSH2 0x780 JUMP JUMPDEST DUP1 ISZERO PUSH2 0x3CE JUMPI DUP1 PUSH1 0x1F LT PUSH2 0x3A3 JUMPI PUSH2 0x100 DUP1 DUP4 SLOAD DIV MUL DUP4 MSTORE SWAP2 PUSH1 0x20 ADD SWAP2 PUSH2 0x3CE JUMP JUMPDEST DUP3 ADD SWAP2 SWAP1 PUSH1 0x0 MSTORE PUSH1 0x20 PUSH1 0x0 KECCAK256 SWAP1 JUMPDEST DUP2 SLOAD DUP2 MSTORE SWAP1 PUSH1 0x1 ADD SWAP1 PUSH1 0x20 ADD DUP1 DUP4 GT PUSH2 0x3B1 JUMPI DUP3 SWAP1 SUB PUSH1 0x1F AND DUP3 ADD SWAP2 JUMPDEST POP POP POP POP POP SWAP1 DUP1 PUSH1 0x1 ADD PUSH1 0x0 SWAP1 SLOAD SWAP1 PUSH2 0x100 EXP SWAP1 DIV PUSH1 0xFF AND SWAP1 POP DUP3 JUMP JUMPDEST DUP3 DUP1 SLOAD PUSH2 0x3F7 SWAP1 PUSH2 0x780 JUMP JUMPDEST SWAP1 PUSH1 0x0 MSTORE PUSH1 0x20 PUSH1 0x0 KECCAK256 SWAP1 PUSH1 0x1F ADD PUSH1 0x20 SWAP1 DIV DUP2 ADD SWAP3 DUP3 PUSH2 0x419 JUMPI PUSH1 0x0 DUP6 SSTORE PUSH2 0x467 JUMP JUMPDEST DUP3 PUSH1 0x1F LT PUSH2 0x42A JUMPI DUP1 SLOAD DUP6 SSTORE PUSH2 0x467 JUMP JUMPDEST DUP3 DUP1 ADD PUSH1 0x1 ADD DUP6 SSTORE DUP3 ISZERO PUSH2 0x467 JUMPI PUSH1 0x0 MSTORE PUSH1 0x20 PUSH1 0x0 KECCAK256 SWAP2 PUSH1 0x1F ADD PUSH1 0x20 SWAP1 DIV DUP3 ADD JUMPDEST DUP3 DUP2 GT ISZERO PUSH2 0x466 JUMPI DUP3 SLOAD DUP3 SSTORE SWAP2 PUSH1 0x1 ADD SWAP2 SWAP1 PUSH1 0x1 ADD SWAP1 PUSH2 0x44B JUMP JUMPDEST JUMPDEST POP SWAP1 POP PUSH2 0x474 SWAP2 SWAP1 PUSH2 0x4FE JUMP JUMPDEST POP SWAP1 JUMP JUMPDEST DUP3 DUP1 SLOAD PUSH2 0x484 SWAP1 PUSH2 0x780 JUMP JUMPDEST SWAP1 PUSH1 0x0 MSTORE PUSH1 0x20 PUSH1 0x0 KECCAK256 SWAP1 PUSH1 0x1F ADD PUSH1 0x20 SWAP1 DIV DUP2 ADD SWAP3 DUP3 PUSH2 0x4A6 JUMPI PUSH1 0x0 DUP6 SSTORE PUSH2 0x4ED JUMP JUMPDEST DUP3 PUSH1 0x1F LT PUSH2 0x4BF JUMPI DUP1 MLOAD PUSH1 0xFF NOT AND DUP4 DUP1 ADD OR DUP6 SSTORE PUSH2 0x4ED JUMP JUMPDEST DUP3 DUP1 ADD PUSH1 0x1 ADD DUP6 SSTORE DUP3 ISZERO PUSH2 0x4ED JUMPI SWAP2 DUP3 ADD JUMPDEST DUP3 DUP2 GT ISZERO PUSH2 0x4EC JUMPI DUP3 MLOAD DUP3 SSTORE SWAP2 PUSH1 0x20 ADD SWAP2 SWAP1 PUSH1 0x1 ADD SWAP1 PUSH2 0x4D1 JUMP JUMPDEST JUMPDEST POP SWAP1 POP PUSH2 0x4FA SWAP2 SWAP1 PUSH2 0x4FE JUMP JUMPDEST POP SWAP1 JUMP JUMPDEST JUMPDEST DUP1 DUP3 GT ISZERO PUSH2 0x517 JUMPI PUSH1 0x0 DUP2 PUSH1 0x0 SWAP1 SSTORE POP PUSH1 0x1 ADD PUSH2 0x4FF JUMP JUMPDEST POP SWAP1 JUMP JUMPDEST PUSH1 0x0 PUSH2 0x52E PUSH2 0x529 DUP5 PUSH2 0x6DB JUMP JUMPDEST PUSH2 0x6B6 JUMP JUMPDEST SWAP1 POP DUP3 DUP2 MSTORE PUSH1 0x20 DUP2 ADD DUP5 DUP5 DUP5 ADD GT ISZERO PUSH2 0x54A JUMPI PUSH2 0x549 PUSH2 0x8ED JUMP JUMPDEST JUMPDEST PUSH2 0x555 DUP5 DUP3 DUP6 PUSH2 0x73E JUMP JUMPDEST POP SWAP4 SWAP3 POP POP POP JUMP JUMPDEST PUSH1 0x0 DUP2 CALLDATALOAD SWAP1 POP PUSH2 0x56C DUP2 PUSH2 0x90D JUMP JUMPDEST SWAP3 SWAP2 POP POP JUMP JUMPDEST PUSH1 0x0 DUP3 PUSH1 0x1F DUP4 ADD SLT PUSH2 0x587 JUMPI PUSH2 0x586 PUSH2 0x8E8 JUMP JUMPDEST JUMPDEST DUP2 CALLDATALOAD PUSH2 0x597 DUP5 DUP3 PUSH1 0x20 DUP7 ADD PUSH2 0x51B JUMP JUMPDEST SWAP2 POP POP SWAP3 SWAP2 POP POP JUMP JUMPDEST PUSH1 0x0 DUP2 CALLDATALOAD SWAP1 POP PUSH2 0x5AF DUP2 PUSH2 0x924 JUMP JUMPDEST SWAP3 SWAP2 POP POP JUMP JUMPDEST PUSH1 0x0 DUP1 PUSH1 0x40 DUP4 DUP6 SUB SLT ISZERO PUSH2 0x5CC JUMPI PUSH2 0x5CB PUSH2 0x8F7 JUMP JUMPDEST JUMPDEST PUSH1 0x0 DUP4 ADD CALLDATALOAD PUSH8 0xFFFFFFFFFFFFFFFF DUP2 GT ISZERO PUSH2 0x5EA JUMPI PUSH2 0x5E9 PUSH2 0x8F2 JUMP JUMPDEST JUMPDEST PUSH2 0x5F6 DUP6 DUP3 DUP7 ADD PUSH2 0x572 JUMP JUMPDEST SWAP3 POP POP PUSH1 0x20 PUSH2 0x607 DUP6 DUP3 DUP7 ADD PUSH2 0x55D JUMP JUMPDEST SWAP2 POP POP SWAP3 POP SWAP3 SWAP1 POP JUMP JUMPDEST PUSH1 0x0 PUSH1 0x20 DUP3 DUP5 SUB SLT ISZERO PUSH2 0x627 JUMPI PUSH2 0x626 PUSH2 0x8F7 JUMP JUMPDEST JUMPDEST PUSH1 0x0 PUSH2 0x635 DUP5 DUP3 DUP6 ADD PUSH2 0x5A0 JUMP JUMPDEST SWAP2 POP POP SWAP3 SWAP2 POP POP JUMP JUMPDEST PUSH2 0x647 DUP2 PUSH2 0x728 JUMP JUMPDEST DUP3 MSTORE POP POP JUMP JUMPDEST PUSH1 0x0 PUSH2 0x658 DUP3 PUSH2 0x70C JUMP JUMPDEST PUSH2 0x662 DUP2 DUP6 PUSH2 0x717 JUMP JUMPDEST SWAP4 POP PUSH2 0x672 DUP2 DUP6 PUSH1 0x20 DUP7 ADD PUSH2 0x74D JUMP JUMPDEST PUSH2 0x67B DUP2 PUSH2 0x8FC JUMP JUMPDEST DUP5 ADD SWAP2 POP POP SWAP3 SWAP2 POP POP JUMP JUMPDEST PUSH1 0x0 PUSH1 0x40 DUP3 ADD SWAP1 POP DUP2 DUP2 SUB PUSH1 0x0 DUP4 ADD MSTORE PUSH2 0x6A0 DUP2 DUP6 PUSH2 0x64D JUMP JUMPDEST SWAP1 POP PUSH2 0x6AF PUSH1 0x20 DUP4 ADD DUP5 PUSH2 0x63E JUMP JUMPDEST SWAP4 SWAP3 POP POP POP JUMP JUMPDEST PUSH1 0x0 PUSH2 0x6C0 PUSH2 0x6D1 JUMP JUMPDEST SWAP1 POP PUSH2 0x6CC DUP3 DUP3 PUSH2 0x7B2 JUMP JUMPDEST SWAP2 SWAP1 POP JUMP JUMPDEST PUSH1 0x0 PUSH1 0x40 MLOAD SWAP1 POP SWAP1 JUMP JUMPDEST PUSH1 0x0 PUSH8 0xFFFFFFFFFFFFFFFF DUP3 GT ISZERO PUSH2 0x6F6 JUMPI PUSH2 0x6F5 PUSH2 0x8B9 JUMP JUMPDEST JUMPDEST PUSH2 0x6FF DUP3 PUSH2 0x8FC JUMP JUMPDEST SWAP1 POP PUSH1 0x20 DUP2 ADD SWAP1 POP SWAP2 SWAP1 POP JUMP JUMPDEST PUSH1 0x0 DUP2 MLOAD SWAP1 POP SWAP2 SWAP1 POP JUMP JUMPDEST PUSH1 0x0 DUP3 DUP3 MSTORE PUSH1 0x20 DUP3 ADD SWAP1 POP SWAP3 SWAP2 POP POP JUMP JUMPDEST PUSH1 0x0 DUP2 ISZERO ISZERO SWAP1 POP SWAP2 SWAP1 POP JUMP JUMPDEST PUSH1 0x0 DUP2 SWAP1 POP SWAP2 SWAP1 POP JUMP JUMPDEST DUP3 DUP2 DUP4 CALLDATACOPY PUSH1 0x0 DUP4 DUP4 ADD MSTORE POP POP POP JUMP JUMPDEST PUSH1 0x0 JUMPDEST DUP4 DUP2 LT ISZERO PUSH2 0x76B JUMPI DUP1 DUP3 ADD MLOAD DUP2 DUP5 ADD MSTORE PUSH1 0x20 DUP2 ADD SWAP1 POP PUSH2 0x750 JUMP JUMPDEST DUP4 DUP2 GT ISZERO PUSH2 0x77A JUMPI PUSH1 0x0 DUP5 DUP5 ADD MSTORE JUMPDEST POP POP POP POP JUMP JUMPDEST PUSH1 0x0 PUSH1 0x2 DUP3 DIV SWAP1 POP PUSH1 0x1 DUP3 AND DUP1 PUSH2 0x798 JUMPI PUSH1 0x7F DUP3 AND SWAP2 POP JUMPDEST PUSH1 0x20 DUP3 LT DUP2 EQ ISZERO PUSH2 0x7AC JUMPI PUSH2 0x7AB PUSH2 0x85B JUMP JUMPDEST JUMPDEST POP SWAP2 SWAP1 POP JUMP JUMPDEST PUSH2 0x7BB DUP3 PUSH2 0x8FC JUMP JUMPDEST DUP2 ADD DUP2 DUP2 LT PUSH8 0xFFFFFFFFFFFFFFFF DUP3 GT OR ISZERO PUSH2 0x7DA JUMPI PUSH2 0x7D9 PUSH2 0x8B9 JUMP JUMPDEST JUMPDEST DUP1 PUSH1 0x40 MSTORE POP POP POP JUMP JUMPDEST PUSH1 0x0 PUSH2 0x7EE DUP3 PUSH2 0x734 JUMP JUMPDEST SWAP2 POP PUSH32 0xFFFFFFFFFFFFFFFFFFFFFFFFFFFFFFFFFFFFFFFFFFFFFFFFFFFFFFFFFFFFFFFF DUP3 EQ ISZERO PUSH2 0x821 JUMPI PUSH2 0x820 PUSH2 0x82C JUMP JUMPDEST JUMPDEST PUSH1 0x1 DUP3 ADD SWAP1 POP SWAP2 SWAP1 POP JUMP JUMPDEST PUSH32 0x4E487B7100000000000000000000000000000000000000000000000000000000 PUSH1 0x0 MSTORE PUSH1 0x11 PUSH1 0x4 MSTORE PUSH1 0x24 PUSH1 0x0 REVERT JUMPDEST PUSH32 0x4E487B7100000000000000000000000000000000000000000000000000000000 PUSH1 0x0 MSTORE PUSH1 0x22 PUSH1 0x4 MSTORE PUSH1 0x24 PUSH1 0x0 REVERT JUMPDEST PUSH32 0x4E487B7100000000000000000000000000000000000000000000000000000000 PUSH1 0x0 MSTORE PUSH1 0x32 PUSH1 0x4 MSTORE PUSH1 0x24 PUSH1 0x0 REVERT JUMPDEST PUSH32 0x4E487B7100000000000000000000000000000000000000000000000000000000 PUSH1 0x0 MSTORE PUSH1 0x41 PUSH1 0x4 MSTORE PUSH1 0x24 PUSH1 0x0 REVERT JUMPDEST PUSH1 0x0 DUP1 REVERT JUMPDEST PUSH1 0x0 DUP1 REVERT JUMPDEST PUSH1 0x0 DUP1 REVERT JUMPDEST PUSH1 0x0 DUP1 REVERT JUMPDEST PUSH1 0x0 PUSH1 0x1F NOT PUSH1 0x1F DUP4 ADD AND SWAP1 POP SWAP2 SWAP1 POP JUMP JUMPDEST PUSH2 0x916 DUP2 PUSH2 0x728 JUMP JUMPDEST DUP2 EQ PUSH2 0x921 JUMPI PUSH1 0x0 DUP1 REVERT JUMPDEST POP JUMP JUMPDEST PUSH2 0x92D DUP2 PUSH2 0x734 JUMP JUMPDEST DUP2 EQ PUSH2 0x938 JUMPI PUSH1 0x0 DUP1 REVERT JUMPDEST POP JUMP INVALID LOG2 PUSH5 0x6970667358 0x22 SLT KECCAK256 0x29 0xCE REVERT 0xF SWAP1 SWAP4 SLT 0xE9 SMOD 0x5F 0x5F 0xAF DUP16 PUSH25 0xEEDBF7ED1193349C8823909648E4950BB6B964736F6C634300 ADDMOD SMOD STOP CALLER "
				},
				"gasEstimates": {
					"creation": {
						"codeDepositCost": "483400",
						"executionCost": "518",
						"totalCost": "483918"
					},
					"external": {
						"addFriend(string,bool)": "infinite",
						"friendList(uint256)": "infinite",
						"guestList(uint256)": "infinite",
						"whoWillCome()": "infinite"
					}
				},
				"methodIdentifiers": {
					"addFriend(string,bool)": "756030b9",
					"friendList(uint256)": "21668a01",
					"guestList(uint256)": "f5fccd8f",
					"whoWillCome()": "552b71c3"
				}
			},
			"storageLayout": {
				"storage": [
					{
						"astId": 10,
						"contract": "contracts/SmallStruct.sol:MyContract",
						"label": "friendList",
						"offset": 0,
						"slot": "0",
						"type": "t_array(t_struct(Friends)6_storage)dyn_storage"
					},
					{
						"astId": 14,
						"contract": "contracts/SmallStruct.sol:MyContract",
						"label": "guestList",
						"offset": 0,
						"slot": "1",
						"type": "t_array(t_struct(Friends)6_storage)dyn_storage"
					}
				],
				"types": {
					"t_array(t_struct(Friends)6_storage)dyn_storage": {
						"base": "t_struct(Friends)6_storage",
						"encoding": "dynamic_array",
						"label": "struct MyContract.Friends[]",
						"numberOfBytes": "32"
					},
					"t_bool": {
						"encoding": "inplace",
						"label": "bool",
						"numberOfBytes": "1"
					},
					"t_string_storage": {
						"encoding": "bytes",
						"label": "string",
						"numberOfBytes": "32"
					},
					"t_struct(Friends)6_storage": {
						"encoding": "inplace",
						"label": "struct MyContract.Friends",
						"members": [
							{
								"astId": 3,
								"contract": "contracts/SmallStruct.sol:MyContract",
								"label": "name",
								"offset": 0,
								"slot": "0",
								"type": "t_string_storage"
							},
							{
								"astId": 5,
								"contract": "contracts/SmallStruct.sol:MyContract",
								"label": "invited",
								"offset": 0,
								"slot": "1",
								"type": "t_bool"
							}
						],
						"numberOfBytes": "64"
					}
				}
			},
			"userdoc": {
				"kind": "user",
				"methods": {},
				"version": 1
			}
		}
	}
}