{
	"contracts/StructDemo.sol": {
		"StructDemo": {
			"abi": [
				{
					"inputs": [
						{
							"internalType": "address",
							"name": "",
							"type": "address"
						}
					],
					"name": "balanceReceived",
					"outputs": [
						{
							"internalType": "uint256",
							"name": "totalBalance",
							"type": "uint256"
						},
						{
							"internalType": "uint256",
							"name": "numPayments",
							"type": "uint256"
						}
					],
					"stateMutability": "view",
					"type": "function"
				},
				{
					"inputs": [],
					"name": "receiveMoney",
					"outputs": [],
					"stateMutability": "payable",
					"type": "function"
				}
			],
			"devdoc": {
				"kind": "dev",
				"methods": {},
				"version": 1
			},
			"evm": {
				"assembly": "    /* \"contracts/StructDemo.sol\":57:617  contract StructDemo {... */\n  mstore(0x40, 0x80)\n  callvalue\n  dup1\n  iszero\n  tag_1\n  jumpi\n  0x00\n  dup1\n  revert\ntag_1:\n  pop\n  dataSize(sub_0)\n  dup1\n  dataOffset(sub_0)\n  0x00\n  codecopy\n  0x00\n  return\nstop\n\nsub_0: assembly {\n        /* \"contracts/StructDemo.sol\":57:617  contract StructDemo {... */\n      mstore(0x40, 0x80)\n      jumpi(tag_1, lt(calldatasize, 0x04))\n      shr(0xe0, calldataload(0x00))\n      dup1\n      0x6d26ec18\n      eq\n      tag_2\n      jumpi\n      dup1\n      0xd18a42e1\n      eq\n      tag_3\n      jumpi\n    tag_1:\n      0x00\n      dup1\n      revert\n        /* \"contracts/StructDemo.sol\":303:615  function receiveMoney() public payable {... */\n    tag_2:\n      tag_4\n      tag_5\n      jump\t// in\n    tag_4:\n      stop\n        /* \"contracts/StructDemo.sol\":248:298  mapping(address => Balance) public balanceReceived */\n    tag_3:\n      callvalue\n      dup1\n      iszero\n      tag_6\n      jumpi\n      0x00\n      dup1\n      revert\n    tag_6:\n      pop\n      tag_7\n      0x04\n      dup1\n      calldatasize\n      sub\n      dup2\n      add\n      swap1\n      tag_8\n      swap2\n      swap1\n      tag_9\n      jump\t// in\n    tag_8:\n      tag_10\n      jump\t// in\n    tag_7:\n      mload(0x40)\n      tag_11\n      swap3\n      swap2\n      swap1\n      tag_12\n      jump\t// in\n    tag_11:\n      mload(0x40)\n      dup1\n      swap2\n      sub\n      swap1\n      return\n        /* \"contracts/StructDemo.sol\":303:615  function receiveMoney() public payable {... */\n    tag_5:\n        /* \"contracts/StructDemo.sol\":392:401  msg.value */\n      callvalue\n        /* \"contracts/StructDemo.sol\":348:363  balanceReceived */\n      0x00\n        /* \"contracts/StructDemo.sol\":348:375  balanceReceived[msg.sender] */\n      dup1\n        /* \"contracts/StructDemo.sol\":364:374  msg.sender */\n      caller\n        /* \"contracts/StructDemo.sol\":348:375  balanceReceived[msg.sender] */\n      0xffffffffffffffffffffffffffffffffffffffff\n      and\n      0xffffffffffffffffffffffffffffffffffffffff\n      and\n      dup2\n      mstore\n      0x20\n      add\n      swap1\n      dup2\n      mstore\n      0x20\n      add\n      0x00\n      keccak256\n        /* \"contracts/StructDemo.sol\":348:388  balanceReceived[msg.sender].totalBalance */\n      0x00\n      add\n      0x00\n        /* \"contracts/StructDemo.sol\":348:401  balanceReceived[msg.sender].totalBalance += msg.value */\n      dup3\n      dup3\n      sload\n      tag_14\n      swap2\n      swap1\n      tag_15\n      jump\t// in\n    tag_14:\n      swap3\n      pop\n      pop\n      dup2\n      swap1\n      sstore\n      pop\n        /* \"contracts/StructDemo.sol\":407:429  Payment memory payment */\n      0x00\n        /* \"contracts/StructDemo.sol\":432:467  Payment(msg.value, block.timestamp) */\n      mload(0x40)\n      dup1\n      0x40\n      add\n      0x40\n      mstore\n      dup1\n        /* \"contracts/StructDemo.sol\":440:449  msg.value */\n      callvalue\n        /* \"contracts/StructDemo.sol\":432:467  Payment(msg.value, block.timestamp) */\n      dup2\n      mstore\n      0x20\n      add\n        /* \"contracts/StructDemo.sol\":451:466  block.timestamp */\n      timestamp\n        /* \"contracts/StructDemo.sol\":432:467  Payment(msg.value, block.timestamp) */\n      dup2\n      mstore\n      pop\n        /* \"contracts/StructDemo.sol\":407:467  Payment memory payment = Payment(msg.value, block.timestamp) */\n      swap1\n      pop\n        /* \"contracts/StructDemo.sol\":554:561  payment */\n      dup1\n        /* \"contracts/StructDemo.sol\":474:489  balanceReceived */\n      0x00\n        /* \"contracts/StructDemo.sol\":474:501  balanceReceived[msg.sender] */\n      dup1\n        /* \"contracts/StructDemo.sol\":490:500  msg.sender */\n      caller\n        /* \"contracts/StructDemo.sol\":474:501  balanceReceived[msg.sender] */\n      0xffffffffffffffffffffffffffffffffffffffff\n      and\n      0xffffffffffffffffffffffffffffffffffffffff\n      and\n      dup2\n      mstore\n      0x20\n      add\n      swap1\n      dup2\n      mstore\n      0x20\n      add\n      0x00\n      keccak256\n        /* \"contracts/StructDemo.sol\":474:510  balanceReceived[msg.sender].payments */\n      0x02\n      add\n        /* \"contracts/StructDemo.sol\":474:551  balanceReceived[msg.sender].payments[balanceReceived[msg.sender].numPayments] */\n      0x00\n        /* \"contracts/StructDemo.sol\":511:526  balanceReceived */\n      dup1\n        /* \"contracts/StructDemo.sol\":511:538  balanceReceived[msg.sender] */\n      0x00\n        /* \"contracts/StructDemo.sol\":527:537  msg.sender */\n      caller\n        /* \"contracts/StructDemo.sol\":511:538  balanceReceived[msg.sender] */\n      0xffffffffffffffffffffffffffffffffffffffff\n      and\n      0xffffffffffffffffffffffffffffffffffffffff\n      and\n      dup2\n      mstore\n      0x20\n      add\n      swap1\n      dup2\n      mstore\n      0x20\n      add\n      0x00\n      keccak256\n        /* \"contracts/StructDemo.sol\":511:550  balanceReceived[msg.sender].numPayments */\n      0x01\n      add\n      sload\n        /* \"contracts/StructDemo.sol\":474:551  balanceReceived[msg.sender].payments[balanceReceived[msg.sender].numPayments] */\n      dup2\n      mstore\n      0x20\n      add\n      swap1\n      dup2\n      mstore\n      0x20\n      add\n      0x00\n      keccak256\n        /* \"contracts/StructDemo.sol\":474:561  balanceReceived[msg.sender].payments[balanceReceived[msg.sender].numPayments] = payment */\n      0x00\n      dup3\n      add\n      mload\n      dup2\n      0x00\n      add\n      sstore\n      0x20\n      dup3\n      add\n      mload\n      dup2\n      0x01\n      add\n      sstore\n      swap1\n      pop\n      pop\n        /* \"contracts/StructDemo.sol\":567:582  balanceReceived */\n      0x00\n        /* \"contracts/StructDemo.sol\":567:594  balanceReceived[msg.sender] */\n      dup1\n        /* \"contracts/StructDemo.sol\":583:593  msg.sender */\n      caller\n        /* \"contracts/StructDemo.sol\":567:594  balanceReceived[msg.sender] */\n      0xffffffffffffffffffffffffffffffffffffffff\n      and\n      0xffffffffffffffffffffffffffffffffffffffff\n      and\n      dup2\n      mstore\n      0x20\n      add\n      swap1\n      dup2\n      mstore\n      0x20\n      add\n      0x00\n      keccak256\n        /* \"contracts/StructDemo.sol\":567:606  balanceReceived[msg.sender].numPayments */\n      0x01\n      add\n      0x00\n        /* \"contracts/StructDemo.sol\":567:608  balanceReceived[msg.sender].numPayments++ */\n      dup2\n      sload\n      dup1\n      swap3\n      swap2\n      swap1\n      tag_16\n      swap1\n      tag_17\n      jump\t// in\n    tag_16:\n      swap2\n      swap1\n      pop\n      sstore\n      pop\n        /* \"contracts/StructDemo.sol\":342:615  {... */\n      pop\n        /* \"contracts/StructDemo.sol\":303:615  function receiveMoney() public payable {... */\n      jump\t// out\n        /* \"contracts/StructDemo.sol\":248:298  mapping(address => Balance) public balanceReceived */\n    tag_10:\n      mstore(0x20, 0x00)\n      dup1\n      0x00\n      mstore\n      keccak256(0x00, 0x40)\n      0x00\n      swap2\n      pop\n      swap1\n      pop\n      dup1\n      0x00\n      add\n      sload\n      swap1\n      dup1\n      0x01\n      add\n      sload\n      swap1\n      pop\n      dup3\n      jump\t// out\n        /* \"#utility.yul\":7:146   */\n    tag_19:\n        /* \"#utility.yul\":53:58   */\n      0x00\n        /* \"#utility.yul\":91:97   */\n      dup2\n        /* \"#utility.yul\":78:98   */\n      calldataload\n        /* \"#utility.yul\":69:98   */\n      swap1\n      pop\n        /* \"#utility.yul\":107:140   */\n      tag_21\n        /* \"#utility.yul\":134:139   */\n      dup2\n        /* \"#utility.yul\":107:140   */\n      tag_22\n      jump\t// in\n    tag_21:\n        /* \"#utility.yul\":7:146   */\n      swap3\n      swap2\n      pop\n      pop\n      jump\t// out\n        /* \"#utility.yul\":152:481   */\n    tag_9:\n        /* \"#utility.yul\":211:217   */\n      0x00\n        /* \"#utility.yul\":260:262   */\n      0x20\n        /* \"#utility.yul\":248:257   */\n      dup3\n        /* \"#utility.yul\":239:246   */\n      dup5\n        /* \"#utility.yul\":235:258   */\n      sub\n        /* \"#utility.yul\":231:263   */\n      slt\n        /* \"#utility.yul\":228:347   */\n      iszero\n      tag_24\n      jumpi\n        /* \"#utility.yul\":266:345   */\n      tag_25\n      tag_26\n      jump\t// in\n    tag_25:\n        /* \"#utility.yul\":228:347   */\n    tag_24:\n        /* \"#utility.yul\":386:387   */\n      0x00\n        /* \"#utility.yul\":411:464   */\n      tag_27\n        /* \"#utility.yul\":456:463   */\n      dup5\n        /* \"#utility.yul\":447:453   */\n      dup3\n        /* \"#utility.yul\":436:445   */\n      dup6\n        /* \"#utility.yul\":432:454   */\n      add\n        /* \"#utility.yul\":411:464   */\n      tag_19\n      jump\t// in\n    tag_27:\n        /* \"#utility.yul\":401:464   */\n      swap2\n      pop\n        /* \"#utility.yul\":357:474   */\n      pop\n        /* \"#utility.yul\":152:481   */\n      swap3\n      swap2\n      pop\n      pop\n      jump\t// out\n        /* \"#utility.yul\":487:605   */\n    tag_28:\n        /* \"#utility.yul\":574:598   */\n      tag_30\n        /* \"#utility.yul\":592:597   */\n      dup2\n        /* \"#utility.yul\":574:598   */\n      tag_31\n      jump\t// in\n    tag_30:\n        /* \"#utility.yul\":569:572   */\n      dup3\n        /* \"#utility.yul\":562:599   */\n      mstore\n        /* \"#utility.yul\":487:605   */\n      pop\n      pop\n      jump\t// out\n        /* \"#utility.yul\":611:943   */\n    tag_12:\n        /* \"#utility.yul\":732:736   */\n      0x00\n        /* \"#utility.yul\":770:772   */\n      0x40\n        /* \"#utility.yul\":759:768   */\n      dup3\n        /* \"#utility.yul\":755:773   */\n      add\n        /* \"#utility.yul\":747:773   */\n      swap1\n      pop\n        /* \"#utility.yul\":783:854   */\n      tag_33\n        /* \"#utility.yul\":851:852   */\n      0x00\n        /* \"#utility.yul\":840:849   */\n      dup4\n        /* \"#utility.yul\":836:853   */\n      add\n        /* \"#utility.yul\":827:833   */\n      dup6\n        /* \"#utility.yul\":783:854   */\n      tag_28\n      jump\t// in\n    tag_33:\n        /* \"#utility.yul\":864:936   */\n      tag_34\n        /* \"#utility.yul\":932:934   */\n      0x20\n        /* \"#utility.yul\":921:930   */\n      dup4\n        /* \"#utility.yul\":917:935   */\n      add\n        /* \"#utility.yul\":908:914   */\n      dup5\n        /* \"#utility.yul\":864:936   */\n      tag_28\n      jump\t// in\n    tag_34:\n        /* \"#utility.yul\":611:943   */\n      swap4\n      swap3\n      pop\n      pop\n      pop\n      jump\t// out\n        /* \"#utility.yul\":1030:1335   */\n    tag_15:\n        /* \"#utility.yul\":1070:1073   */\n      0x00\n        /* \"#utility.yul\":1089:1109   */\n      tag_38\n        /* \"#utility.yul\":1107:1108   */\n      dup3\n        /* \"#utility.yul\":1089:1109   */\n      tag_31\n      jump\t// in\n    tag_38:\n        /* \"#utility.yul\":1084:1109   */\n      swap2\n      pop\n        /* \"#utility.yul\":1123:1143   */\n      tag_39\n        /* \"#utility.yul\":1141:1142   */\n      dup4\n        /* \"#utility.yul\":1123:1143   */\n      tag_31\n      jump\t// in\n    tag_39:\n        /* \"#utility.yul\":1118:1143   */\n      swap3\n      pop\n        /* \"#utility.yul\":1277:1278   */\n      dup3\n        /* \"#utility.yul\":1209:1275   */\n      0xffffffffffffffffffffffffffffffffffffffffffffffffffffffffffffffff\n        /* \"#utility.yul\":1205:1279   */\n      sub\n        /* \"#utility.yul\":1202:1203   */\n      dup3\n        /* \"#utility.yul\":1199:1280   */\n      gt\n        /* \"#utility.yul\":1196:1303   */\n      iszero\n      tag_40\n      jumpi\n        /* \"#utility.yul\":1283:1301   */\n      tag_41\n      tag_42\n      jump\t// in\n    tag_41:\n        /* \"#utility.yul\":1196:1303   */\n    tag_40:\n        /* \"#utility.yul\":1327:1328   */\n      dup3\n        /* \"#utility.yul\":1324:1325   */\n      dup3\n        /* \"#utility.yul\":1320:1329   */\n      add\n        /* \"#utility.yul\":1313:1329   */\n      swap1\n      pop\n        /* \"#utility.yul\":1030:1335   */\n      swap3\n      swap2\n      pop\n      pop\n      jump\t// out\n        /* \"#utility.yul\":1341:1437   */\n    tag_43:\n        /* \"#utility.yul\":1378:1385   */\n      0x00\n        /* \"#utility.yul\":1407:1431   */\n      tag_45\n        /* \"#utility.yul\":1425:1430   */\n      dup3\n        /* \"#utility.yul\":1407:1431   */\n      tag_46\n      jump\t// in\n    tag_45:\n        /* \"#utility.yul\":1396:1431   */\n      swap1\n      pop\n        /* \"#utility.yul\":1341:1437   */\n      swap2\n      swap1\n      pop\n      jump\t// out\n        /* \"#utility.yul\":1443:1569   */\n    tag_46:\n        /* \"#utility.yul\":1480:1487   */\n      0x00\n        /* \"#utility.yul\":1520:1562   */\n      0xffffffffffffffffffffffffffffffffffffffff\n        /* \"#utility.yul\":1513:1518   */\n      dup3\n        /* \"#utility.yul\":1509:1563   */\n      and\n        /* \"#utility.yul\":1498:1563   */\n      swap1\n      pop\n        /* \"#utility.yul\":1443:1569   */\n      swap2\n      swap1\n      pop\n      jump\t// out\n        /* \"#utility.yul\":1575:1652   */\n    tag_31:\n        /* \"#utility.yul\":1612:1619   */\n      0x00\n        /* \"#utility.yul\":1641:1646   */\n      dup2\n        /* \"#utility.yul\":1630:1646   */\n      swap1\n      pop\n        /* \"#utility.yul\":1575:1652   */\n      swap2\n      swap1\n      pop\n      jump\t// out\n        /* \"#utility.yul\":1658:1891   */\n    tag_17:\n        /* \"#utility.yul\":1697:1700   */\n      0x00\n        /* \"#utility.yul\":1720:1744   */\n      tag_50\n        /* \"#utility.yul\":1738:1743   */\n      dup3\n        /* \"#utility.yul\":1720:1744   */\n      tag_31\n      jump\t// in\n    tag_50:\n        /* \"#utility.yul\":1711:1744   */\n      swap2\n      pop\n        /* \"#utility.yul\":1766:1832   */\n      0xffffffffffffffffffffffffffffffffffffffffffffffffffffffffffffffff\n        /* \"#utility.yul\":1759:1764   */\n      dup3\n        /* \"#utility.yul\":1756:1833   */\n      eq\n        /* \"#utility.yul\":1753:1856   */\n      iszero\n      tag_51\n      jumpi\n        /* \"#utility.yul\":1836:1854   */\n      tag_52\n      tag_42\n      jump\t// in\n    tag_52:\n        /* \"#utility.yul\":1753:1856   */\n    tag_51:\n        /* \"#utility.yul\":1883:1884   */\n      0x01\n        /* \"#utility.yul\":1876:1881   */\n      dup3\n        /* \"#utility.yul\":1872:1885   */\n      add\n        /* \"#utility.yul\":1865:1885   */\n      swap1\n      pop\n        /* \"#utility.yul\":1658:1891   */\n      swap2\n      swap1\n      pop\n      jump\t// out\n        /* \"#utility.yul\":1897:2077   */\n    tag_42:\n        /* \"#utility.yul\":1945:2022   */\n      0x4e487b7100000000000000000000000000000000000000000000000000000000\n        /* \"#utility.yul\":1942:1943   */\n      0x00\n        /* \"#utility.yul\":1935:2023   */\n      mstore\n        /* \"#utility.yul\":2042:2046   */\n      0x11\n        /* \"#utility.yul\":2039:2040   */\n      0x04\n        /* \"#utility.yul\":2032:2047   */\n      mstore\n        /* \"#utility.yul\":2066:2070   */\n      0x24\n        /* \"#utility.yul\":2063:2064   */\n      0x00\n        /* \"#utility.yul\":2056:2071   */\n      revert\n        /* \"#utility.yul\":2206:2323   */\n    tag_26:\n        /* \"#utility.yul\":2315:2316   */\n      0x00\n        /* \"#utility.yul\":2312:2313   */\n      dup1\n        /* \"#utility.yul\":2305:2317   */\n      revert\n        /* \"#utility.yul\":2329:2451   */\n    tag_22:\n        /* \"#utility.yul\":2402:2426   */\n      tag_58\n        /* \"#utility.yul\":2420:2425   */\n      dup2\n        /* \"#utility.yul\":2402:2426   */\n      tag_43\n      jump\t// in\n    tag_58:\n        /* \"#utility.yul\":2395:2400   */\n      dup2\n        /* \"#utility.yul\":2392:2427   */\n      eq\n        /* \"#utility.yul\":2382:2445   */\n      tag_59\n      jumpi\n        /* \"#utility.yul\":2441:2442   */\n      0x00\n        /* \"#utility.yul\":2438:2439   */\n      dup1\n        /* \"#utility.yul\":2431:2443   */\n      revert\n        /* \"#utility.yul\":2382:2445   */\n    tag_59:\n        /* \"#utility.yul\":2329:2451   */\n      pop\n      jump\t// out\n\n    auxdata: 0xa26469706673582212206fbb82dc2848ef8489a6a36a1a236311677c9f543abd536cec35c406c2f02c8864736f6c63430008070033\n}\n",
				"bytecode": {
					"linkReferences": {},
					"object": "608060405234801561001057600080fd5b506103e6806100206000396000f3fe6080604052600436106100295760003560e01c80636d26ec181461002e578063d18a42e114610038575b600080fd5b610036610076565b005b34801561004457600080fd5b5061005f600480360381019061005a9190610225565b6101ec565b60405161006d929190610261565b60405180910390f35b346000803373ffffffffffffffffffffffffffffffffffffffff1673ffffffffffffffffffffffffffffffffffffffff16815260200190815260200160002060000160008282546100c7919061028a565b9250508190555060006040518060400160405280348152602001428152509050806000803373ffffffffffffffffffffffffffffffffffffffff1673ffffffffffffffffffffffffffffffffffffffff16815260200190815260200160002060020160008060003373ffffffffffffffffffffffffffffffffffffffff1673ffffffffffffffffffffffffffffffffffffffff16815260200190815260200160002060010154815260200190815260200160002060008201518160000155602082015181600101559050506000803373ffffffffffffffffffffffffffffffffffffffff1673ffffffffffffffffffffffffffffffffffffffff16815260200190815260200160002060010160008154809291906101e49061031c565b919050555050565b60006020528060005260406000206000915090508060000154908060010154905082565b60008135905061021f81610399565b92915050565b60006020828403121561023b5761023a610394565b5b600061024984828501610210565b91505092915050565b61025b81610312565b82525050565b60006040820190506102766000830185610252565b6102836020830184610252565b9392505050565b600061029582610312565b91506102a083610312565b9250827fffffffffffffffffffffffffffffffffffffffffffffffffffffffffffffffff038211156102d5576102d4610365565b5b828201905092915050565b60006102eb826102f2565b9050919050565b600073ffffffffffffffffffffffffffffffffffffffff82169050919050565b6000819050919050565b600061032782610312565b91507fffffffffffffffffffffffffffffffffffffffffffffffffffffffffffffffff82141561035a57610359610365565b5b600182019050919050565b7f4e487b7100000000000000000000000000000000000000000000000000000000600052601160045260246000fd5b600080fd5b6103a2816102e0565b81146103ad57600080fd5b5056fea26469706673582212206fbb82dc2848ef8489a6a36a1a236311677c9f543abd536cec35c406c2f02c8864736f6c63430008070033",
					"opcodes": "PUSH1 0x80 PUSH1 0x40 MSTORE CALLVALUE DUP1 ISZERO PUSH2 0x10 JUMPI PUSH1 0x0 DUP1 REVERT JUMPDEST POP PUSH2 0x3E6 DUP1 PUSH2 0x20 PUSH1 0x0 CODECOPY PUSH1 0x0 RETURN INVALID PUSH1 0x80 PUSH1 0x40 MSTORE PUSH1 0x4 CALLDATASIZE LT PUSH2 0x29 JUMPI PUSH1 0x0 CALLDATALOAD PUSH1 0xE0 SHR DUP1 PUSH4 0x6D26EC18 EQ PUSH2 0x2E JUMPI DUP1 PUSH4 0xD18A42E1 EQ PUSH2 0x38 JUMPI JUMPDEST PUSH1 0x0 DUP1 REVERT JUMPDEST PUSH2 0x36 PUSH2 0x76 JUMP JUMPDEST STOP JUMPDEST CALLVALUE DUP1 ISZERO PUSH2 0x44 JUMPI PUSH1 0x0 DUP1 REVERT JUMPDEST POP PUSH2 0x5F PUSH1 0x4 DUP1 CALLDATASIZE SUB DUP2 ADD SWAP1 PUSH2 0x5A SWAP2 SWAP1 PUSH2 0x225 JUMP JUMPDEST PUSH2 0x1EC JUMP JUMPDEST PUSH1 0x40 MLOAD PUSH2 0x6D SWAP3 SWAP2 SWAP1 PUSH2 0x261 JUMP JUMPDEST PUSH1 0x40 MLOAD DUP1 SWAP2 SUB SWAP1 RETURN JUMPDEST CALLVALUE PUSH1 0x0 DUP1 CALLER PUSH20 0xFFFFFFFFFFFFFFFFFFFFFFFFFFFFFFFFFFFFFFFF AND PUSH20 0xFFFFFFFFFFFFFFFFFFFFFFFFFFFFFFFFFFFFFFFF AND DUP2 MSTORE PUSH1 0x20 ADD SWAP1 DUP2 MSTORE PUSH1 0x20 ADD PUSH1 0x0 KECCAK256 PUSH1 0x0 ADD PUSH1 0x0 DUP3 DUP3 SLOAD PUSH2 0xC7 SWAP2 SWAP1 PUSH2 0x28A JUMP JUMPDEST SWAP3 POP POP DUP2 SWAP1 SSTORE POP PUSH1 0x0 PUSH1 0x40 MLOAD DUP1 PUSH1 0x40 ADD PUSH1 0x40 MSTORE DUP1 CALLVALUE DUP2 MSTORE PUSH1 0x20 ADD TIMESTAMP DUP2 MSTORE POP SWAP1 POP DUP1 PUSH1 0x0 DUP1 CALLER PUSH20 0xFFFFFFFFFFFFFFFFFFFFFFFFFFFFFFFFFFFFFFFF AND PUSH20 0xFFFFFFFFFFFFFFFFFFFFFFFFFFFFFFFFFFFFFFFF AND DUP2 MSTORE PUSH1 0x20 ADD SWAP1 DUP2 MSTORE PUSH1 0x20 ADD PUSH1 0x0 KECCAK256 PUSH1 0x2 ADD PUSH1 0x0 DUP1 PUSH1 0x0 CALLER PUSH20 0xFFFFFFFFFFFFFFFFFFFFFFFFFFFFFFFFFFFFFFFF AND PUSH20 0xFFFFFFFFFFFFFFFFFFFFFFFFFFFFFFFFFFFFFFFF AND DUP2 MSTORE PUSH1 0x20 ADD SWAP1 DUP2 MSTORE PUSH1 0x20 ADD PUSH1 0x0 KECCAK256 PUSH1 0x1 ADD SLOAD DUP2 MSTORE PUSH1 0x20 ADD SWAP1 DUP2 MSTORE PUSH1 0x20 ADD PUSH1 0x0 KECCAK256 PUSH1 0x0 DUP3 ADD MLOAD DUP2 PUSH1 0x0 ADD SSTORE PUSH1 0x20 DUP3 ADD MLOAD DUP2 PUSH1 0x1 ADD SSTORE SWAP1 POP POP PUSH1 0x0 DUP1 CALLER PUSH20 0xFFFFFFFFFFFFFFFFFFFFFFFFFFFFFFFFFFFFFFFF AND PUSH20 0xFFFFFFFFFFFFFFFFFFFFFFFFFFFFFFFFFFFFFFFF AND DUP2 MSTORE PUSH1 0x20 ADD SWAP1 DUP2 MSTORE PUSH1 0x20 ADD PUSH1 0x0 KECCAK256 PUSH1 0x1 ADD PUSH1 0x0 DUP2 SLOAD DUP1 SWAP3 SWAP2 SWAP1 PUSH2 0x1E4 SWAP1 PUSH2 0x31C JUMP JUMPDEST SWAP2 SWAP1 POP SSTORE POP POP JUMP JUMPDEST PUSH1 0x0 PUSH1 0x20 MSTORE DUP1 PUSH1 0x0 MSTORE PUSH1 0x40 PUSH1 0x0 KECCAK256 PUSH1 0x0 SWAP2 POP SWAP1 POP DUP1 PUSH1 0x0 ADD SLOAD SWAP1 DUP1 PUSH1 0x1 ADD SLOAD SWAP1 POP DUP3 JUMP JUMPDEST PUSH1 0x0 DUP2 CALLDATALOAD SWAP1 POP PUSH2 0x21F DUP2 PUSH2 0x399 JUMP JUMPDEST SWAP3 SWAP2 POP POP JUMP JUMPDEST PUSH1 0x0 PUSH1 0x20 DUP3 DUP5 SUB SLT ISZERO PUSH2 0x23B JUMPI PUSH2 0x23A PUSH2 0x394 JUMP JUMPDEST JUMPDEST PUSH1 0x0 PUSH2 0x249 DUP5 DUP3 DUP6 ADD PUSH2 0x210 JUMP JUMPDEST SWAP2 POP POP SWAP3 SWAP2 POP POP JUMP JUMPDEST PUSH2 0x25B DUP2 PUSH2 0x312 JUMP JUMPDEST DUP3 MSTORE POP POP JUMP JUMPDEST PUSH1 0x0 PUSH1 0x40 DUP3 ADD SWAP1 POP PUSH2 0x276 PUSH1 0x0 DUP4 ADD DUP6 PUSH2 0x252 JUMP JUMPDEST PUSH2 0x283 PUSH1 0x20 DUP4 ADD DUP5 PUSH2 0x252 JUMP JUMPDEST SWAP4 SWAP3 POP POP POP JUMP JUMPDEST PUSH1 0x0 PUSH2 0x295 DUP3 PUSH2 0x312 JUMP JUMPDEST SWAP2 POP PUSH2 0x2A0 DUP4 PUSH2 0x312 JUMP JUMPDEST SWAP3 POP DUP3 PUSH32 0xFFFFFFFFFFFFFFFFFFFFFFFFFFFFFFFFFFFFFFFFFFFFFFFFFFFFFFFFFFFFFFFF SUB DUP3 GT ISZERO PUSH2 0x2D5 JUMPI PUSH2 0x2D4 PUSH2 0x365 JUMP JUMPDEST JUMPDEST DUP3 DUP3 ADD SWAP1 POP SWAP3 SWAP2 POP POP JUMP JUMPDEST PUSH1 0x0 PUSH2 0x2EB DUP3 PUSH2 0x2F2 JUMP JUMPDEST SWAP1 POP SWAP2 SWAP1 POP JUMP JUMPDEST PUSH1 0x0 PUSH20 0xFFFFFFFFFFFFFFFFFFFFFFFFFFFFFFFFFFFFFFFF DUP3 AND SWAP1 POP SWAP2 SWAP1 POP JUMP JUMPDEST PUSH1 0x0 DUP2 SWAP1 POP SWAP2 SWAP1 POP JUMP JUMPDEST PUSH1 0x0 PUSH2 0x327 DUP3 PUSH2 0x312 JUMP JUMPDEST SWAP2 POP PUSH32 0xFFFFFFFFFFFFFFFFFFFFFFFFFFFFFFFFFFFFFFFFFFFFFFFFFFFFFFFFFFFFFFFF DUP3 EQ ISZERO PUSH2 0x35A JUMPI PUSH2 0x359 PUSH2 0x365 JUMP JUMPDEST JUMPDEST PUSH1 0x1 DUP3 ADD SWAP1 POP SWAP2 SWAP1 POP JUMP JUMPDEST PUSH32 0x4E487B7100000000000000000000000000000000000000000000000000000000 PUSH1 0x0 MSTORE PUSH1 0x11 PUSH1 0x4 MSTORE PUSH1 0x24 PUSH1 0x0 REVERT JUMPDEST PUSH1 0x0 DUP1 REVERT JUMPDEST PUSH2 0x3A2 DUP2 PUSH2 0x2E0 JUMP JUMPDEST DUP2 EQ PUSH2 0x3AD JUMPI PUSH1 0x0 DUP1 REVERT JUMPDEST POP JUMP INVALID LOG2 PUSH5 0x6970667358 0x22 SLT KECCAK256 PUSH16 0xBB82DC2848EF8489A6A36A1A23631167 PUSH29 0x9F543ABD536CEC35C406C2F02C8864736F6C6343000807003300000000 "
				},
				"gasEstimates": {
					"creation": {
						"codeDepositCost": "199600",
						"executionCost": "245",
						"totalCost": "199845"
					},
					"external": {
						"balanceReceived(address)": "infinite",
						"receiveMoney()": "infinite"
					}
				},
				"methodIdentifiers": {
					"balanceReceived(address)": "d18a42e1",
					"receiveMoney()": "6d26ec18"
				}
			},
			"storageLayout": {
				"storage": [
					{
						"astId": 21,
						"contract": "contracts/StructDemo.sol:StructDemo",
						"label": "balanceReceived",
						"offset": 0,
						"slot": "0",
						"type": "t_mapping(t_address,t_struct(Balance)16_storage)"
					}
				],
				"types": {
					"t_address": {
						"encoding": "inplace",
						"label": "address",
						"numberOfBytes": "20"
					},
					"t_mapping(t_address,t_struct(Balance)16_storage)": {
						"encoding": "mapping",
						"key": "t_address",
						"label": "mapping(address => struct StructDemo.Balance)",
						"numberOfBytes": "32",
						"value": "t_struct(Balance)16_storage"
					},
					"t_mapping(t_uint256,t_struct(Payment)6_storage)": {
						"encoding": "mapping",
						"key": "t_uint256",
						"label": "mapping(uint256 => struct StructDemo.Payment)",
						"numberOfBytes": "32",
						"value": "t_struct(Payment)6_storage"
					},
					"t_struct(Balance)16_storage": {
						"encoding": "inplace",
						"label": "struct StructDemo.Balance",
						"members": [
							{
								"astId": 8,
								"contract": "contracts/StructDemo.sol:StructDemo",
								"label": "totalBalance",
								"offset": 0,
								"slot": "0",
								"type": "t_uint256"
							},
							{
								"astId": 10,
								"contract": "contracts/StructDemo.sol:StructDemo",
								"label": "numPayments",
								"offset": 0,
								"slot": "1",
								"type": "t_uint256"
							},
							{
								"astId": 15,
								"contract": "contracts/StructDemo.sol:StructDemo",
								"label": "payments",
								"offset": 0,
								"slot": "2",
								"type": "t_mapping(t_uint256,t_struct(Payment)6_storage)"
							}
						],
						"numberOfBytes": "96"
					},
					"t_struct(Payment)6_storage": {
						"encoding": "inplace",
						"label": "struct StructDemo.Payment",
						"members": [
							{
								"astId": 3,
								"contract": "contracts/StructDemo.sol:StructDemo",
								"label": "amount",
								"offset": 0,
								"slot": "0",
								"type": "t_uint256"
							},
							{
								"astId": 5,
								"contract": "contracts/StructDemo.sol:StructDemo",
								"label": "timestamp",
								"offset": 0,
								"slot": "1",
								"type": "t_uint256"
							}
						],
						"numberOfBytes": "64"
					},
					"t_uint256": {
						"encoding": "inplace",
						"label": "uint256",
						"numberOfBytes": "32"
					}
				}
			},
			"userdoc": {
				"kind": "user",
				"methods": {},
				"version": 1
			}
		}
	}
}