{
	"contracts/sol.sol": {
		"First": {
			"abi": [
				{
					"inputs": [],
					"name": "myAdd",
					"outputs": [
						{
							"internalType": "address",
							"name": "",
							"type": "address"
						}
					],
					"stateMutability": "view",
					"type": "function"
				},
				{
					"inputs": [],
					"name": "myAmount",
					"outputs": [
						{
							"internalType": "uint256",
							"name": "",
							"type": "uint256"
						}
					],
					"stateMutability": "view",
					"type": "function"
				},
				{
					"inputs": [
						{
							"internalType": "address payable",
							"name": "_anAddr",
							"type": "address"
						},
						{
							"internalType": "uint256",
							"name": "_anAmount",
							"type": "uint256"
						}
					],
					"name": "sendMoney",
					"outputs": [],
					"stateMutability": "payable",
					"type": "function"
				},
				{
					"inputs": [],
					"name": "whatAddress",
					"outputs": [],
					"stateMutability": "payable",
					"type": "function"
				}
			],
			"devdoc": {
				"kind": "dev",
				"methods": {},
				"version": 1
			},
			"evm": {
				"assembly": "    /* \"contracts/sol.sol\":61:374  contract First {... */\n  mstore(0x40, 0x80)\n    /* \"contracts/sol.sol\":102:112  msg.sender */\n  caller\n    /* \"contracts/sol.sol\":79:112  address public myAdd = msg.sender */\n  0x00\n  dup1\n  0x0100\n  exp\n  dup2\n  sload\n  dup2\n  0xffffffffffffffffffffffffffffffffffffffff\n  mul\n  not\n  and\n  swap1\n  dup4\n  0xffffffffffffffffffffffffffffffffffffffff\n  and\n  mul\n  or\n  swap1\n  sstore\n  pop\n    /* \"contracts/sol.sol\":61:374  contract First {... */\n  callvalue\n  dup1\n  iszero\n  tag_1\n  jumpi\n  0x00\n  dup1\n  revert\ntag_1:\n  pop\n  dataSize(sub_0)\n  dup1\n  dataOffset(sub_0)\n  0x00\n  codecopy\n  0x00\n  return\nstop\n\nsub_0: assembly {\n        /* \"contracts/sol.sol\":61:374  contract First {... */\n      mstore(0x40, 0x80)\n      jumpi(tag_1, lt(calldatasize, 0x04))\n      shr(0xe0, calldataload(0x00))\n      dup1\n      0x03c59247\n      eq\n      tag_2\n      jumpi\n      dup1\n      0x045b58ee\n      eq\n      tag_3\n      jumpi\n      dup1\n      0x29896b9a\n      eq\n      tag_4\n      jumpi\n      dup1\n      0xee4ae2c9\n      eq\n      tag_5\n      jumpi\n    tag_1:\n      0x00\n      dup1\n      revert\n        /* \"contracts/sol.sol\":79:112  address public myAdd = msg.sender */\n    tag_2:\n      callvalue\n      dup1\n      iszero\n      tag_6\n      jumpi\n      0x00\n      dup1\n      revert\n    tag_6:\n      pop\n      tag_7\n      tag_8\n      jump\t// in\n    tag_7:\n      mload(0x40)\n      tag_9\n      swap2\n      swap1\n      tag_10\n      jump\t// in\n    tag_9:\n      mload(0x40)\n      dup1\n      swap2\n      sub\n      swap1\n      return\n        /* \"contracts/sol.sol\":140:207  function whatAddress() public payable {... */\n    tag_3:\n      tag_11\n      tag_12\n      jump\t// in\n    tag_11:\n      stop\n        /* \"contracts/sol.sol\":115:135  uint public myAmount */\n    tag_4:\n      callvalue\n      dup1\n      iszero\n      tag_13\n      jumpi\n      0x00\n      dup1\n      revert\n    tag_13:\n      pop\n      tag_14\n      tag_15\n      jump\t// in\n    tag_14:\n      mload(0x40)\n      tag_16\n      swap2\n      swap1\n      tag_17\n      jump\t// in\n    tag_16:\n      mload(0x40)\n      dup1\n      swap2\n      sub\n      swap1\n      return\n        /* \"contracts/sol.sol\":210:372  function sendMoney(address payable _anAddr, uint _anAmount) public payable {... */\n    tag_5:\n      tag_18\n      0x04\n      dup1\n      calldatasize\n      sub\n      dup2\n      add\n      swap1\n      tag_19\n      swap2\n      swap1\n      tag_20\n      jump\t// in\n    tag_19:\n      tag_21\n      jump\t// in\n    tag_18:\n      stop\n        /* \"contracts/sol.sol\":79:112  address public myAdd = msg.sender */\n    tag_8:\n      0x00\n      dup1\n      sload\n      swap1\n      0x0100\n      exp\n      swap1\n      div\n      0xffffffffffffffffffffffffffffffffffffffff\n      and\n      dup2\n      jump\t// out\n        /* \"contracts/sol.sol\":140:207  function whatAddress() public payable {... */\n    tag_12:\n        /* \"contracts/sol.sol\":194:203  msg.value */\n      callvalue\n        /* \"contracts/sol.sol\":182:190  myAmount */\n      0x01\n      0x00\n        /* \"contracts/sol.sol\":182:203  myAmount += msg.value */\n      dup3\n      dup3\n      sload\n      tag_23\n      swap2\n      swap1\n      tag_24\n      jump\t// in\n    tag_23:\n      swap3\n      pop\n      pop\n      dup2\n      swap1\n      sstore\n      pop\n        /* \"contracts/sol.sol\":140:207  function whatAddress() public payable {... */\n      jump\t// out\n        /* \"contracts/sol.sol\":115:135  uint public myAmount */\n    tag_15:\n      sload(0x01)\n      dup2\n      jump\t// out\n        /* \"contracts/sol.sol\":210:372  function sendMoney(address payable _anAddr, uint _anAmount) public payable {... */\n    tag_21:\n        /* \"contracts/sol.sol\":289:315  address payable anotherAdd */\n      0x00\n        /* \"contracts/sol.sol\":326:333  _anAddr */\n      dup3\n        /* \"contracts/sol.sol\":289:334  address payable anotherAdd = payable(_anAddr) */\n      swap1\n      pop\n        /* \"contracts/sol.sol\":338:348  anotherAdd */\n      dup1\n        /* \"contracts/sol.sol\":338:357  anotherAdd.transfer */\n      0xffffffffffffffffffffffffffffffffffffffff\n      and\n        /* \"contracts/sol.sol\":338:368  anotherAdd.transfer(_anAmount) */\n      0x08fc\n        /* \"contracts/sol.sol\":358:367  _anAmount */\n      dup4\n        /* \"contracts/sol.sol\":338:368  anotherAdd.transfer(_anAmount) */\n      swap1\n      dup2\n      iszero\n      mul\n      swap1\n      mload(0x40)\n      0x00\n      mload(0x40)\n      dup1\n      dup4\n      sub\n      dup2\n      dup6\n      dup9\n      dup9\n      call\n      swap4\n      pop\n      pop\n      pop\n      pop\n      iszero\n      dup1\n      iszero\n      tag_27\n      jumpi\n      returndatasize\n      0x00\n      dup1\n      returndatacopy\n      revert(0x00, returndatasize)\n    tag_27:\n      pop\n        /* \"contracts/sol.sol\":285:372  {... */\n      pop\n        /* \"contracts/sol.sol\":210:372  function sendMoney(address payable _anAddr, uint _anAmount) public payable {... */\n      pop\n      pop\n      jump\t// out\n        /* \"#utility.yul\":7:162   */\n    tag_29:\n        /* \"#utility.yul\":61:66   */\n      0x00\n        /* \"#utility.yul\":99:105   */\n      dup2\n        /* \"#utility.yul\":86:106   */\n      calldataload\n        /* \"#utility.yul\":77:106   */\n      swap1\n      pop\n        /* \"#utility.yul\":115:156   */\n      tag_31\n        /* \"#utility.yul\":150:155   */\n      dup2\n        /* \"#utility.yul\":115:156   */\n      tag_32\n      jump\t// in\n    tag_31:\n        /* \"#utility.yul\":7:162   */\n      swap3\n      swap2\n      pop\n      pop\n      jump\t// out\n        /* \"#utility.yul\":168:307   */\n    tag_33:\n        /* \"#utility.yul\":214:219   */\n      0x00\n        /* \"#utility.yul\":252:258   */\n      dup2\n        /* \"#utility.yul\":239:259   */\n      calldataload\n        /* \"#utility.yul\":230:259   */\n      swap1\n      pop\n        /* \"#utility.yul\":268:301   */\n      tag_35\n        /* \"#utility.yul\":295:300   */\n      dup2\n        /* \"#utility.yul\":268:301   */\n      tag_36\n      jump\t// in\n    tag_35:\n        /* \"#utility.yul\":168:307   */\n      swap3\n      swap2\n      pop\n      pop\n      jump\t// out\n        /* \"#utility.yul\":313:803   */\n    tag_20:\n        /* \"#utility.yul\":389:395   */\n      0x00\n        /* \"#utility.yul\":397:403   */\n      dup1\n        /* \"#utility.yul\":446:448   */\n      0x40\n        /* \"#utility.yul\":434:443   */\n      dup4\n        /* \"#utility.yul\":425:432   */\n      dup6\n        /* \"#utility.yul\":421:444   */\n      sub\n        /* \"#utility.yul\":417:449   */\n      slt\n        /* \"#utility.yul\":414:533   */\n      iszero\n      tag_38\n      jumpi\n        /* \"#utility.yul\":452:531   */\n      tag_39\n      tag_40\n      jump\t// in\n    tag_39:\n        /* \"#utility.yul\":414:533   */\n    tag_38:\n        /* \"#utility.yul\":572:573   */\n      0x00\n        /* \"#utility.yul\":597:658   */\n      tag_41\n        /* \"#utility.yul\":650:657   */\n      dup6\n        /* \"#utility.yul\":641:647   */\n      dup3\n        /* \"#utility.yul\":630:639   */\n      dup7\n        /* \"#utility.yul\":626:648   */\n      add\n        /* \"#utility.yul\":597:658   */\n      tag_29\n      jump\t// in\n    tag_41:\n        /* \"#utility.yul\":587:658   */\n      swap3\n      pop\n        /* \"#utility.yul\":543:668   */\n      pop\n        /* \"#utility.yul\":707:709   */\n      0x20\n        /* \"#utility.yul\":733:786   */\n      tag_42\n        /* \"#utility.yul\":778:785   */\n      dup6\n        /* \"#utility.yul\":769:775   */\n      dup3\n        /* \"#utility.yul\":758:767   */\n      dup7\n        /* \"#utility.yul\":754:776   */\n      add\n        /* \"#utility.yul\":733:786   */\n      tag_33\n      jump\t// in\n    tag_42:\n        /* \"#utility.yul\":723:786   */\n      swap2\n      pop\n        /* \"#utility.yul\":678:796   */\n      pop\n        /* \"#utility.yul\":313:803   */\n      swap3\n      pop\n      swap3\n      swap1\n      pop\n      jump\t// out\n        /* \"#utility.yul\":809:927   */\n    tag_43:\n        /* \"#utility.yul\":896:920   */\n      tag_45\n        /* \"#utility.yul\":914:919   */\n      dup2\n        /* \"#utility.yul\":896:920   */\n      tag_46\n      jump\t// in\n    tag_45:\n        /* \"#utility.yul\":891:894   */\n      dup3\n        /* \"#utility.yul\":884:921   */\n      mstore\n        /* \"#utility.yul\":809:927   */\n      pop\n      pop\n      jump\t// out\n        /* \"#utility.yul\":933:1051   */\n    tag_47:\n        /* \"#utility.yul\":1020:1044   */\n      tag_49\n        /* \"#utility.yul\":1038:1043   */\n      dup2\n        /* \"#utility.yul\":1020:1044   */\n      tag_50\n      jump\t// in\n    tag_49:\n        /* \"#utility.yul\":1015:1018   */\n      dup3\n        /* \"#utility.yul\":1008:1045   */\n      mstore\n        /* \"#utility.yul\":933:1051   */\n      pop\n      pop\n      jump\t// out\n        /* \"#utility.yul\":1057:1279   */\n    tag_10:\n        /* \"#utility.yul\":1150:1154   */\n      0x00\n        /* \"#utility.yul\":1188:1190   */\n      0x20\n        /* \"#utility.yul\":1177:1186   */\n      dup3\n        /* \"#utility.yul\":1173:1191   */\n      add\n        /* \"#utility.yul\":1165:1191   */\n      swap1\n      pop\n        /* \"#utility.yul\":1201:1272   */\n      tag_52\n        /* \"#utility.yul\":1269:1270   */\n      0x00\n        /* \"#utility.yul\":1258:1267   */\n      dup4\n        /* \"#utility.yul\":1254:1271   */\n      add\n        /* \"#utility.yul\":1245:1251   */\n      dup5\n        /* \"#utility.yul\":1201:1272   */\n      tag_43\n      jump\t// in\n    tag_52:\n        /* \"#utility.yul\":1057:1279   */\n      swap3\n      swap2\n      pop\n      pop\n      jump\t// out\n        /* \"#utility.yul\":1285:1507   */\n    tag_17:\n        /* \"#utility.yul\":1378:1382   */\n      0x00\n        /* \"#utility.yul\":1416:1418   */\n      0x20\n        /* \"#utility.yul\":1405:1414   */\n      dup3\n        /* \"#utility.yul\":1401:1419   */\n      add\n        /* \"#utility.yul\":1393:1419   */\n      swap1\n      pop\n        /* \"#utility.yul\":1429:1500   */\n      tag_54\n        /* \"#utility.yul\":1497:1498   */\n      0x00\n        /* \"#utility.yul\":1486:1495   */\n      dup4\n        /* \"#utility.yul\":1482:1499   */\n      add\n        /* \"#utility.yul\":1473:1479   */\n      dup5\n        /* \"#utility.yul\":1429:1500   */\n      tag_47\n      jump\t// in\n    tag_54:\n        /* \"#utility.yul\":1285:1507   */\n      swap3\n      swap2\n      pop\n      pop\n      jump\t// out\n        /* \"#utility.yul\":1594:1899   */\n    tag_24:\n        /* \"#utility.yul\":1634:1637   */\n      0x00\n        /* \"#utility.yul\":1653:1673   */\n      tag_58\n        /* \"#utility.yul\":1671:1672   */\n      dup3\n        /* \"#utility.yul\":1653:1673   */\n      tag_50\n      jump\t// in\n    tag_58:\n        /* \"#utility.yul\":1648:1673   */\n      swap2\n      pop\n        /* \"#utility.yul\":1687:1707   */\n      tag_59\n        /* \"#utility.yul\":1705:1706   */\n      dup4\n        /* \"#utility.yul\":1687:1707   */\n      tag_50\n      jump\t// in\n    tag_59:\n        /* \"#utility.yul\":1682:1707   */\n      swap3\n      pop\n        /* \"#utility.yul\":1841:1842   */\n      dup3\n        /* \"#utility.yul\":1773:1839   */\n      0xffffffffffffffffffffffffffffffffffffffffffffffffffffffffffffffff\n        /* \"#utility.yul\":1769:1843   */\n      sub\n        /* \"#utility.yul\":1766:1767   */\n      dup3\n        /* \"#utility.yul\":1763:1844   */\n      gt\n        /* \"#utility.yul\":1760:1867   */\n      iszero\n      tag_60\n      jumpi\n        /* \"#utility.yul\":1847:1865   */\n      tag_61\n      tag_62\n      jump\t// in\n    tag_61:\n        /* \"#utility.yul\":1760:1867   */\n    tag_60:\n        /* \"#utility.yul\":1891:1892   */\n      dup3\n        /* \"#utility.yul\":1888:1889   */\n      dup3\n        /* \"#utility.yul\":1884:1893   */\n      add\n        /* \"#utility.yul\":1877:1893   */\n      swap1\n      pop\n        /* \"#utility.yul\":1594:1899   */\n      swap3\n      swap2\n      pop\n      pop\n      jump\t// out\n        /* \"#utility.yul\":1905:2001   */\n    tag_46:\n        /* \"#utility.yul\":1942:1949   */\n      0x00\n        /* \"#utility.yul\":1971:1995   */\n      tag_64\n        /* \"#utility.yul\":1989:1994   */\n      dup3\n        /* \"#utility.yul\":1971:1995   */\n      tag_65\n      jump\t// in\n    tag_64:\n        /* \"#utility.yul\":1960:1995   */\n      swap1\n      pop\n        /* \"#utility.yul\":1905:2001   */\n      swap2\n      swap1\n      pop\n      jump\t// out\n        /* \"#utility.yul\":2007:2111   */\n    tag_66:\n        /* \"#utility.yul\":2052:2059   */\n      0x00\n        /* \"#utility.yul\":2081:2105   */\n      tag_68\n        /* \"#utility.yul\":2099:2104   */\n      dup3\n        /* \"#utility.yul\":2081:2105   */\n      tag_65\n      jump\t// in\n    tag_68:\n        /* \"#utility.yul\":2070:2105   */\n      swap1\n      pop\n        /* \"#utility.yul\":2007:2111   */\n      swap2\n      swap1\n      pop\n      jump\t// out\n        /* \"#utility.yul\":2117:2243   */\n    tag_65:\n        /* \"#utility.yul\":2154:2161   */\n      0x00\n        /* \"#utility.yul\":2194:2236   */\n      0xffffffffffffffffffffffffffffffffffffffff\n        /* \"#utility.yul\":2187:2192   */\n      dup3\n        /* \"#utility.yul\":2183:2237   */\n      and\n        /* \"#utility.yul\":2172:2237   */\n      swap1\n      pop\n        /* \"#utility.yul\":2117:2243   */\n      swap2\n      swap1\n      pop\n      jump\t// out\n        /* \"#utility.yul\":2249:2326   */\n    tag_50:\n        /* \"#utility.yul\":2286:2293   */\n      0x00\n        /* \"#utility.yul\":2315:2320   */\n      dup2\n        /* \"#utility.yul\":2304:2320   */\n      swap1\n      pop\n        /* \"#utility.yul\":2249:2326   */\n      swap2\n      swap1\n      pop\n      jump\t// out\n        /* \"#utility.yul\":2332:2512   */\n    tag_62:\n        /* \"#utility.yul\":2380:2457   */\n      0x4e487b7100000000000000000000000000000000000000000000000000000000\n        /* \"#utility.yul\":2377:2378   */\n      0x00\n        /* \"#utility.yul\":2370:2458   */\n      mstore\n        /* \"#utility.yul\":2477:2481   */\n      0x11\n        /* \"#utility.yul\":2474:2475   */\n      0x04\n        /* \"#utility.yul\":2467:2482   */\n      mstore\n        /* \"#utility.yul\":2501:2505   */\n      0x24\n        /* \"#utility.yul\":2498:2499   */\n      0x00\n        /* \"#utility.yul\":2491:2506   */\n      revert\n        /* \"#utility.yul\":2641:2758   */\n    tag_40:\n        /* \"#utility.yul\":2750:2751   */\n      0x00\n        /* \"#utility.yul\":2747:2748   */\n      dup1\n        /* \"#utility.yul\":2740:2752   */\n      revert\n        /* \"#utility.yul\":2764:2902   */\n    tag_32:\n        /* \"#utility.yul\":2845:2877   */\n      tag_76\n        /* \"#utility.yul\":2871:2876   */\n      dup2\n        /* \"#utility.yul\":2845:2877   */\n      tag_66\n      jump\t// in\n    tag_76:\n        /* \"#utility.yul\":2838:2843   */\n      dup2\n        /* \"#utility.yul\":2835:2878   */\n      eq\n        /* \"#utility.yul\":2825:2896   */\n      tag_77\n      jumpi\n        /* \"#utility.yul\":2892:2893   */\n      0x00\n        /* \"#utility.yul\":2889:2890   */\n      dup1\n        /* \"#utility.yul\":2882:2894   */\n      revert\n        /* \"#utility.yul\":2825:2896   */\n    tag_77:\n        /* \"#utility.yul\":2764:2902   */\n      pop\n      jump\t// out\n        /* \"#utility.yul\":2908:3030   */\n    tag_36:\n        /* \"#utility.yul\":2981:3005   */\n      tag_79\n        /* \"#utility.yul\":2999:3004   */\n      dup2\n        /* \"#utility.yul\":2981:3005   */\n      tag_50\n      jump\t// in\n    tag_79:\n        /* \"#utility.yul\":2974:2979   */\n      dup2\n        /* \"#utility.yul\":2971:3006   */\n      eq\n        /* \"#utility.yul\":2961:3024   */\n      tag_80\n      jumpi\n        /* \"#utility.yul\":3020:3021   */\n      0x00\n        /* \"#utility.yul\":3017:3018   */\n      dup1\n        /* \"#utility.yul\":3010:3022   */\n      revert\n        /* \"#utility.yul\":2961:3024   */\n    tag_80:\n        /* \"#utility.yul\":2908:3030   */\n      pop\n      jump\t// out\n\n    auxdata: 0xa264697066735822122061af0a81a2c1f2ea2f5248f7ca1659a1d4ae93cf5892e16007c6ac2b59143fb464736f6c63430008070033\n}\n",
				"bytecode": {
					"linkReferences": {},
					"object": "6080604052336000806101000a81548173ffffffffffffffffffffffffffffffffffffffff021916908373ffffffffffffffffffffffffffffffffffffffff16021790555034801561005057600080fd5b50610350806100606000396000f3fe60806040526004361061003f5760003560e01c806303c5924714610044578063045b58ee1461006f57806329896b9a14610079578063ee4ae2c9146100a4575b600080fd5b34801561005057600080fd5b506100596100c0565b60405161006691906101de565b60405180910390f35b6100776100e4565b005b34801561008557600080fd5b5061008e6100ff565b60405161009b91906101f9565b60405180910390f35b6100be60048036038101906100b99190610180565b610105565b005b60008054906101000a900473ffffffffffffffffffffffffffffffffffffffff1681565b34600160008282546100f69190610214565b92505081905550565b60015481565b60008290508073ffffffffffffffffffffffffffffffffffffffff166108fc839081150290604051600060405180830381858888f19350505050158015610150573d6000803e3d6000fd5b50505050565b600081359050610165816102ec565b92915050565b60008135905061017a81610303565b92915050565b60008060408385031215610197576101966102e7565b5b60006101a585828601610156565b92505060206101b68582860161016b565b9150509250929050565b6101c98161026a565b82525050565b6101d8816102ae565b82525050565b60006020820190506101f360008301846101c0565b92915050565b600060208201905061020e60008301846101cf565b92915050565b600061021f826102ae565b915061022a836102ae565b9250827fffffffffffffffffffffffffffffffffffffffffffffffffffffffffffffffff0382111561025f5761025e6102b8565b5b828201905092915050565b60006102758261028e565b9050919050565b60006102878261028e565b9050919050565b600073ffffffffffffffffffffffffffffffffffffffff82169050919050565b6000819050919050565b7f4e487b7100000000000000000000000000000000000000000000000000000000600052601160045260246000fd5b600080fd5b6102f58161027c565b811461030057600080fd5b50565b61030c816102ae565b811461031757600080fd5b5056fea264697066735822122061af0a81a2c1f2ea2f5248f7ca1659a1d4ae93cf5892e16007c6ac2b59143fb464736f6c63430008070033",
					"opcodes": "PUSH1 0x80 PUSH1 0x40 MSTORE CALLER PUSH1 0x0 DUP1 PUSH2 0x100 EXP DUP2 SLOAD DUP2 PUSH20 0xFFFFFFFFFFFFFFFFFFFFFFFFFFFFFFFFFFFFFFFF MUL NOT AND SWAP1 DUP4 PUSH20 0xFFFFFFFFFFFFFFFFFFFFFFFFFFFFFFFFFFFFFFFF AND MUL OR SWAP1 SSTORE POP CALLVALUE DUP1 ISZERO PUSH2 0x50 JUMPI PUSH1 0x0 DUP1 REVERT JUMPDEST POP PUSH2 0x350 DUP1 PUSH2 0x60 PUSH1 0x0 CODECOPY PUSH1 0x0 RETURN INVALID PUSH1 0x80 PUSH1 0x40 MSTORE PUSH1 0x4 CALLDATASIZE LT PUSH2 0x3F JUMPI PUSH1 0x0 CALLDATALOAD PUSH1 0xE0 SHR DUP1 PUSH4 0x3C59247 EQ PUSH2 0x44 JUMPI DUP1 PUSH4 0x45B58EE EQ PUSH2 0x6F JUMPI DUP1 PUSH4 0x29896B9A EQ PUSH2 0x79 JUMPI DUP1 PUSH4 0xEE4AE2C9 EQ PUSH2 0xA4 JUMPI JUMPDEST PUSH1 0x0 DUP1 REVERT JUMPDEST CALLVALUE DUP1 ISZERO PUSH2 0x50 JUMPI PUSH1 0x0 DUP1 REVERT JUMPDEST POP PUSH2 0x59 PUSH2 0xC0 JUMP JUMPDEST PUSH1 0x40 MLOAD PUSH2 0x66 SWAP2 SWAP1 PUSH2 0x1DE JUMP JUMPDEST PUSH1 0x40 MLOAD DUP1 SWAP2 SUB SWAP1 RETURN JUMPDEST PUSH2 0x77 PUSH2 0xE4 JUMP JUMPDEST STOP JUMPDEST CALLVALUE DUP1 ISZERO PUSH2 0x85 JUMPI PUSH1 0x0 DUP1 REVERT JUMPDEST POP PUSH2 0x8E PUSH2 0xFF JUMP JUMPDEST PUSH1 0x40 MLOAD PUSH2 0x9B SWAP2 SWAP1 PUSH2 0x1F9 JUMP JUMPDEST PUSH1 0x40 MLOAD DUP1 SWAP2 SUB SWAP1 RETURN JUMPDEST PUSH2 0xBE PUSH1 0x4 DUP1 CALLDATASIZE SUB DUP2 ADD SWAP1 PUSH2 0xB9 SWAP2 SWAP1 PUSH2 0x180 JUMP JUMPDEST PUSH2 0x105 JUMP JUMPDEST STOP JUMPDEST PUSH1 0x0 DUP1 SLOAD SWAP1 PUSH2 0x100 EXP SWAP1 DIV PUSH20 0xFFFFFFFFFFFFFFFFFFFFFFFFFFFFFFFFFFFFFFFF AND DUP2 JUMP JUMPDEST CALLVALUE PUSH1 0x1 PUSH1 0x0 DUP3 DUP3 SLOAD PUSH2 0xF6 SWAP2 SWAP1 PUSH2 0x214 JUMP JUMPDEST SWAP3 POP POP DUP2 SWAP1 SSTORE POP JUMP JUMPDEST PUSH1 0x1 SLOAD DUP2 JUMP JUMPDEST PUSH1 0x0 DUP3 SWAP1 POP DUP1 PUSH20 0xFFFFFFFFFFFFFFFFFFFFFFFFFFFFFFFFFFFFFFFF AND PUSH2 0x8FC DUP4 SWAP1 DUP2 ISZERO MUL SWAP1 PUSH1 0x40 MLOAD PUSH1 0x0 PUSH1 0x40 MLOAD DUP1 DUP4 SUB DUP2 DUP6 DUP9 DUP9 CALL SWAP4 POP POP POP POP ISZERO DUP1 ISZERO PUSH2 0x150 JUMPI RETURNDATASIZE PUSH1 0x0 DUP1 RETURNDATACOPY RETURNDATASIZE PUSH1 0x0 REVERT JUMPDEST POP POP POP POP JUMP JUMPDEST PUSH1 0x0 DUP2 CALLDATALOAD SWAP1 POP PUSH2 0x165 DUP2 PUSH2 0x2EC JUMP JUMPDEST SWAP3 SWAP2 POP POP JUMP JUMPDEST PUSH1 0x0 DUP2 CALLDATALOAD SWAP1 POP PUSH2 0x17A DUP2 PUSH2 0x303 JUMP JUMPDEST SWAP3 SWAP2 POP POP JUMP JUMPDEST PUSH1 0x0 DUP1 PUSH1 0x40 DUP4 DUP6 SUB SLT ISZERO PUSH2 0x197 JUMPI PUSH2 0x196 PUSH2 0x2E7 JUMP JUMPDEST JUMPDEST PUSH1 0x0 PUSH2 0x1A5 DUP6 DUP3 DUP7 ADD PUSH2 0x156 JUMP JUMPDEST SWAP3 POP POP PUSH1 0x20 PUSH2 0x1B6 DUP6 DUP3 DUP7 ADD PUSH2 0x16B JUMP JUMPDEST SWAP2 POP POP SWAP3 POP SWAP3 SWAP1 POP JUMP JUMPDEST PUSH2 0x1C9 DUP2 PUSH2 0x26A JUMP JUMPDEST DUP3 MSTORE POP POP JUMP JUMPDEST PUSH2 0x1D8 DUP2 PUSH2 0x2AE JUMP JUMPDEST DUP3 MSTORE POP POP JUMP JUMPDEST PUSH1 0x0 PUSH1 0x20 DUP3 ADD SWAP1 POP PUSH2 0x1F3 PUSH1 0x0 DUP4 ADD DUP5 PUSH2 0x1C0 JUMP JUMPDEST SWAP3 SWAP2 POP POP JUMP JUMPDEST PUSH1 0x0 PUSH1 0x20 DUP3 ADD SWAP1 POP PUSH2 0x20E PUSH1 0x0 DUP4 ADD DUP5 PUSH2 0x1CF JUMP JUMPDEST SWAP3 SWAP2 POP POP JUMP JUMPDEST PUSH1 0x0 PUSH2 0x21F DUP3 PUSH2 0x2AE JUMP JUMPDEST SWAP2 POP PUSH2 0x22A DUP4 PUSH2 0x2AE JUMP JUMPDEST SWAP3 POP DUP3 PUSH32 0xFFFFFFFFFFFFFFFFFFFFFFFFFFFFFFFFFFFFFFFFFFFFFFFFFFFFFFFFFFFFFFFF SUB DUP3 GT ISZERO PUSH2 0x25F JUMPI PUSH2 0x25E PUSH2 0x2B8 JUMP JUMPDEST JUMPDEST DUP3 DUP3 ADD SWAP1 POP SWAP3 SWAP2 POP POP JUMP JUMPDEST PUSH1 0x0 PUSH2 0x275 DUP3 PUSH2 0x28E JUMP JUMPDEST SWAP1 POP SWAP2 SWAP1 POP JUMP JUMPDEST PUSH1 0x0 PUSH2 0x287 DUP3 PUSH2 0x28E JUMP JUMPDEST SWAP1 POP SWAP2 SWAP1 POP JUMP JUMPDEST PUSH1 0x0 PUSH20 0xFFFFFFFFFFFFFFFFFFFFFFFFFFFFFFFFFFFFFFFF DUP3 AND SWAP1 POP SWAP2 SWAP1 POP JUMP JUMPDEST PUSH1 0x0 DUP2 SWAP1 POP SWAP2 SWAP1 POP JUMP JUMPDEST PUSH32 0x4E487B7100000000000000000000000000000000000000000000000000000000 PUSH1 0x0 MSTORE PUSH1 0x11 PUSH1 0x4 MSTORE PUSH1 0x24 PUSH1 0x0 REVERT JUMPDEST PUSH1 0x0 DUP1 REVERT JUMPDEST PUSH2 0x2F5 DUP2 PUSH2 0x27C JUMP JUMPDEST DUP2 EQ PUSH2 0x300 JUMPI PUSH1 0x0 DUP1 REVERT JUMPDEST POP JUMP JUMPDEST PUSH2 0x30C DUP2 PUSH2 0x2AE JUMP JUMPDEST DUP2 EQ PUSH2 0x317 JUMPI PUSH1 0x0 DUP1 REVERT JUMPDEST POP JUMP INVALID LOG2 PUSH5 0x6970667358 0x22 SLT KECCAK256 PUSH2 0xAF0A DUP2 LOG2 0xC1 CALLCODE 0xEA 0x2F MSTORE BASEFEE 0xF7 0xCA AND MSIZE LOG1 0xD4 0xAE SWAP4 0xCF PC SWAP3 0xE1 PUSH1 0x7 0xC6 0xAC 0x2B MSIZE EQ EXTCODEHASH 0xB4 PUSH5 0x736F6C6343 STOP ADDMOD SMOD STOP CALLER "
				},
				"gasEstimates": {
					"creation": {
						"codeDepositCost": "169600",
						"executionCost": "24480",
						"totalCost": "194080"
					},
					"external": {
						"myAdd()": "2489",
						"myAmount()": "2451",
						"sendMoney(address,uint256)": "infinite",
						"whatAddress()": "infinite"
					}
				},
				"methodIdentifiers": {
					"myAdd()": "03c59247",
					"myAmount()": "29896b9a",
					"sendMoney(address,uint256)": "ee4ae2c9",
					"whatAddress()": "045b58ee"
				}
			},
			"storageLayout": {
				"storage": [
					{
						"astId": 5,
						"contract": "contracts/sol.sol:First",
						"label": "myAdd",
						"offset": 0,
						"slot": "0",
						"type": "t_address"
					},
					{
						"astId": 7,
						"contract": "contracts/sol.sol:First",
						"label": "myAmount",
						"offset": 0,
						"slot": "1",
						"type": "t_uint256"
					}
				],
				"types": {
					"t_address": {
						"encoding": "inplace",
						"label": "address",
						"numberOfBytes": "20"
					},
					"t_uint256": {
						"encoding": "inplace",
						"label": "uint256",
						"numberOfBytes": "32"
					}
				}
			},
			"userdoc": {
				"kind": "user",
				"methods": {},
				"version": 1
			}
		}
	}
}